{
  "contracts/VotingContract.sol": {
    "VotingContract": {
      "abi": [
        {
          "inputs": [
            {
              "internalType": "uint256",
              "name": "sessionId",
              "type": "uint256"
            },
            {
              "internalType": "string",
              "name": "name",
              "type": "string"
            }
          ],
          "name": "addCandidate",
          "outputs": [],
          "stateMutability": "nonpayable",
          "type": "function"
        },
        {
          "inputs": [
            {
              "internalType": "uint256",
              "name": "sessionId",
              "type": "uint256"
            }
          ],
          "name": "archiveSession",
          "outputs": [],
          "stateMutability": "nonpayable",
          "type": "function"
        },
        {
          "inputs": [
            {
              "internalType": "string",
              "name": "title",
              "type": "string"
            },
            {
              "internalType": "uint256",
              "name": "startTime",
              "type": "uint256"
            },
            {
              "internalType": "uint256",
              "name": "endTime",
              "type": "uint256"
            }
          ],
          "name": "createVotingSession",
          "outputs": [],
          "stateMutability": "nonpayable",
          "type": "function"
        },
        {
          "inputs": [
            {
              "internalType": "uint256",
              "name": "sessionId",
              "type": "uint256"
            }
          ],
          "name": "getCandidates",
          "outputs": [
            {
              "components": [
                {
                  "internalType": "string",
                  "name": "name",
                  "type": "string"
                },
                {
                  "internalType": "uint256",
                  "name": "voteCount",
                  "type": "uint256"
                }
              ],
              "internalType": "struct VotingContract.Candidate[]",
              "name": "",
              "type": "tuple[]"
            }
          ],
          "stateMutability": "view",
          "type": "function"
        },
        {
          "inputs": [
            {
              "internalType": "uint256",
              "name": "sessionId",
              "type": "uint256"
            }
          ],
          "name": "getWinner",
          "outputs": [
            {
              "internalType": "string",
              "name": "winnerName",
              "type": "string"
            }
          ],
          "stateMutability": "view",
          "type": "function"
        },
        {
          "inputs": [],
          "name": "sessionCount",
          "outputs": [
            {
              "internalType": "uint256",
              "name": "",
              "type": "uint256"
            }
          ],
          "stateMutability": "view",
          "type": "function"
        },
        {
          "inputs": [
            {
              "internalType": "uint256",
              "name": "sessionId",
              "type": "uint256"
            },
            {
              "internalType": "uint256",
              "name": "candidateId",
              "type": "uint256"
            }
          ],
          "name": "vote",
          "outputs": [],
          "stateMutability": "nonpayable",
          "type": "function"
        },
        {
          "inputs": [
            {
              "internalType": "uint256",
              "name": "",
              "type": "uint256"
            }
          ],
          "name": "votingSessions",
          "outputs": [
            {
              "internalType": "uint256",
              "name": "id",
              "type": "uint256"
            },
            {
              "internalType": "string",
              "name": "title",
              "type": "string"
            },
            {
              "internalType": "uint256",
              "name": "startTime",
              "type": "uint256"
            },
            {
              "internalType": "uint256",
              "name": "endTime",
              "type": "uint256"
            },
            {
              "internalType": "bool",
              "name": "isActive",
              "type": "bool"
            }
          ],
          "stateMutability": "view",
          "type": "function"
        }
      ],
      "evm": {
        "bytecode": {
          "linkReferences": {},
          "object": "6080604052348015600f57600080fd5b506117868061001f6000396000f3fe608060405234801561001057600080fd5b50600436106100885760003560e01c80634129b2c91161005b5780634129b2c91461012957806373cd833614610159578063b384abef14610177578063c08503c61461019357610088565b80631186eb7c1461008d5780631750a3d0146100c15780633544bfea146100dd5780633e39a7a5146100f9575b600080fd5b6100a760048036038101906100a29190610b2e565b6101af565b6040516100b8959493929190610c15565b60405180910390f35b6100db60048036038101906100d69190610da4565b61027a565b005b6100f760048036038101906100f29190610b2e565b6103cf565b005b610113600480360381019061010e9190610b2e565b6104a7565b6040516101209190610f58565b60405180910390f35b610143600480360381019061013e9190610b2e565b610612565b6040516101509190610f7a565b60405180910390f35b6101616107b9565b60405161016e9190610f9c565b60405180910390f35b610191600480360381019061018c9190610fb7565b6107bf565b005b6101ad60048036038101906101a89190610ff7565b610a21565b005b60016020528060005260406000206000915090508060000154908060010180546101d890611095565b80601f016020809104026020016040519081016040528092919081815260200182805461020490611095565b80156102515780601f1061022657610100808354040283529160200191610251565b820191906000526020600020905b81548152906001019060200180831161023457829003601f168201915b5050505050908060020154908060030154908060060160009054906101000a900460ff16905085565b8160016000828152602001908152602001600020600201544210806102b45750600160008281526020019081526020016000206003015442115b6102f3576040517f08c379a00000000000000000000000000000000000000000000000000000000081526004016102ea90611138565b60405180910390fd5b828060016000838152602001908152602001600020600001541461034c576040517f08c379a0000000000000000000000000000000000000000000000000000000008152600401610343906111a4565b60405180910390fd5b60006001600086815260200190815260200160002090508060040160405180604001604052808681526020016000815250908060018154018082558091505060019003906000526020600020906002020160009091909190915060008201518160000190816103bb9190611370565b506020820151816001015550505050505050565b8080600160008381526020019081526020016000206000015414610428576040517f08c379a000000000000000000000000000000000000000000000000000000000815260040161041f906111a4565b60405180910390fd5b600060016000848152602001908152602001600020905080600301544211610485576040517f08c379a000000000000000000000000000000000000000000000000000000000815260040161047c9061148e565b60405180910390fd5b60008160060160006101000a81548160ff021916908315150217905550505050565b60608180600160008381526020019081526020016000206000015414610502576040517f08c379a00000000000000000000000000000000000000000000000000000000081526004016104f9906111a4565b60405180910390fd5b60016000848152602001908152602001600020600401805480602002602001604051908101604052809291908181526020016000905b82821015610606578382906000526020600020906002020160405180604001604052908160008201805461056b90611095565b80601f016020809104026020016040519081016040528092919081815260200182805461059790611095565b80156105e45780601f106105b9576101008083540402835291602001916105e4565b820191906000526020600020905b8154815290600101906020018083116105c757829003601f168201915b5050505050815260200160018201548152505081526020019060010190610538565b50505050915050919050565b6060818060016000838152602001908152602001600020600001541461066d576040517f08c379a0000000000000000000000000000000000000000000000000000000008152600401610664906111a4565b60405180910390fd5b60006001600085815260200190815260200160002090506000805b82600401805490508110156107b057818360040182815481106106ae576106ad6114ae565b5b90600052602060002090600202016001015411156107a3578260040181815481106106dc576106db6114ae565b5b9060005260206000209060020201600101549150826004018181548110610706576107056114ae565b5b9060005260206000209060020201600001805461072290611095565b80601f016020809104026020016040519081016040528092919081815260200182805461074e90611095565b801561079b5780601f106107705761010080835404028352916020019161079b565b820191906000526020600020905b81548152906001019060200180831161077e57829003601f168201915b505050505094505b8080600101915050610688565b50505050919050565b60005481565b81600160008281526020019081526020016000206002015442101580156107fc575060016000828152602001908152602001600020600301544211155b61083b576040517f08c379a00000000000000000000000000000000000000000000000000000000081526004016108329061154f565b60405180910390fd5b8280600160008381526020019081526020016000206000015414610894576040517f08c379a000000000000000000000000000000000000000000000000000000000815260040161088b906111a4565b60405180910390fd5b60006001600086815260200190815260200160002090508060050160003373ffffffffffffffffffffffffffffffffffffffff1673ffffffffffffffffffffffffffffffffffffffff16815260200190815260200160002060009054906101000a900460ff161561093a576040517f08c379a0000000000000000000000000000000000000000000000000000000008152600401610931906115bb565b60405180910390fd5b80600401805490508410610983576040517f08c379a000000000000000000000000000000000000000000000000000000000815260040161097a90611627565b60405180910390fd5b60018160050160003373ffffffffffffffffffffffffffffffffffffffff1673ffffffffffffffffffffffffffffffffffffffff16815260200190815260200160002060006101000a81548160ff0219169083151502179055508060040184815481106109f3576109f26114ae565b5b90600052602060002090600202016001016000815480929190610a1590611676565b91905055505050505050565b818111610a63576040517f08c379a0000000000000000000000000000000000000000000000000000000008152600401610a5a90611730565b60405180910390fd5b600060016000805481526020019081526020016000209050600054816000018190555083816001019081610a979190611370565b5082816002018190555081816003018190555060018160060160006101000a81548160ff021916908315150217905550600080815480929190610ad990611676565b919050555050505050565b6000604051905090565b600080fd5b600080fd5b6000819050919050565b610b0b81610af8565b8114610b1657600080fd5b50565b600081359050610b2881610b02565b92915050565b600060208284031215610b4457610b43610aee565b5b6000610b5284828501610b19565b91505092915050565b610b6481610af8565b82525050565b600081519050919050565b600082825260208201905092915050565b60005b83811015610ba4578082015181840152602081019050610b89565b60008484015250505050565b6000601f19601f8301169050919050565b6000610bcc82610b6a565b610bd68185610b75565b9350610be6818560208601610b86565b610bef81610bb0565b840191505092915050565b60008115159050919050565b610c0f81610bfa565b82525050565b600060a082019050610c2a6000830188610b5b565b8181036020830152610c3c8187610bc1565b9050610c4b6040830186610b5b565b610c586060830185610b5b565b610c656080830184610c06565b9695505050505050565b600080fd5b600080fd5b7f4e487b7100000000000000000000000000000000000000000000000000000000600052604160045260246000fd5b610cb182610bb0565b810181811067ffffffffffffffff82111715610cd057610ccf610c79565b5b80604052505050565b6000610ce3610ae4565b9050610cef8282610ca8565b919050565b600067ffffffffffffffff821115610d0f57610d0e610c79565b5b610d1882610bb0565b9050602081019050919050565b82818337600083830152505050565b6000610d47610d4284610cf4565b610cd9565b905082815260208101848484011115610d6357610d62610c74565b5b610d6e848285610d25565b509392505050565b600082601f830112610d8b57610d8a610c6f565b5b8135610d9b848260208601610d34565b91505092915050565b60008060408385031215610dbb57610dba610aee565b5b6000610dc985828601610b19565b925050602083013567ffffffffffffffff811115610dea57610de9610af3565b5b610df685828601610d76565b9150509250929050565b600081519050919050565b600082825260208201905092915050565b6000819050602082019050919050565b600082825260208201905092915050565b6000610e4882610b6a565b610e528185610e2c565b9350610e62818560208601610b86565b610e6b81610bb0565b840191505092915050565b610e7f81610af8565b82525050565b60006040830160008301518482036000860152610ea28282610e3d565b9150506020830151610eb76020860182610e76565b508091505092915050565b6000610ece8383610e85565b905092915050565b6000602082019050919050565b6000610eee82610e00565b610ef88185610e0b565b935083602082028501610f0a85610e1c565b8060005b85811015610f465784840389528151610f278582610ec2565b9450610f3283610ed6565b925060208a01995050600181019050610f0e565b50829750879550505050505092915050565b60006020820190508181036000830152610f728184610ee3565b905092915050565b60006020820190508181036000830152610f948184610bc1565b905092915050565b6000602082019050610fb16000830184610b5b565b92915050565b60008060408385031215610fce57610fcd610aee565b5b6000610fdc85828601610b19565b9250506020610fed85828601610b19565b9150509250929050565b6000806000606084860312156110105761100f610aee565b5b600084013567ffffffffffffffff81111561102e5761102d610af3565b5b61103a86828701610d76565b935050602061104b86828701610b19565b925050604061105c86828701610b19565b9150509250925092565b7f4e487b7100000000000000000000000000000000000000000000000000000000600052602260045260246000fd5b600060028204905060018216806110ad57607f821691505b6020821081036110c0576110bf611066565b5b50919050565b7f416374696f6e207265737472696374656420746f206e6f6e2d766f74696e672060008201527f706572696f647320666f7220746869732073657373696f6e0000000000000000602082015250565b6000611122603883610b75565b915061112d826110c6565b604082019050919050565b6000602082019050818103600083015261115181611115565b9050919050565b7f53657373696f6e20646f6573206e6f7420657869737400000000000000000000600082015250565b600061118e601683610b75565b915061119982611158565b602082019050919050565b600060208201905081810360008301526111bd81611181565b9050919050565b60008190508160005260206000209050919050565b60006020601f8301049050919050565b600082821b905092915050565b6000600883026112267fffffffffffffffffffffffffffffffffffffffffffffffffffffffffffffffff826111e9565b61123086836111e9565b95508019841693508086168417925050509392505050565b6000819050919050565b600061126d61126861126384610af8565b611248565b610af8565b9050919050565b6000819050919050565b61128783611252565b61129b61129382611274565b8484546111f6565b825550505050565b600090565b6112b06112a3565b6112bb81848461127e565b505050565b5b818110156112df576112d46000826112a8565b6001810190506112c1565b5050565b601f821115611324576112f5816111c4565b6112fe846111d9565b8101602085101561130d578190505b611321611319856111d9565b8301826112c0565b50505b505050565b600082821c905092915050565b600061134760001984600802611329565b1980831691505092915050565b60006113608383611336565b9150826002028217905092915050565b61137982610b6a565b67ffffffffffffffff81111561139257611391610c79565b5b61139c8254611095565b6113a78282856112e3565b600060209050601f8311600181146113da57600084156113c8578287015190505b6113d28582611354565b86555061143a565b601f1984166113e8866111c4565b60005b82811015611410578489015182556001820191506020850194506020810190506113eb565b8683101561142d5784890151611429601f891682611336565b8355505b6001600288020188555050505b505050505050565b7f43616e6e6f742061726368697665206163746976652073657373696f6e000000600082015250565b6000611478601d83610b75565b915061148382611442565b602082019050919050565b600060208201905081810360008301526114a78161146b565b9050919050565b7f4e487b7100000000000000000000000000000000000000000000000000000000600052603260045260246000fd5b7f566f74696e67206973206e6f742061637469766520666f72207468697320736560008201527f7373696f6e000000000000000000000000000000000000000000000000000000602082015250565b6000611539602583610b75565b9150611544826114dd565b604082019050919050565b600060208201905081810360008301526115688161152c565b9050919050565b7f596f75206861766520616c726561647920766f74656400000000000000000000600082015250565b60006115a5601683610b75565b91506115b08261156f565b602082019050919050565b600060208201905081810360008301526115d481611598565b9050919050565b7f496e76616c69642063616e646964617465204944000000000000000000000000600082015250565b6000611611601483610b75565b915061161c826115db565b602082019050919050565b6000602082019050818103600083015261164081611604565b9050919050565b7f4e487b7100000000000000000000000000000000000000000000000000000000600052601160045260246000fd5b600061168182610af8565b91507fffffffffffffffffffffffffffffffffffffffffffffffffffffffffffffffff82036116b3576116b2611647565b5b600182019050919050565b7f456e642074696d65206d7573742062652061667465722073746172742074696d60008201527f6500000000000000000000000000000000000000000000000000000000000000602082015250565b600061171a602183610b75565b9150611725826116be565b604082019050919050565b600060208201905081810360008301526117498161170d565b905091905056fea2646970667358221220ceddba317940b58c04ad9772f6cae8804ebb86598eac4adcff1b9fc9816e187d64736f6c634300081b0033",
          "opcodes": "PUSH1 0x80 PUSH1 0x40 MSTORE CALLVALUE DUP1 ISZERO PUSH1 0xF JUMPI PUSH1 0x0 DUP1 REVERT JUMPDEST POP PUSH2 0x1786 DUP1 PUSH2 0x1F PUSH1 0x0 CODECOPY PUSH1 0x0 RETURN INVALID PUSH1 0x80 PUSH1 0x40 MSTORE CALLVALUE DUP1 ISZERO PUSH2 0x10 JUMPI PUSH1 0x0 DUP1 REVERT JUMPDEST POP PUSH1 0x4 CALLDATASIZE LT PUSH2 0x88 JUMPI PUSH1 0x0 CALLDATALOAD PUSH1 0xE0 SHR DUP1 PUSH4 0x4129B2C9 GT PUSH2 0x5B JUMPI DUP1 PUSH4 0x4129B2C9 EQ PUSH2 0x129 JUMPI DUP1 PUSH4 0x73CD8336 EQ PUSH2 0x159 JUMPI DUP1 PUSH4 0xB384ABEF EQ PUSH2 0x177 JUMPI DUP1 PUSH4 0xC08503C6 EQ PUSH2 0x193 JUMPI PUSH2 0x88 JUMP JUMPDEST DUP1 PUSH4 0x1186EB7C EQ PUSH2 0x8D JUMPI DUP1 PUSH4 0x1750A3D0 EQ PUSH2 0xC1 JUMPI DUP1 PUSH4 0x3544BFEA EQ PUSH2 0xDD JUMPI DUP1 PUSH4 0x3E39A7A5 EQ PUSH2 0xF9 JUMPI JUMPDEST PUSH1 0x0 DUP1 REVERT JUMPDEST PUSH2 0xA7 PUSH1 0x4 DUP1 CALLDATASIZE SUB DUP2 ADD SWAP1 PUSH2 0xA2 SWAP2 SWAP1 PUSH2 0xB2E JUMP JUMPDEST PUSH2 0x1AF JUMP JUMPDEST PUSH1 0x40 MLOAD PUSH2 0xB8 SWAP6 SWAP5 SWAP4 SWAP3 SWAP2 SWAP1 PUSH2 0xC15 JUMP JUMPDEST PUSH1 0x40 MLOAD DUP1 SWAP2 SUB SWAP1 RETURN JUMPDEST PUSH2 0xDB PUSH1 0x4 DUP1 CALLDATASIZE SUB DUP2 ADD SWAP1 PUSH2 0xD6 SWAP2 SWAP1 PUSH2 0xDA4 JUMP JUMPDEST PUSH2 0x27A JUMP JUMPDEST STOP JUMPDEST PUSH2 0xF7 PUSH1 0x4 DUP1 CALLDATASIZE SUB DUP2 ADD SWAP1 PUSH2 0xF2 SWAP2 SWAP1 PUSH2 0xB2E JUMP JUMPDEST PUSH2 0x3CF JUMP JUMPDEST STOP JUMPDEST PUSH2 0x113 PUSH1 0x4 DUP1 CALLDATASIZE SUB DUP2 ADD SWAP1 PUSH2 0x10E SWAP2 SWAP1 PUSH2 0xB2E JUMP JUMPDEST PUSH2 0x4A7 JUMP JUMPDEST PUSH1 0x40 MLOAD PUSH2 0x120 SWAP2 SWAP1 PUSH2 0xF58 JUMP JUMPDEST PUSH1 0x40 MLOAD DUP1 SWAP2 SUB SWAP1 RETURN JUMPDEST PUSH2 0x143 PUSH1 0x4 DUP1 CALLDATASIZE SUB DUP2 ADD SWAP1 PUSH2 0x13E SWAP2 SWAP1 PUSH2 0xB2E JUMP JUMPDEST PUSH2 0x612 JUMP JUMPDEST PUSH1 0x40 MLOAD PUSH2 0x150 SWAP2 SWAP1 PUSH2 0xF7A JUMP JUMPDEST PUSH1 0x40 MLOAD DUP1 SWAP2 SUB SWAP1 RETURN JUMPDEST PUSH2 0x161 PUSH2 0x7B9 JUMP JUMPDEST PUSH1 0x40 MLOAD PUSH2 0x16E SWAP2 SWAP1 PUSH2 0xF9C JUMP JUMPDEST PUSH1 0x40 MLOAD DUP1 SWAP2 SUB SWAP1 RETURN JUMPDEST PUSH2 0x191 PUSH1 0x4 DUP1 CALLDATASIZE SUB DUP2 ADD SWAP1 PUSH2 0x18C SWAP2 SWAP1 PUSH2 0xFB7 JUMP JUMPDEST PUSH2 0x7BF JUMP JUMPDEST STOP JUMPDEST PUSH2 0x1AD PUSH1 0x4 DUP1 CALLDATASIZE SUB DUP2 ADD SWAP1 PUSH2 0x1A8 SWAP2 SWAP1 PUSH2 0xFF7 JUMP JUMPDEST PUSH2 0xA21 JUMP JUMPDEST STOP JUMPDEST PUSH1 0x1 PUSH1 0x20 MSTORE DUP1 PUSH1 0x0 MSTORE PUSH1 0x40 PUSH1 0x0 KECCAK256 PUSH1 0x0 SWAP2 POP SWAP1 POP DUP1 PUSH1 0x0 ADD SLOAD SWAP1 DUP1 PUSH1 0x1 ADD DUP1 SLOAD PUSH2 0x1D8 SWAP1 PUSH2 0x1095 JUMP JUMPDEST DUP1 PUSH1 0x1F ADD PUSH1 0x20 DUP1 SWAP2 DIV MUL PUSH1 0x20 ADD PUSH1 0x40 MLOAD SWAP1 DUP2 ADD PUSH1 0x40 MSTORE DUP1 SWAP3 SWAP2 SWAP1 DUP2 DUP2 MSTORE PUSH1 0x20 ADD DUP3 DUP1 SLOAD PUSH2 0x204 SWAP1 PUSH2 0x1095 JUMP JUMPDEST DUP1 ISZERO PUSH2 0x251 JUMPI DUP1 PUSH1 0x1F LT PUSH2 0x226 JUMPI PUSH2 0x100 DUP1 DUP4 SLOAD DIV MUL DUP4 MSTORE SWAP2 PUSH1 0x20 ADD SWAP2 PUSH2 0x251 JUMP JUMPDEST DUP3 ADD SWAP2 SWAP1 PUSH1 0x0 MSTORE PUSH1 0x20 PUSH1 0x0 KECCAK256 SWAP1 JUMPDEST DUP2 SLOAD DUP2 MSTORE SWAP1 PUSH1 0x1 ADD SWAP1 PUSH1 0x20 ADD DUP1 DUP4 GT PUSH2 0x234 JUMPI DUP3 SWAP1 SUB PUSH1 0x1F AND DUP3 ADD SWAP2 JUMPDEST POP POP POP POP POP SWAP1 DUP1 PUSH1 0x2 ADD SLOAD SWAP1 DUP1 PUSH1 0x3 ADD SLOAD SWAP1 DUP1 PUSH1 0x6 ADD PUSH1 0x0 SWAP1 SLOAD SWAP1 PUSH2 0x100 EXP SWAP1 DIV PUSH1 0xFF AND SWAP1 POP DUP6 JUMP JUMPDEST DUP2 PUSH1 0x1 PUSH1 0x0 DUP3 DUP2 MSTORE PUSH1 0x20 ADD SWAP1 DUP2 MSTORE PUSH1 0x20 ADD PUSH1 0x0 KECCAK256 PUSH1 0x2 ADD SLOAD TIMESTAMP LT DUP1 PUSH2 0x2B4 JUMPI POP PUSH1 0x1 PUSH1 0x0 DUP3 DUP2 MSTORE PUSH1 0x20 ADD SWAP1 DUP2 MSTORE PUSH1 0x20 ADD PUSH1 0x0 KECCAK256 PUSH1 0x3 ADD SLOAD TIMESTAMP GT JUMPDEST PUSH2 0x2F3 JUMPI PUSH1 0x40 MLOAD PUSH32 0x8C379A000000000000000000000000000000000000000000000000000000000 DUP2 MSTORE PUSH1 0x4 ADD PUSH2 0x2EA SWAP1 PUSH2 0x1138 JUMP JUMPDEST PUSH1 0x40 MLOAD DUP1 SWAP2 SUB SWAP1 REVERT JUMPDEST DUP3 DUP1 PUSH1 0x1 PUSH1 0x0 DUP4 DUP2 MSTORE PUSH1 0x20 ADD SWAP1 DUP2 MSTORE PUSH1 0x20 ADD PUSH1 0x0 KECCAK256 PUSH1 0x0 ADD SLOAD EQ PUSH2 0x34C JUMPI PUSH1 0x40 MLOAD PUSH32 0x8C379A000000000000000000000000000000000000000000000000000000000 DUP2 MSTORE PUSH1 0x4 ADD PUSH2 0x343 SWAP1 PUSH2 0x11A4 JUMP JUMPDEST PUSH1 0x40 MLOAD DUP1 SWAP2 SUB SWAP1 REVERT JUMPDEST PUSH1 0x0 PUSH1 0x1 PUSH1 0x0 DUP7 DUP2 MSTORE PUSH1 0x20 ADD SWAP1 DUP2 MSTORE PUSH1 0x20 ADD PUSH1 0x0 KECCAK256 SWAP1 POP DUP1 PUSH1 0x4 ADD PUSH1 0x40 MLOAD DUP1 PUSH1 0x40 ADD PUSH1 0x40 MSTORE DUP1 DUP7 DUP2 MSTORE PUSH1 0x20 ADD PUSH1 0x0 DUP2 MSTORE POP SWAP1 DUP1 PUSH1 0x1 DUP2 SLOAD ADD DUP1 DUP3 SSTORE DUP1 SWAP2 POP POP PUSH1 0x1 SWAP1 SUB SWAP1 PUSH1 0x0 MSTORE PUSH1 0x20 PUSH1 0x0 KECCAK256 SWAP1 PUSH1 0x2 MUL ADD PUSH1 0x0 SWAP1 SWAP2 SWAP1 SWAP2 SWAP1 SWAP2 POP PUSH1 0x0 DUP3 ADD MLOAD DUP2 PUSH1 0x0 ADD SWAP1 DUP2 PUSH2 0x3BB SWAP2 SWAP1 PUSH2 0x1370 JUMP JUMPDEST POP PUSH1 0x20 DUP3 ADD MLOAD DUP2 PUSH1 0x1 ADD SSTORE POP POP POP POP POP POP POP JUMP JUMPDEST DUP1 DUP1 PUSH1 0x1 PUSH1 0x0 DUP4 DUP2 MSTORE PUSH1 0x20 ADD SWAP1 DUP2 MSTORE PUSH1 0x20 ADD PUSH1 0x0 KECCAK256 PUSH1 0x0 ADD SLOAD EQ PUSH2 0x428 JUMPI PUSH1 0x40 MLOAD PUSH32 0x8C379A000000000000000000000000000000000000000000000000000000000 DUP2 MSTORE PUSH1 0x4 ADD PUSH2 0x41F SWAP1 PUSH2 0x11A4 JUMP JUMPDEST PUSH1 0x40 MLOAD DUP1 SWAP2 SUB SWAP1 REVERT JUMPDEST PUSH1 0x0 PUSH1 0x1 PUSH1 0x0 DUP5 DUP2 MSTORE PUSH1 0x20 ADD SWAP1 DUP2 MSTORE PUSH1 0x20 ADD PUSH1 0x0 KECCAK256 SWAP1 POP DUP1 PUSH1 0x3 ADD SLOAD TIMESTAMP GT PUSH2 0x485 JUMPI PUSH1 0x40 MLOAD PUSH32 0x8C379A000000000000000000000000000000000000000000000000000000000 DUP2 MSTORE PUSH1 0x4 ADD PUSH2 0x47C SWAP1 PUSH2 0x148E JUMP JUMPDEST PUSH1 0x40 MLOAD DUP1 SWAP2 SUB SWAP1 REVERT JUMPDEST PUSH1 0x0 DUP2 PUSH1 0x6 ADD PUSH1 0x0 PUSH2 0x100 EXP DUP2 SLOAD DUP2 PUSH1 0xFF MUL NOT AND SWAP1 DUP4 ISZERO ISZERO MUL OR SWAP1 SSTORE POP POP POP POP JUMP JUMPDEST PUSH1 0x60 DUP2 DUP1 PUSH1 0x1 PUSH1 0x0 DUP4 DUP2 MSTORE PUSH1 0x20 ADD SWAP1 DUP2 MSTORE PUSH1 0x20 ADD PUSH1 0x0 KECCAK256 PUSH1 0x0 ADD SLOAD EQ PUSH2 0x502 JUMPI PUSH1 0x40 MLOAD PUSH32 0x8C379A000000000000000000000000000000000000000000000000000000000 DUP2 MSTORE PUSH1 0x4 ADD PUSH2 0x4F9 SWAP1 PUSH2 0x11A4 JUMP JUMPDEST PUSH1 0x40 MLOAD DUP1 SWAP2 SUB SWAP1 REVERT JUMPDEST PUSH1 0x1 PUSH1 0x0 DUP5 DUP2 MSTORE PUSH1 0x20 ADD SWAP1 DUP2 MSTORE PUSH1 0x20 ADD PUSH1 0x0 KECCAK256 PUSH1 0x4 ADD DUP1 SLOAD DUP1 PUSH1 0x20 MUL PUSH1 0x20 ADD PUSH1 0x40 MLOAD SWAP1 DUP2 ADD PUSH1 0x40 MSTORE DUP1 SWAP3 SWAP2 SWAP1 DUP2 DUP2 MSTORE PUSH1 0x20 ADD PUSH1 0x0 SWAP1 JUMPDEST DUP3 DUP3 LT ISZERO PUSH2 0x606 JUMPI DUP4 DUP3 SWAP1 PUSH1 0x0 MSTORE PUSH1 0x20 PUSH1 0x0 KECCAK256 SWAP1 PUSH1 0x2 MUL ADD PUSH1 0x40 MLOAD DUP1 PUSH1 0x40 ADD PUSH1 0x40 MSTORE SWAP1 DUP2 PUSH1 0x0 DUP3 ADD DUP1 SLOAD PUSH2 0x56B SWAP1 PUSH2 0x1095 JUMP JUMPDEST DUP1 PUSH1 0x1F ADD PUSH1 0x20 DUP1 SWAP2 DIV MUL PUSH1 0x20 ADD PUSH1 0x40 MLOAD SWAP1 DUP2 ADD PUSH1 0x40 MSTORE DUP1 SWAP3 SWAP2 SWAP1 DUP2 DUP2 MSTORE PUSH1 0x20 ADD DUP3 DUP1 SLOAD PUSH2 0x597 SWAP1 PUSH2 0x1095 JUMP JUMPDEST DUP1 ISZERO PUSH2 0x5E4 JUMPI DUP1 PUSH1 0x1F LT PUSH2 0x5B9 JUMPI PUSH2 0x100 DUP1 DUP4 SLOAD DIV MUL DUP4 MSTORE SWAP2 PUSH1 0x20 ADD SWAP2 PUSH2 0x5E4 JUMP JUMPDEST DUP3 ADD SWAP2 SWAP1 PUSH1 0x0 MSTORE PUSH1 0x20 PUSH1 0x0 KECCAK256 SWAP1 JUMPDEST DUP2 SLOAD DUP2 MSTORE SWAP1 PUSH1 0x1 ADD SWAP1 PUSH1 0x20 ADD DUP1 DUP4 GT PUSH2 0x5C7 JUMPI DUP3 SWAP1 SUB PUSH1 0x1F AND DUP3 ADD SWAP2 JUMPDEST POP POP POP POP POP DUP2 MSTORE PUSH1 0x20 ADD PUSH1 0x1 DUP3 ADD SLOAD DUP2 MSTORE POP POP DUP2 MSTORE PUSH1 0x20 ADD SWAP1 PUSH1 0x1 ADD SWAP1 PUSH2 0x538 JUMP JUMPDEST POP POP POP POP SWAP2 POP POP SWAP2 SWAP1 POP JUMP JUMPDEST PUSH1 0x60 DUP2 DUP1 PUSH1 0x1 PUSH1 0x0 DUP4 DUP2 MSTORE PUSH1 0x20 ADD SWAP1 DUP2 MSTORE PUSH1 0x20 ADD PUSH1 0x0 KECCAK256 PUSH1 0x0 ADD SLOAD EQ PUSH2 0x66D JUMPI PUSH1 0x40 MLOAD PUSH32 0x8C379A000000000000000000000000000000000000000000000000000000000 DUP2 MSTORE PUSH1 0x4 ADD PUSH2 0x664 SWAP1 PUSH2 0x11A4 JUMP JUMPDEST PUSH1 0x40 MLOAD DUP1 SWAP2 SUB SWAP1 REVERT JUMPDEST PUSH1 0x0 PUSH1 0x1 PUSH1 0x0 DUP6 DUP2 MSTORE PUSH1 0x20 ADD SWAP1 DUP2 MSTORE PUSH1 0x20 ADD PUSH1 0x0 KECCAK256 SWAP1 POP PUSH1 0x0 DUP1 JUMPDEST DUP3 PUSH1 0x4 ADD DUP1 SLOAD SWAP1 POP DUP2 LT ISZERO PUSH2 0x7B0 JUMPI DUP2 DUP4 PUSH1 0x4 ADD DUP3 DUP2 SLOAD DUP2 LT PUSH2 0x6AE JUMPI PUSH2 0x6AD PUSH2 0x14AE JUMP JUMPDEST JUMPDEST SWAP1 PUSH1 0x0 MSTORE PUSH1 0x20 PUSH1 0x0 KECCAK256 SWAP1 PUSH1 0x2 MUL ADD PUSH1 0x1 ADD SLOAD GT ISZERO PUSH2 0x7A3 JUMPI DUP3 PUSH1 0x4 ADD DUP2 DUP2 SLOAD DUP2 LT PUSH2 0x6DC JUMPI PUSH2 0x6DB PUSH2 0x14AE JUMP JUMPDEST JUMPDEST SWAP1 PUSH1 0x0 MSTORE PUSH1 0x20 PUSH1 0x0 KECCAK256 SWAP1 PUSH1 0x2 MUL ADD PUSH1 0x1 ADD SLOAD SWAP2 POP DUP3 PUSH1 0x4 ADD DUP2 DUP2 SLOAD DUP2 LT PUSH2 0x706 JUMPI PUSH2 0x705 PUSH2 0x14AE JUMP JUMPDEST JUMPDEST SWAP1 PUSH1 0x0 MSTORE PUSH1 0x20 PUSH1 0x0 KECCAK256 SWAP1 PUSH1 0x2 MUL ADD PUSH1 0x0 ADD DUP1 SLOAD PUSH2 0x722 SWAP1 PUSH2 0x1095 JUMP JUMPDEST DUP1 PUSH1 0x1F ADD PUSH1 0x20 DUP1 SWAP2 DIV MUL PUSH1 0x20 ADD PUSH1 0x40 MLOAD SWAP1 DUP2 ADD PUSH1 0x40 MSTORE DUP1 SWAP3 SWAP2 SWAP1 DUP2 DUP2 MSTORE PUSH1 0x20 ADD DUP3 DUP1 SLOAD PUSH2 0x74E SWAP1 PUSH2 0x1095 JUMP JUMPDEST DUP1 ISZERO PUSH2 0x79B JUMPI DUP1 PUSH1 0x1F LT PUSH2 0x770 JUMPI PUSH2 0x100 DUP1 DUP4 SLOAD DIV MUL DUP4 MSTORE SWAP2 PUSH1 0x20 ADD SWAP2 PUSH2 0x79B JUMP JUMPDEST DUP3 ADD SWAP2 SWAP1 PUSH1 0x0 MSTORE PUSH1 0x20 PUSH1 0x0 KECCAK256 SWAP1 JUMPDEST DUP2 SLOAD DUP2 MSTORE SWAP1 PUSH1 0x1 ADD SWAP1 PUSH1 0x20 ADD DUP1 DUP4 GT PUSH2 0x77E JUMPI DUP3 SWAP1 SUB PUSH1 0x1F AND DUP3 ADD SWAP2 JUMPDEST POP POP POP POP POP SWAP5 POP JUMPDEST DUP1 DUP1 PUSH1 0x1 ADD SWAP2 POP POP PUSH2 0x688 JUMP JUMPDEST POP POP POP POP SWAP2 SWAP1 POP JUMP JUMPDEST PUSH1 0x0 SLOAD DUP2 JUMP JUMPDEST DUP2 PUSH1 0x1 PUSH1 0x0 DUP3 DUP2 MSTORE PUSH1 0x20 ADD SWAP1 DUP2 MSTORE PUSH1 0x20 ADD PUSH1 0x0 KECCAK256 PUSH1 0x2 ADD SLOAD TIMESTAMP LT ISZERO DUP1 ISZERO PUSH2 0x7FC JUMPI POP PUSH1 0x1 PUSH1 0x0 DUP3 DUP2 MSTORE PUSH1 0x20 ADD SWAP1 DUP2 MSTORE PUSH1 0x20 ADD PUSH1 0x0 KECCAK256 PUSH1 0x3 ADD SLOAD TIMESTAMP GT ISZERO JUMPDEST PUSH2 0x83B JUMPI PUSH1 0x40 MLOAD PUSH32 0x8C379A000000000000000000000000000000000000000000000000000000000 DUP2 MSTORE PUSH1 0x4 ADD PUSH2 0x832 SWAP1 PUSH2 0x154F JUMP JUMPDEST PUSH1 0x40 MLOAD DUP1 SWAP2 SUB SWAP1 REVERT JUMPDEST DUP3 DUP1 PUSH1 0x1 PUSH1 0x0 DUP4 DUP2 MSTORE PUSH1 0x20 ADD SWAP1 DUP2 MSTORE PUSH1 0x20 ADD PUSH1 0x0 KECCAK256 PUSH1 0x0 ADD SLOAD EQ PUSH2 0x894 JUMPI PUSH1 0x40 MLOAD PUSH32 0x8C379A000000000000000000000000000000000000000000000000000000000 DUP2 MSTORE PUSH1 0x4 ADD PUSH2 0x88B SWAP1 PUSH2 0x11A4 JUMP JUMPDEST PUSH1 0x40 MLOAD DUP1 SWAP2 SUB SWAP1 REVERT JUMPDEST PUSH1 0x0 PUSH1 0x1 PUSH1 0x0 DUP7 DUP2 MSTORE PUSH1 0x20 ADD SWAP1 DUP2 MSTORE PUSH1 0x20 ADD PUSH1 0x0 KECCAK256 SWAP1 POP DUP1 PUSH1 0x5 ADD PUSH1 0x0 CALLER PUSH20 0xFFFFFFFFFFFFFFFFFFFFFFFFFFFFFFFFFFFFFFFF AND PUSH20 0xFFFFFFFFFFFFFFFFFFFFFFFFFFFFFFFFFFFFFFFF AND DUP2 MSTORE PUSH1 0x20 ADD SWAP1 DUP2 MSTORE PUSH1 0x20 ADD PUSH1 0x0 KECCAK256 PUSH1 0x0 SWAP1 SLOAD SWAP1 PUSH2 0x100 EXP SWAP1 DIV PUSH1 0xFF AND ISZERO PUSH2 0x93A JUMPI PUSH1 0x40 MLOAD PUSH32 0x8C379A000000000000000000000000000000000000000000000000000000000 DUP2 MSTORE PUSH1 0x4 ADD PUSH2 0x931 SWAP1 PUSH2 0x15BB JUMP JUMPDEST PUSH1 0x40 MLOAD DUP1 SWAP2 SUB SWAP1 REVERT JUMPDEST DUP1 PUSH1 0x4 ADD DUP1 SLOAD SWAP1 POP DUP5 LT PUSH2 0x983 JUMPI PUSH1 0x40 MLOAD PUSH32 0x8C379A000000000000000000000000000000000000000000000000000000000 DUP2 MSTORE PUSH1 0x4 ADD PUSH2 0x97A SWAP1 PUSH2 0x1627 JUMP JUMPDEST PUSH1 0x40 MLOAD DUP1 SWAP2 SUB SWAP1 REVERT JUMPDEST PUSH1 0x1 DUP2 PUSH1 0x5 ADD PUSH1 0x0 CALLER PUSH20 0xFFFFFFFFFFFFFFFFFFFFFFFFFFFFFFFFFFFFFFFF AND PUSH20 0xFFFFFFFFFFFFFFFFFFFFFFFFFFFFFFFFFFFFFFFF AND DUP2 MSTORE PUSH1 0x20 ADD SWAP1 DUP2 MSTORE PUSH1 0x20 ADD PUSH1 0x0 KECCAK256 PUSH1 0x0 PUSH2 0x100 EXP DUP2 SLOAD DUP2 PUSH1 0xFF MUL NOT AND SWAP1 DUP4 ISZERO ISZERO MUL OR SWAP1 SSTORE POP DUP1 PUSH1 0x4 ADD DUP5 DUP2 SLOAD DUP2 LT PUSH2 0x9F3 JUMPI PUSH2 0x9F2 PUSH2 0x14AE JUMP JUMPDEST JUMPDEST SWAP1 PUSH1 0x0 MSTORE PUSH1 0x20 PUSH1 0x0 KECCAK256 SWAP1 PUSH1 0x2 MUL ADD PUSH1 0x1 ADD PUSH1 0x0 DUP2 SLOAD DUP1 SWAP3 SWAP2 SWAP1 PUSH2 0xA15 SWAP1 PUSH2 0x1676 JUMP JUMPDEST SWAP2 SWAP1 POP SSTORE POP POP POP POP POP POP JUMP JUMPDEST DUP2 DUP2 GT PUSH2 0xA63 JUMPI PUSH1 0x40 MLOAD PUSH32 0x8C379A000000000000000000000000000000000000000000000000000000000 DUP2 MSTORE PUSH1 0x4 ADD PUSH2 0xA5A SWAP1 PUSH2 0x1730 JUMP JUMPDEST PUSH1 0x40 MLOAD DUP1 SWAP2 SUB SWAP1 REVERT JUMPDEST PUSH1 0x0 PUSH1 0x1 PUSH1 0x0 DUP1 SLOAD DUP2 MSTORE PUSH1 0x20 ADD SWAP1 DUP2 MSTORE PUSH1 0x20 ADD PUSH1 0x0 KECCAK256 SWAP1 POP PUSH1 0x0 SLOAD DUP2 PUSH1 0x0 ADD DUP2 SWAP1 SSTORE POP DUP4 DUP2 PUSH1 0x1 ADD SWAP1 DUP2 PUSH2 0xA97 SWAP2 SWAP1 PUSH2 0x1370 JUMP JUMPDEST POP DUP3 DUP2 PUSH1 0x2 ADD DUP2 SWAP1 SSTORE POP DUP2 DUP2 PUSH1 0x3 ADD DUP2 SWAP1 SSTORE POP PUSH1 0x1 DUP2 PUSH1 0x6 ADD PUSH1 0x0 PUSH2 0x100 EXP DUP2 SLOAD DUP2 PUSH1 0xFF MUL NOT AND SWAP1 DUP4 ISZERO ISZERO MUL OR SWAP1 SSTORE POP PUSH1 0x0 DUP1 DUP2 SLOAD DUP1 SWAP3 SWAP2 SWAP1 PUSH2 0xAD9 SWAP1 PUSH2 0x1676 JUMP JUMPDEST SWAP2 SWAP1 POP SSTORE POP POP POP POP POP JUMP JUMPDEST PUSH1 0x0 PUSH1 0x40 MLOAD SWAP1 POP SWAP1 JUMP JUMPDEST PUSH1 0x0 DUP1 REVERT JUMPDEST PUSH1 0x0 DUP1 REVERT JUMPDEST PUSH1 0x0 DUP2 SWAP1 POP SWAP2 SWAP1 POP JUMP JUMPDEST PUSH2 0xB0B DUP2 PUSH2 0xAF8 JUMP JUMPDEST DUP2 EQ PUSH2 0xB16 JUMPI PUSH1 0x0 DUP1 REVERT JUMPDEST POP JUMP JUMPDEST PUSH1 0x0 DUP2 CALLDATALOAD SWAP1 POP PUSH2 0xB28 DUP2 PUSH2 0xB02 JUMP JUMPDEST SWAP3 SWAP2 POP POP JUMP JUMPDEST PUSH1 0x0 PUSH1 0x20 DUP3 DUP5 SUB SLT ISZERO PUSH2 0xB44 JUMPI PUSH2 0xB43 PUSH2 0xAEE JUMP JUMPDEST JUMPDEST PUSH1 0x0 PUSH2 0xB52 DUP5 DUP3 DUP6 ADD PUSH2 0xB19 JUMP JUMPDEST SWAP2 POP POP SWAP3 SWAP2 POP POP JUMP JUMPDEST PUSH2 0xB64 DUP2 PUSH2 0xAF8 JUMP JUMPDEST DUP3 MSTORE POP POP JUMP JUMPDEST PUSH1 0x0 DUP2 MLOAD SWAP1 POP SWAP2 SWAP1 POP JUMP JUMPDEST PUSH1 0x0 DUP3 DUP3 MSTORE PUSH1 0x20 DUP3 ADD SWAP1 POP SWAP3 SWAP2 POP POP JUMP JUMPDEST PUSH1 0x0 JUMPDEST DUP4 DUP2 LT ISZERO PUSH2 0xBA4 JUMPI DUP1 DUP3 ADD MLOAD DUP2 DUP5 ADD MSTORE PUSH1 0x20 DUP2 ADD SWAP1 POP PUSH2 0xB89 JUMP JUMPDEST PUSH1 0x0 DUP5 DUP5 ADD MSTORE POP POP POP POP JUMP JUMPDEST PUSH1 0x0 PUSH1 0x1F NOT PUSH1 0x1F DUP4 ADD AND SWAP1 POP SWAP2 SWAP1 POP JUMP JUMPDEST PUSH1 0x0 PUSH2 0xBCC DUP3 PUSH2 0xB6A JUMP JUMPDEST PUSH2 0xBD6 DUP2 DUP6 PUSH2 0xB75 JUMP JUMPDEST SWAP4 POP PUSH2 0xBE6 DUP2 DUP6 PUSH1 0x20 DUP7 ADD PUSH2 0xB86 JUMP JUMPDEST PUSH2 0xBEF DUP2 PUSH2 0xBB0 JUMP JUMPDEST DUP5 ADD SWAP2 POP POP SWAP3 SWAP2 POP POP JUMP JUMPDEST PUSH1 0x0 DUP2 ISZERO ISZERO SWAP1 POP SWAP2 SWAP1 POP JUMP JUMPDEST PUSH2 0xC0F DUP2 PUSH2 0xBFA JUMP JUMPDEST DUP3 MSTORE POP POP JUMP JUMPDEST PUSH1 0x0 PUSH1 0xA0 DUP3 ADD SWAP1 POP PUSH2 0xC2A PUSH1 0x0 DUP4 ADD DUP9 PUSH2 0xB5B JUMP JUMPDEST DUP2 DUP2 SUB PUSH1 0x20 DUP4 ADD MSTORE PUSH2 0xC3C DUP2 DUP8 PUSH2 0xBC1 JUMP JUMPDEST SWAP1 POP PUSH2 0xC4B PUSH1 0x40 DUP4 ADD DUP7 PUSH2 0xB5B JUMP JUMPDEST PUSH2 0xC58 PUSH1 0x60 DUP4 ADD DUP6 PUSH2 0xB5B JUMP JUMPDEST PUSH2 0xC65 PUSH1 0x80 DUP4 ADD DUP5 PUSH2 0xC06 JUMP JUMPDEST SWAP7 SWAP6 POP POP POP POP POP POP JUMP JUMPDEST PUSH1 0x0 DUP1 REVERT JUMPDEST PUSH1 0x0 DUP1 REVERT JUMPDEST PUSH32 0x4E487B7100000000000000000000000000000000000000000000000000000000 PUSH1 0x0 MSTORE PUSH1 0x41 PUSH1 0x4 MSTORE PUSH1 0x24 PUSH1 0x0 REVERT JUMPDEST PUSH2 0xCB1 DUP3 PUSH2 0xBB0 JUMP JUMPDEST DUP2 ADD DUP2 DUP2 LT PUSH8 0xFFFFFFFFFFFFFFFF DUP3 GT OR ISZERO PUSH2 0xCD0 JUMPI PUSH2 0xCCF PUSH2 0xC79 JUMP JUMPDEST JUMPDEST DUP1 PUSH1 0x40 MSTORE POP POP POP JUMP JUMPDEST PUSH1 0x0 PUSH2 0xCE3 PUSH2 0xAE4 JUMP JUMPDEST SWAP1 POP PUSH2 0xCEF DUP3 DUP3 PUSH2 0xCA8 JUMP JUMPDEST SWAP2 SWAP1 POP JUMP JUMPDEST PUSH1 0x0 PUSH8 0xFFFFFFFFFFFFFFFF DUP3 GT ISZERO PUSH2 0xD0F JUMPI PUSH2 0xD0E PUSH2 0xC79 JUMP JUMPDEST JUMPDEST PUSH2 0xD18 DUP3 PUSH2 0xBB0 JUMP JUMPDEST SWAP1 POP PUSH1 0x20 DUP2 ADD SWAP1 POP SWAP2 SWAP1 POP JUMP JUMPDEST DUP3 DUP2 DUP4 CALLDATACOPY PUSH1 0x0 DUP4 DUP4 ADD MSTORE POP POP POP JUMP JUMPDEST PUSH1 0x0 PUSH2 0xD47 PUSH2 0xD42 DUP5 PUSH2 0xCF4 JUMP JUMPDEST PUSH2 0xCD9 JUMP JUMPDEST SWAP1 POP DUP3 DUP2 MSTORE PUSH1 0x20 DUP2 ADD DUP5 DUP5 DUP5 ADD GT ISZERO PUSH2 0xD63 JUMPI PUSH2 0xD62 PUSH2 0xC74 JUMP JUMPDEST JUMPDEST PUSH2 0xD6E DUP5 DUP3 DUP6 PUSH2 0xD25 JUMP JUMPDEST POP SWAP4 SWAP3 POP POP POP JUMP JUMPDEST PUSH1 0x0 DUP3 PUSH1 0x1F DUP4 ADD SLT PUSH2 0xD8B JUMPI PUSH2 0xD8A PUSH2 0xC6F JUMP JUMPDEST JUMPDEST DUP2 CALLDATALOAD PUSH2 0xD9B DUP5 DUP3 PUSH1 0x20 DUP7 ADD PUSH2 0xD34 JUMP JUMPDEST SWAP2 POP POP SWAP3 SWAP2 POP POP JUMP JUMPDEST PUSH1 0x0 DUP1 PUSH1 0x40 DUP4 DUP6 SUB SLT ISZERO PUSH2 0xDBB JUMPI PUSH2 0xDBA PUSH2 0xAEE JUMP JUMPDEST JUMPDEST PUSH1 0x0 PUSH2 0xDC9 DUP6 DUP3 DUP7 ADD PUSH2 0xB19 JUMP JUMPDEST SWAP3 POP POP PUSH1 0x20 DUP4 ADD CALLDATALOAD PUSH8 0xFFFFFFFFFFFFFFFF DUP2 GT ISZERO PUSH2 0xDEA JUMPI PUSH2 0xDE9 PUSH2 0xAF3 JUMP JUMPDEST JUMPDEST PUSH2 0xDF6 DUP6 DUP3 DUP7 ADD PUSH2 0xD76 JUMP JUMPDEST SWAP2 POP POP SWAP3 POP SWAP3 SWAP1 POP JUMP JUMPDEST PUSH1 0x0 DUP2 MLOAD SWAP1 POP SWAP2 SWAP1 POP JUMP JUMPDEST PUSH1 0x0 DUP3 DUP3 MSTORE PUSH1 0x20 DUP3 ADD SWAP1 POP SWAP3 SWAP2 POP POP JUMP JUMPDEST PUSH1 0x0 DUP2 SWAP1 POP PUSH1 0x20 DUP3 ADD SWAP1 POP SWAP2 SWAP1 POP JUMP JUMPDEST PUSH1 0x0 DUP3 DUP3 MSTORE PUSH1 0x20 DUP3 ADD SWAP1 POP SWAP3 SWAP2 POP POP JUMP JUMPDEST PUSH1 0x0 PUSH2 0xE48 DUP3 PUSH2 0xB6A JUMP JUMPDEST PUSH2 0xE52 DUP2 DUP6 PUSH2 0xE2C JUMP JUMPDEST SWAP4 POP PUSH2 0xE62 DUP2 DUP6 PUSH1 0x20 DUP7 ADD PUSH2 0xB86 JUMP JUMPDEST PUSH2 0xE6B DUP2 PUSH2 0xBB0 JUMP JUMPDEST DUP5 ADD SWAP2 POP POP SWAP3 SWAP2 POP POP JUMP JUMPDEST PUSH2 0xE7F DUP2 PUSH2 0xAF8 JUMP JUMPDEST DUP3 MSTORE POP POP JUMP JUMPDEST PUSH1 0x0 PUSH1 0x40 DUP4 ADD PUSH1 0x0 DUP4 ADD MLOAD DUP5 DUP3 SUB PUSH1 0x0 DUP7 ADD MSTORE PUSH2 0xEA2 DUP3 DUP3 PUSH2 0xE3D JUMP JUMPDEST SWAP2 POP POP PUSH1 0x20 DUP4 ADD MLOAD PUSH2 0xEB7 PUSH1 0x20 DUP7 ADD DUP3 PUSH2 0xE76 JUMP JUMPDEST POP DUP1 SWAP2 POP POP SWAP3 SWAP2 POP POP JUMP JUMPDEST PUSH1 0x0 PUSH2 0xECE DUP4 DUP4 PUSH2 0xE85 JUMP JUMPDEST SWAP1 POP SWAP3 SWAP2 POP POP JUMP JUMPDEST PUSH1 0x0 PUSH1 0x20 DUP3 ADD SWAP1 POP SWAP2 SWAP1 POP JUMP JUMPDEST PUSH1 0x0 PUSH2 0xEEE DUP3 PUSH2 0xE00 JUMP JUMPDEST PUSH2 0xEF8 DUP2 DUP6 PUSH2 0xE0B JUMP JUMPDEST SWAP4 POP DUP4 PUSH1 0x20 DUP3 MUL DUP6 ADD PUSH2 0xF0A DUP6 PUSH2 0xE1C JUMP JUMPDEST DUP1 PUSH1 0x0 JUMPDEST DUP6 DUP2 LT ISZERO PUSH2 0xF46 JUMPI DUP5 DUP5 SUB DUP10 MSTORE DUP2 MLOAD PUSH2 0xF27 DUP6 DUP3 PUSH2 0xEC2 JUMP JUMPDEST SWAP5 POP PUSH2 0xF32 DUP4 PUSH2 0xED6 JUMP JUMPDEST SWAP3 POP PUSH1 0x20 DUP11 ADD SWAP10 POP POP PUSH1 0x1 DUP2 ADD SWAP1 POP PUSH2 0xF0E JUMP JUMPDEST POP DUP3 SWAP8 POP DUP8 SWAP6 POP POP POP POP POP POP SWAP3 SWAP2 POP POP JUMP JUMPDEST PUSH1 0x0 PUSH1 0x20 DUP3 ADD SWAP1 POP DUP2 DUP2 SUB PUSH1 0x0 DUP4 ADD MSTORE PUSH2 0xF72 DUP2 DUP5 PUSH2 0xEE3 JUMP JUMPDEST SWAP1 POP SWAP3 SWAP2 POP POP JUMP JUMPDEST PUSH1 0x0 PUSH1 0x20 DUP3 ADD SWAP1 POP DUP2 DUP2 SUB PUSH1 0x0 DUP4 ADD MSTORE PUSH2 0xF94 DUP2 DUP5 PUSH2 0xBC1 JUMP JUMPDEST SWAP1 POP SWAP3 SWAP2 POP POP JUMP JUMPDEST PUSH1 0x0 PUSH1 0x20 DUP3 ADD SWAP1 POP PUSH2 0xFB1 PUSH1 0x0 DUP4 ADD DUP5 PUSH2 0xB5B JUMP JUMPDEST SWAP3 SWAP2 POP POP JUMP JUMPDEST PUSH1 0x0 DUP1 PUSH1 0x40 DUP4 DUP6 SUB SLT ISZERO PUSH2 0xFCE JUMPI PUSH2 0xFCD PUSH2 0xAEE JUMP JUMPDEST JUMPDEST PUSH1 0x0 PUSH2 0xFDC DUP6 DUP3 DUP7 ADD PUSH2 0xB19 JUMP JUMPDEST SWAP3 POP POP PUSH1 0x20 PUSH2 0xFED DUP6 DUP3 DUP7 ADD PUSH2 0xB19 JUMP JUMPDEST SWAP2 POP POP SWAP3 POP SWAP3 SWAP1 POP JUMP JUMPDEST PUSH1 0x0 DUP1 PUSH1 0x0 PUSH1 0x60 DUP5 DUP7 SUB SLT ISZERO PUSH2 0x1010 JUMPI PUSH2 0x100F PUSH2 0xAEE JUMP JUMPDEST JUMPDEST PUSH1 0x0 DUP5 ADD CALLDATALOAD PUSH8 0xFFFFFFFFFFFFFFFF DUP2 GT ISZERO PUSH2 0x102E JUMPI PUSH2 0x102D PUSH2 0xAF3 JUMP JUMPDEST JUMPDEST PUSH2 0x103A DUP7 DUP3 DUP8 ADD PUSH2 0xD76 JUMP JUMPDEST SWAP4 POP POP PUSH1 0x20 PUSH2 0x104B DUP7 DUP3 DUP8 ADD PUSH2 0xB19 JUMP JUMPDEST SWAP3 POP POP PUSH1 0x40 PUSH2 0x105C DUP7 DUP3 DUP8 ADD PUSH2 0xB19 JUMP JUMPDEST SWAP2 POP POP SWAP3 POP SWAP3 POP SWAP3 JUMP JUMPDEST PUSH32 0x4E487B7100000000000000000000000000000000000000000000000000000000 PUSH1 0x0 MSTORE PUSH1 0x22 PUSH1 0x4 MSTORE PUSH1 0x24 PUSH1 0x0 REVERT JUMPDEST PUSH1 0x0 PUSH1 0x2 DUP3 DIV SWAP1 POP PUSH1 0x1 DUP3 AND DUP1 PUSH2 0x10AD JUMPI PUSH1 0x7F DUP3 AND SWAP2 POP JUMPDEST PUSH1 0x20 DUP3 LT DUP2 SUB PUSH2 0x10C0 JUMPI PUSH2 0x10BF PUSH2 0x1066 JUMP JUMPDEST JUMPDEST POP SWAP2 SWAP1 POP JUMP JUMPDEST PUSH32 0x416374696F6E207265737472696374656420746F206E6F6E2D766F74696E6720 PUSH1 0x0 DUP3 ADD MSTORE PUSH32 0x706572696F647320666F7220746869732073657373696F6E0000000000000000 PUSH1 0x20 DUP3 ADD MSTORE POP JUMP JUMPDEST PUSH1 0x0 PUSH2 0x1122 PUSH1 0x38 DUP4 PUSH2 0xB75 JUMP JUMPDEST SWAP2 POP PUSH2 0x112D DUP3 PUSH2 0x10C6 JUMP JUMPDEST PUSH1 0x40 DUP3 ADD SWAP1 POP SWAP2 SWAP1 POP JUMP JUMPDEST PUSH1 0x0 PUSH1 0x20 DUP3 ADD SWAP1 POP DUP2 DUP2 SUB PUSH1 0x0 DUP4 ADD MSTORE PUSH2 0x1151 DUP2 PUSH2 0x1115 JUMP JUMPDEST SWAP1 POP SWAP2 SWAP1 POP JUMP JUMPDEST PUSH32 0x53657373696F6E20646F6573206E6F7420657869737400000000000000000000 PUSH1 0x0 DUP3 ADD MSTORE POP JUMP JUMPDEST PUSH1 0x0 PUSH2 0x118E PUSH1 0x16 DUP4 PUSH2 0xB75 JUMP JUMPDEST SWAP2 POP PUSH2 0x1199 DUP3 PUSH2 0x1158 JUMP JUMPDEST PUSH1 0x20 DUP3 ADD SWAP1 POP SWAP2 SWAP1 POP JUMP JUMPDEST PUSH1 0x0 PUSH1 0x20 DUP3 ADD SWAP1 POP DUP2 DUP2 SUB PUSH1 0x0 DUP4 ADD MSTORE PUSH2 0x11BD DUP2 PUSH2 0x1181 JUMP JUMPDEST SWAP1 POP SWAP2 SWAP1 POP JUMP JUMPDEST PUSH1 0x0 DUP2 SWAP1 POP DUP2 PUSH1 0x0 MSTORE PUSH1 0x20 PUSH1 0x0 KECCAK256 SWAP1 POP SWAP2 SWAP1 POP JUMP JUMPDEST PUSH1 0x0 PUSH1 0x20 PUSH1 0x1F DUP4 ADD DIV SWAP1 POP SWAP2 SWAP1 POP JUMP JUMPDEST PUSH1 0x0 DUP3 DUP3 SHL SWAP1 POP SWAP3 SWAP2 POP POP JUMP JUMPDEST PUSH1 0x0 PUSH1 0x8 DUP4 MUL PUSH2 0x1226 PUSH32 0xFFFFFFFFFFFFFFFFFFFFFFFFFFFFFFFFFFFFFFFFFFFFFFFFFFFFFFFFFFFFFFFF DUP3 PUSH2 0x11E9 JUMP JUMPDEST PUSH2 0x1230 DUP7 DUP4 PUSH2 0x11E9 JUMP JUMPDEST SWAP6 POP DUP1 NOT DUP5 AND SWAP4 POP DUP1 DUP7 AND DUP5 OR SWAP3 POP POP POP SWAP4 SWAP3 POP POP POP JUMP JUMPDEST PUSH1 0x0 DUP2 SWAP1 POP SWAP2 SWAP1 POP JUMP JUMPDEST PUSH1 0x0 PUSH2 0x126D PUSH2 0x1268 PUSH2 0x1263 DUP5 PUSH2 0xAF8 JUMP JUMPDEST PUSH2 0x1248 JUMP JUMPDEST PUSH2 0xAF8 JUMP JUMPDEST SWAP1 POP SWAP2 SWAP1 POP JUMP JUMPDEST PUSH1 0x0 DUP2 SWAP1 POP SWAP2 SWAP1 POP JUMP JUMPDEST PUSH2 0x1287 DUP4 PUSH2 0x1252 JUMP JUMPDEST PUSH2 0x129B PUSH2 0x1293 DUP3 PUSH2 0x1274 JUMP JUMPDEST DUP5 DUP5 SLOAD PUSH2 0x11F6 JUMP JUMPDEST DUP3 SSTORE POP POP POP POP JUMP JUMPDEST PUSH1 0x0 SWAP1 JUMP JUMPDEST PUSH2 0x12B0 PUSH2 0x12A3 JUMP JUMPDEST PUSH2 0x12BB DUP2 DUP5 DUP5 PUSH2 0x127E JUMP JUMPDEST POP POP POP JUMP JUMPDEST JUMPDEST DUP2 DUP2 LT ISZERO PUSH2 0x12DF JUMPI PUSH2 0x12D4 PUSH1 0x0 DUP3 PUSH2 0x12A8 JUMP JUMPDEST PUSH1 0x1 DUP2 ADD SWAP1 POP PUSH2 0x12C1 JUMP JUMPDEST POP POP JUMP JUMPDEST PUSH1 0x1F DUP3 GT ISZERO PUSH2 0x1324 JUMPI PUSH2 0x12F5 DUP2 PUSH2 0x11C4 JUMP JUMPDEST PUSH2 0x12FE DUP5 PUSH2 0x11D9 JUMP JUMPDEST DUP2 ADD PUSH1 0x20 DUP6 LT ISZERO PUSH2 0x130D JUMPI DUP2 SWAP1 POP JUMPDEST PUSH2 0x1321 PUSH2 0x1319 DUP6 PUSH2 0x11D9 JUMP JUMPDEST DUP4 ADD DUP3 PUSH2 0x12C0 JUMP JUMPDEST POP POP JUMPDEST POP POP POP JUMP JUMPDEST PUSH1 0x0 DUP3 DUP3 SHR SWAP1 POP SWAP3 SWAP2 POP POP JUMP JUMPDEST PUSH1 0x0 PUSH2 0x1347 PUSH1 0x0 NOT DUP5 PUSH1 0x8 MUL PUSH2 0x1329 JUMP JUMPDEST NOT DUP1 DUP4 AND SWAP2 POP POP SWAP3 SWAP2 POP POP JUMP JUMPDEST PUSH1 0x0 PUSH2 0x1360 DUP4 DUP4 PUSH2 0x1336 JUMP JUMPDEST SWAP2 POP DUP3 PUSH1 0x2 MUL DUP3 OR SWAP1 POP SWAP3 SWAP2 POP POP JUMP JUMPDEST PUSH2 0x1379 DUP3 PUSH2 0xB6A JUMP JUMPDEST PUSH8 0xFFFFFFFFFFFFFFFF DUP2 GT ISZERO PUSH2 0x1392 JUMPI PUSH2 0x1391 PUSH2 0xC79 JUMP JUMPDEST JUMPDEST PUSH2 0x139C DUP3 SLOAD PUSH2 0x1095 JUMP JUMPDEST PUSH2 0x13A7 DUP3 DUP3 DUP6 PUSH2 0x12E3 JUMP JUMPDEST PUSH1 0x0 PUSH1 0x20 SWAP1 POP PUSH1 0x1F DUP4 GT PUSH1 0x1 DUP2 EQ PUSH2 0x13DA JUMPI PUSH1 0x0 DUP5 ISZERO PUSH2 0x13C8 JUMPI DUP3 DUP8 ADD MLOAD SWAP1 POP JUMPDEST PUSH2 0x13D2 DUP6 DUP3 PUSH2 0x1354 JUMP JUMPDEST DUP7 SSTORE POP PUSH2 0x143A JUMP JUMPDEST PUSH1 0x1F NOT DUP5 AND PUSH2 0x13E8 DUP7 PUSH2 0x11C4 JUMP JUMPDEST PUSH1 0x0 JUMPDEST DUP3 DUP2 LT ISZERO PUSH2 0x1410 JUMPI DUP5 DUP10 ADD MLOAD DUP3 SSTORE PUSH1 0x1 DUP3 ADD SWAP2 POP PUSH1 0x20 DUP6 ADD SWAP5 POP PUSH1 0x20 DUP2 ADD SWAP1 POP PUSH2 0x13EB JUMP JUMPDEST DUP7 DUP4 LT ISZERO PUSH2 0x142D JUMPI DUP5 DUP10 ADD MLOAD PUSH2 0x1429 PUSH1 0x1F DUP10 AND DUP3 PUSH2 0x1336 JUMP JUMPDEST DUP4 SSTORE POP JUMPDEST PUSH1 0x1 PUSH1 0x2 DUP9 MUL ADD DUP9 SSTORE POP POP POP JUMPDEST POP POP POP POP POP POP JUMP JUMPDEST PUSH32 0x43616E6E6F742061726368697665206163746976652073657373696F6E000000 PUSH1 0x0 DUP3 ADD MSTORE POP JUMP JUMPDEST PUSH1 0x0 PUSH2 0x1478 PUSH1 0x1D DUP4 PUSH2 0xB75 JUMP JUMPDEST SWAP2 POP PUSH2 0x1483 DUP3 PUSH2 0x1442 JUMP JUMPDEST PUSH1 0x20 DUP3 ADD SWAP1 POP SWAP2 SWAP1 POP JUMP JUMPDEST PUSH1 0x0 PUSH1 0x20 DUP3 ADD SWAP1 POP DUP2 DUP2 SUB PUSH1 0x0 DUP4 ADD MSTORE PUSH2 0x14A7 DUP2 PUSH2 0x146B JUMP JUMPDEST SWAP1 POP SWAP2 SWAP1 POP JUMP JUMPDEST PUSH32 0x4E487B7100000000000000000000000000000000000000000000000000000000 PUSH1 0x0 MSTORE PUSH1 0x32 PUSH1 0x4 MSTORE PUSH1 0x24 PUSH1 0x0 REVERT JUMPDEST PUSH32 0x566F74696E67206973206E6F742061637469766520666F722074686973207365 PUSH1 0x0 DUP3 ADD MSTORE PUSH32 0x7373696F6E000000000000000000000000000000000000000000000000000000 PUSH1 0x20 DUP3 ADD MSTORE POP JUMP JUMPDEST PUSH1 0x0 PUSH2 0x1539 PUSH1 0x25 DUP4 PUSH2 0xB75 JUMP JUMPDEST SWAP2 POP PUSH2 0x1544 DUP3 PUSH2 0x14DD JUMP JUMPDEST PUSH1 0x40 DUP3 ADD SWAP1 POP SWAP2 SWAP1 POP JUMP JUMPDEST PUSH1 0x0 PUSH1 0x20 DUP3 ADD SWAP1 POP DUP2 DUP2 SUB PUSH1 0x0 DUP4 ADD MSTORE PUSH2 0x1568 DUP2 PUSH2 0x152C JUMP JUMPDEST SWAP1 POP SWAP2 SWAP1 POP JUMP JUMPDEST PUSH32 0x596F75206861766520616C726561647920766F74656400000000000000000000 PUSH1 0x0 DUP3 ADD MSTORE POP JUMP JUMPDEST PUSH1 0x0 PUSH2 0x15A5 PUSH1 0x16 DUP4 PUSH2 0xB75 JUMP JUMPDEST SWAP2 POP PUSH2 0x15B0 DUP3 PUSH2 0x156F JUMP JUMPDEST PUSH1 0x20 DUP3 ADD SWAP1 POP SWAP2 SWAP1 POP JUMP JUMPDEST PUSH1 0x0 PUSH1 0x20 DUP3 ADD SWAP1 POP DUP2 DUP2 SUB PUSH1 0x0 DUP4 ADD MSTORE PUSH2 0x15D4 DUP2 PUSH2 0x1598 JUMP JUMPDEST SWAP1 POP SWAP2 SWAP1 POP JUMP JUMPDEST PUSH32 0x496E76616C69642063616E646964617465204944000000000000000000000000 PUSH1 0x0 DUP3 ADD MSTORE POP JUMP JUMPDEST PUSH1 0x0 PUSH2 0x1611 PUSH1 0x14 DUP4 PUSH2 0xB75 JUMP JUMPDEST SWAP2 POP PUSH2 0x161C DUP3 PUSH2 0x15DB JUMP JUMPDEST PUSH1 0x20 DUP3 ADD SWAP1 POP SWAP2 SWAP1 POP JUMP JUMPDEST PUSH1 0x0 PUSH1 0x20 DUP3 ADD SWAP1 POP DUP2 DUP2 SUB PUSH1 0x0 DUP4 ADD MSTORE PUSH2 0x1640 DUP2 PUSH2 0x1604 JUMP JUMPDEST SWAP1 POP SWAP2 SWAP1 POP JUMP JUMPDEST PUSH32 0x4E487B7100000000000000000000000000000000000000000000000000000000 PUSH1 0x0 MSTORE PUSH1 0x11 PUSH1 0x4 MSTORE PUSH1 0x24 PUSH1 0x0 REVERT JUMPDEST PUSH1 0x0 PUSH2 0x1681 DUP3 PUSH2 0xAF8 JUMP JUMPDEST SWAP2 POP PUSH32 0xFFFFFFFFFFFFFFFFFFFFFFFFFFFFFFFFFFFFFFFFFFFFFFFFFFFFFFFFFFFFFFFF DUP3 SUB PUSH2 0x16B3 JUMPI PUSH2 0x16B2 PUSH2 0x1647 JUMP JUMPDEST JUMPDEST PUSH1 0x1 DUP3 ADD SWAP1 POP SWAP2 SWAP1 POP JUMP JUMPDEST PUSH32 0x456E642074696D65206D7573742062652061667465722073746172742074696D PUSH1 0x0 DUP3 ADD MSTORE PUSH32 0x6500000000000000000000000000000000000000000000000000000000000000 PUSH1 0x20 DUP3 ADD MSTORE POP JUMP JUMPDEST PUSH1 0x0 PUSH2 0x171A PUSH1 0x21 DUP4 PUSH2 0xB75 JUMP JUMPDEST SWAP2 POP PUSH2 0x1725 DUP3 PUSH2 0x16BE JUMP JUMPDEST PUSH1 0x40 DUP3 ADD SWAP1 POP SWAP2 SWAP1 POP JUMP JUMPDEST PUSH1 0x0 PUSH1 0x20 DUP3 ADD SWAP1 POP DUP2 DUP2 SUB PUSH1 0x0 DUP4 ADD MSTORE PUSH2 0x1749 DUP2 PUSH2 0x170D JUMP JUMPDEST SWAP1 POP SWAP2 SWAP1 POP JUMP INVALID LOG2 PUSH5 0x6970667358 0x22 SLT KECCAK256 0xCE 0xDD 0xBA BALANCE PUSH26 0x40B58C04AD9772F6CAE8804EBB86598EAC4ADCFF1B9FC9816E18 PUSH30 0x64736F6C634300081B003300000000000000000000000000000000000000 "
        },
        "methodIdentifiers": {
          "addCandidate(uint256,string)": "1750a3d0",
          "archiveSession(uint256)": "3544bfea",
          "createVotingSession(string,uint256,uint256)": "c08503c6",
          "getCandidates(uint256)": "3e39a7a5",
          "getWinner(uint256)": "4129b2c9",
          "sessionCount()": "73cd8336",
          "vote(uint256,uint256)": "b384abef",
          "votingSessions(uint256)": "1186eb7c"
        }
      }
    }
  }
}