{
  "_format": "hh-sol-artifact-1",
  "contractName": "VotingFinal",
  "sourceName": "contracts/VotingFinal.sol",
  "abi": [
    {
      "inputs": [
        {
          "internalType": "uint256",
          "name": "sessionId",
          "type": "uint256"
        },
        {
          "internalType": "string",
          "name": "name",
          "type": "string"
        }
      ],
      "name": "addCandidate",
      "outputs": [],
      "stateMutability": "nonpayable",
      "type": "function"
    },
    {
      "inputs": [
        {
          "internalType": "string",
          "name": "title",
          "type": "string"
        },
        {
          "internalType": "uint256",
          "name": "startTime",
          "type": "uint256"
        },
        {
          "internalType": "uint256",
          "name": "endTime",
          "type": "uint256"
        }
      ],
      "name": "createVotingSession",
      "outputs": [],
      "stateMutability": "nonpayable",
      "type": "function"
    },
    {
      "inputs": [
        {
          "internalType": "uint256",
          "name": "sessionId",
          "type": "uint256"
        }
      ],
      "name": "getWinner",
      "outputs": [
        {
          "internalType": "string",
          "name": "winnerName",
          "type": "string"
        },
        {
          "internalType": "bool",
          "name": "isTie",
          "type": "bool"
        }
      ],
      "stateMutability": "view",
      "type": "function"
    },
    {
      "inputs": [],
      "name": "sessionCount",
      "outputs": [
        {
          "internalType": "uint256",
          "name": "",
          "type": "uint256"
        }
      ],
      "stateMutability": "view",
      "type": "function"
    },
    {
      "inputs": [
        {
          "internalType": "uint256",
          "name": "sessionId",
          "type": "uint256"
        },
        {
          "internalType": "uint256",
          "name": "candidateId",
          "type": "uint256"
        }
      ],
      "name": "vote",
      "outputs": [],
      "stateMutability": "nonpayable",
      "type": "function"
    },
    {
      "inputs": [
        {
          "internalType": "uint256",
          "name": "",
          "type": "uint256"
        }
      ],
      "name": "votingSessions",
      "outputs": [
        {
          "internalType": "uint256",
          "name": "id",
          "type": "uint256"
        },
        {
          "internalType": "string",
          "name": "title",
          "type": "string"
        },
        {
          "internalType": "uint256",
          "name": "startTime",
          "type": "uint256"
        },
        {
          "internalType": "uint256",
          "name": "endTime",
          "type": "uint256"
        },
        {
          "internalType": "bool",
          "name": "isActive",
          "type": "bool"
        }
      ],
      "stateMutability": "view",
      "type": "function"
    }
  ],
  "bytecode": "0x6080604052348015600f57600080fd5b506112698061001f6000396000f3fe608060405234801561001057600080fd5b50600436106100625760003560e01c80631186eb7c146100675780631750a3d01461009b5780634129b2c9146100b757806373cd8336146100e8578063b384abef14610106578063c08503c614610122575b600080fd5b610081600480360381019061007c919061087b565b61013e565b604051610092959493929190610962565b60405180910390f35b6100b560048036038101906100b09190610af1565b610209565b005b6100d160048036038101906100cc919061087b565b6102e4565b6040516100df929190610b4d565b60405180910390f35b6100f0610506565b6040516100fd9190610b7d565b60405180910390f35b610120600480360381019061011b9190610b98565b61050c565b005b61013c60048036038101906101379190610bd8565b61076e565b005b600160205280600052604060002060009150905080600001549080600101805461016790610c76565b80601f016020809104026020016040519081016040528092919081815260200182805461019390610c76565b80156101e05780601f106101b5576101008083540402835291602001916101e0565b820191906000526020600020905b8154815290600101906020018083116101c357829003601f168201915b5050505050908060020154908060030154908060060160009054906101000a900460ff16905085565b8180600160008381526020019081526020016000206000015414610262576040517f08c379a000000000000000000000000000000000000000000000000000000000815260040161025990610cf3565b60405180910390fd5b60006001600085815260200190815260200160002090508060040160405180604001604052808581526020016000815250908060018154018082558091505060019003906000526020600020906002020160009091909190915060008201518160000190816102d19190610ebf565b5060208201518160010155505050505050565b606060008280600160008381526020019081526020016000206000015414610341576040517f08c379a000000000000000000000000000000000000000000000000000000000815260040161033890610cf3565b60405180910390fd5b600060016000868152602001908152602001600020905060008060005b83600401805490508110156104cc578284600401828154811061038457610383610f91565b5b9060005260206000209060020201600101541115610481578360040181815481106103b2576103b1610f91565b5b90600052602060002090600202016001015492508360040181815481106103dc576103db610f91565b5b906000526020600020906002020160000180546103f890610c76565b80601f016020809104026020016040519081016040528092919081815260200182805461042490610c76565b80156104715780601f1061044657610100808354040283529160200191610471565b820191906000526020600020905b81548152906001019060200180831161045457829003601f168201915b50505050509650600191506104bf565b8284600401828154811061049857610497610f91565b5b906000526020600020906002020160010154036104be5781806104ba90610fef565b9250505b5b808060010191505061035e565b5060018111156104f5576001604051806020016040528060008152509095509550505050610500565b856000955095505050505b50915091565b60005481565b8160016000828152602001908152602001600020600201544210158015610549575060016000828152602001908152602001600020600301544211155b610588576040517f08c379a000000000000000000000000000000000000000000000000000000000815260040161057f906110a9565b60405180910390fd5b82806001600083815260200190815260200160002060000154146105e1576040517f08c379a00000000000000000000000000000000000000000000000000000000081526004016105d890610cf3565b60405180910390fd5b60006001600086815260200190815260200160002090508060050160003373ffffffffffffffffffffffffffffffffffffffff1673ffffffffffffffffffffffffffffffffffffffff16815260200190815260200160002060009054906101000a900460ff1615610687576040517f08c379a000000000000000000000000000000000000000000000000000000000815260040161067e90611115565b60405180910390fd5b806004018054905084106106d0576040517f08c379a00000000000000000000000000000000000000000000000000000000081526004016106c790611181565b60405180910390fd5b60018160050160003373ffffffffffffffffffffffffffffffffffffffff1673ffffffffffffffffffffffffffffffffffffffff16815260200190815260200160002060006101000a81548160ff0219169083151502179055508060040184815481106107405761073f610f91565b5b9060005260206000209060020201600101600081548092919061076290610fef565b91905055505050505050565b8181116107b0576040517f08c379a00000000000000000000000000000000000000000000000000000000081526004016107a790611213565b60405180910390fd5b6000600160008054815260200190815260200160002090506000548160000181905550838160010190816107e49190610ebf565b5082816002018190555081816003018190555060018160060160006101000a81548160ff02191690831515021790555060008081548092919061082690610fef565b919050555050505050565b6000604051905090565b600080fd5b600080fd5b6000819050919050565b61085881610845565b811461086357600080fd5b50565b6000813590506108758161084f565b92915050565b6000602082840312156108915761089061083b565b5b600061089f84828501610866565b91505092915050565b6108b181610845565b82525050565b600081519050919050565b600082825260208201905092915050565b60005b838110156108f15780820151818401526020810190506108d6565b60008484015250505050565b6000601f19601f8301169050919050565b6000610919826108b7565b61092381856108c2565b93506109338185602086016108d3565b61093c816108fd565b840191505092915050565b60008115159050919050565b61095c81610947565b82525050565b600060a08201905061097760008301886108a8565b8181036020830152610989818761090e565b905061099860408301866108a8565b6109a560608301856108a8565b6109b26080830184610953565b9695505050505050565b600080fd5b600080fd5b7f4e487b7100000000000000000000000000000000000000000000000000000000600052604160045260246000fd5b6109fe826108fd565b810181811067ffffffffffffffff82111715610a1d57610a1c6109c6565b5b80604052505050565b6000610a30610831565b9050610a3c82826109f5565b919050565b600067ffffffffffffffff821115610a5c57610a5b6109c6565b5b610a65826108fd565b9050602081019050919050565b82818337600083830152505050565b6000610a94610a8f84610a41565b610a26565b905082815260208101848484011115610ab057610aaf6109c1565b5b610abb848285610a72565b509392505050565b600082601f830112610ad857610ad76109bc565b5b8135610ae8848260208601610a81565b91505092915050565b60008060408385031215610b0857610b0761083b565b5b6000610b1685828601610866565b925050602083013567ffffffffffffffff811115610b3757610b36610840565b5b610b4385828601610ac3565b9150509250929050565b60006040820190508181036000830152610b67818561090e565b9050610b766020830184610953565b9392505050565b6000602082019050610b9260008301846108a8565b92915050565b60008060408385031215610baf57610bae61083b565b5b6000610bbd85828601610866565b9250506020610bce85828601610866565b9150509250929050565b600080600060608486031215610bf157610bf061083b565b5b600084013567ffffffffffffffff811115610c0f57610c0e610840565b5b610c1b86828701610ac3565b9350506020610c2c86828701610866565b9250506040610c3d86828701610866565b9150509250925092565b7f4e487b7100000000000000000000000000000000000000000000000000000000600052602260045260246000fd5b60006002820490506001821680610c8e57607f821691505b602082108103610ca157610ca0610c47565b5b50919050565b7f53657373696f6e20646f6573206e6f7420657869737400000000000000000000600082015250565b6000610cdd6016836108c2565b9150610ce882610ca7565b602082019050919050565b60006020820190508181036000830152610d0c81610cd0565b9050919050565b60008190508160005260206000209050919050565b60006020601f8301049050919050565b600082821b905092915050565b600060088302610d757fffffffffffffffffffffffffffffffffffffffffffffffffffffffffffffffff82610d38565b610d7f8683610d38565b95508019841693508086168417925050509392505050565b6000819050919050565b6000610dbc610db7610db284610845565b610d97565b610845565b9050919050565b6000819050919050565b610dd683610da1565b610dea610de282610dc3565b848454610d45565b825550505050565b600090565b610dff610df2565b610e0a818484610dcd565b505050565b5b81811015610e2e57610e23600082610df7565b600181019050610e10565b5050565b601f821115610e7357610e4481610d13565b610e4d84610d28565b81016020851015610e5c578190505b610e70610e6885610d28565b830182610e0f565b50505b505050565b600082821c905092915050565b6000610e9660001984600802610e78565b1980831691505092915050565b6000610eaf8383610e85565b9150826002028217905092915050565b610ec8826108b7565b67ffffffffffffffff811115610ee157610ee06109c6565b5b610eeb8254610c76565b610ef6828285610e32565b600060209050601f831160018114610f295760008415610f17578287015190505b610f218582610ea3565b865550610f89565b601f198416610f3786610d13565b60005b82811015610f5f57848901518255600182019150602085019450602081019050610f3a565b86831015610f7c5784890151610f78601f891682610e85565b8355505b6001600288020188555050505b505050505050565b7f4e487b7100000000000000000000000000000000000000000000000000000000600052603260045260246000fd5b7f4e487b7100000000000000000000000000000000000000000000000000000000600052601160045260246000fd5b6000610ffa82610845565b91507fffffffffffffffffffffffffffffffffffffffffffffffffffffffffffffffff820361102c5761102b610fc0565b5b600182019050919050565b7f566f74696e67206973206e6f742061637469766520666f72207468697320736560008201527f7373696f6e000000000000000000000000000000000000000000000000000000602082015250565b60006110936025836108c2565b915061109e82611037565b604082019050919050565b600060208201905081810360008301526110c281611086565b9050919050565b7f596f75206861766520616c726561647920766f74656400000000000000000000600082015250565b60006110ff6016836108c2565b915061110a826110c9565b602082019050919050565b6000602082019050818103600083015261112e816110f2565b9050919050565b7f496e76616c69642063616e646964617465204944000000000000000000000000600082015250565b600061116b6014836108c2565b915061117682611135565b602082019050919050565b6000602082019050818103600083015261119a8161115e565b9050919050565b7f456e642074696d65206d7573742062652061667465722073746172742074696d60008201527f6500000000000000000000000000000000000000000000000000000000000000602082015250565b60006111fd6021836108c2565b9150611208826111a1565b604082019050919050565b6000602082019050818103600083015261122c816111f0565b905091905056fea26469706673582212206ecc99cb4bad2f23502c422c7055e7881a7bf566b22b6eac49d91de4583d1ead64736f6c634300081b0033",
  "linkReferences": {},
  "deployedLinkReferences": {}
}