{
  "_format": "hh-sol-artifact-1",
  "contractName": "VotingComplete",
  "sourceName": "contracts/VotingComplete.sol",
  "abi": [
    {
      "anonymous": false,
      "inputs": [
        {
          "indexed": true,
          "internalType": "uint256",
          "name": "sessionId",
          "type": "uint256"
        },
        {
          "indexed": false,
          "internalType": "string",
          "name": "candidateName",
          "type": "string"
        }
      ],
      "name": "CandidateAdded",
      "type": "event"
    },
    {
      "anonymous": false,
      "inputs": [
        {
          "indexed": true,
          "internalType": "uint256",
          "name": "sessionId",
          "type": "uint256"
        }
      ],
      "name": "SessionArchived",
      "type": "event"
    },
    {
      "anonymous": false,
      "inputs": [
        {
          "indexed": true,
          "internalType": "address",
          "name": "voter",
          "type": "address"
        },
        {
          "indexed": true,
          "internalType": "uint256",
          "name": "sessionId",
          "type": "uint256"
        },
        {
          "indexed": false,
          "internalType": "uint256",
          "name": "candidateId",
          "type": "uint256"
        }
      ],
      "name": "VoteCast",
      "type": "event"
    },
    {
      "anonymous": false,
      "inputs": [
        {
          "indexed": true,
          "internalType": "address",
          "name": "creator",
          "type": "address"
        },
        {
          "indexed": false,
          "internalType": "uint256",
          "name": "sessionId",
          "type": "uint256"
        },
        {
          "indexed": false,
          "internalType": "string",
          "name": "title",
          "type": "string"
        },
        {
          "indexed": false,
          "internalType": "uint256",
          "name": "startTime",
          "type": "uint256"
        },
        {
          "indexed": false,
          "internalType": "uint256",
          "name": "endTime",
          "type": "uint256"
        }
      ],
      "name": "VotingSessionCreated",
      "type": "event"
    },
    {
      "inputs": [
        {
          "internalType": "uint256",
          "name": "sessionId",
          "type": "uint256"
        },
        {
          "internalType": "string",
          "name": "name",
          "type": "string"
        }
      ],
      "name": "addCandidate",
      "outputs": [],
      "stateMutability": "nonpayable",
      "type": "function"
    },
    {
      "inputs": [
        {
          "internalType": "uint256",
          "name": "sessionId",
          "type": "uint256"
        }
      ],
      "name": "archiveSession",
      "outputs": [],
      "stateMutability": "nonpayable",
      "type": "function"
    },
    {
      "inputs": [
        {
          "internalType": "string",
          "name": "title",
          "type": "string"
        },
        {
          "internalType": "uint256",
          "name": "startTime",
          "type": "uint256"
        },
        {
          "internalType": "uint256",
          "name": "endTime",
          "type": "uint256"
        }
      ],
      "name": "createVotingSession",
      "outputs": [],
      "stateMutability": "nonpayable",
      "type": "function"
    },
    {
      "inputs": [
        {
          "internalType": "uint256",
          "name": "sessionId",
          "type": "uint256"
        }
      ],
      "name": "getCandidates",
      "outputs": [
        {
          "components": [
            {
              "internalType": "string",
              "name": "name",
              "type": "string"
            },
            {
              "internalType": "uint256",
              "name": "voteCount",
              "type": "uint256"
            }
          ],
          "internalType": "struct VotingComplete.Candidate[]",
          "name": "",
          "type": "tuple[]"
        }
      ],
      "stateMutability": "view",
      "type": "function"
    },
    {
      "inputs": [
        {
          "internalType": "uint256",
          "name": "sessionId",
          "type": "uint256"
        }
      ],
      "name": "getSessionCreator",
      "outputs": [
        {
          "internalType": "address",
          "name": "",
          "type": "address"
        }
      ],
      "stateMutability": "view",
      "type": "function"
    },
    {
      "inputs": [
        {
          "internalType": "uint256",
          "name": "sessionId",
          "type": "uint256"
        }
      ],
      "name": "getWinner",
      "outputs": [
        {
          "internalType": "string",
          "name": "winnerName",
          "type": "string"
        },
        {
          "internalType": "bool",
          "name": "isTie",
          "type": "bool"
        }
      ],
      "stateMutability": "view",
      "type": "function"
    },
    {
      "inputs": [
        {
          "internalType": "uint256",
          "name": "sessionId",
          "type": "uint256"
        },
        {
          "internalType": "address",
          "name": "user",
          "type": "address"
        }
      ],
      "name": "hasUserVoted",
      "outputs": [
        {
          "internalType": "bool",
          "name": "",
          "type": "bool"
        }
      ],
      "stateMutability": "view",
      "type": "function"
    },
    {
      "inputs": [],
      "name": "sessionCount",
      "outputs": [
        {
          "internalType": "uint256",
          "name": "",
          "type": "uint256"
        }
      ],
      "stateMutability": "view",
      "type": "function"
    },
    {
      "inputs": [
        {
          "internalType": "uint256",
          "name": "sessionId",
          "type": "uint256"
        },
        {
          "internalType": "uint256",
          "name": "candidateId",
          "type": "uint256"
        }
      ],
      "name": "vote",
      "outputs": [],
      "stateMutability": "nonpayable",
      "type": "function"
    },
    {
      "inputs": [
        {
          "internalType": "uint256",
          "name": "",
          "type": "uint256"
        }
      ],
      "name": "votingSessions",
      "outputs": [
        {
          "internalType": "uint256",
          "name": "id",
          "type": "uint256"
        },
        {
          "internalType": "string",
          "name": "title",
          "type": "string"
        },
        {
          "internalType": "uint256",
          "name": "startTime",
          "type": "uint256"
        },
        {
          "internalType": "uint256",
          "name": "endTime",
          "type": "uint256"
        },
        {
          "internalType": "bool",
          "name": "isActive",
          "type": "bool"
        },
        {
          "internalType": "address",
          "name": "creator",
          "type": "address"
        }
      ],
      "stateMutability": "view",
      "type": "function"
    }
  ],
  "bytecode": "0x6080604052348015600f57600080fd5b50611ce48061001f6000396000f3fe608060405234801561001057600080fd5b506004361061009e5760003560e01c806373cd83361161006657806373cd833614610171578063aa6f22f51461018f578063b384abef146101bf578063c08503c6146101db578063dc296ae1146101f75761009e565b80631186eb7c146100a35780631750a3d0146100d85780633544bfea146100f45780633e39a7a5146101105780634129b2c914610140575b600080fd5b6100bd60048036038101906100b89190610f1f565b610227565b6040516100cf96959493929190611047565b60405180910390f35b6100f260048036038101906100ed91906111e4565b610318565b005b61010e60048036038101906101099190610f1f565b6104d1565b005b61012a60048036038101906101259190610f1f565b6105d6565b6040516101379190611398565b60405180910390f35b61015a60048036038101906101559190610f1f565b610741565b6040516101689291906113ba565b60405180910390f35b610179610963565b60405161018691906113ea565b60405180910390f35b6101a960048036038101906101a49190610f1f565b610969565b6040516101b69190611405565b60405180910390f35b6101d960048036038101906101d49190611420565b610a03565b005b6101f560048036038101906101f09190611460565b610cb4565b005b610211600480360381019061020c91906114fb565b610e10565b60405161021e919061153b565b60405180910390f35b600160205280600052604060002060009150905080600001549080600101805461025090611585565b80601f016020809104026020016040519081016040528092919081815260200182805461027c90611585565b80156102c95780601f1061029e576101008083540402835291602001916102c9565b820191906000526020600020905b8154815290600101906020018083116102ac57829003601f168201915b5050505050908060020154908060030154908060060160009054906101000a900460ff16908060060160019054906101000a900473ffffffffffffffffffffffffffffffffffffffff16905086565b8180600160008381526020019081526020016000206000015414610371576040517f08c379a000000000000000000000000000000000000000000000000000000000815260040161036890611602565b60405180910390fd5b826001600082815260200190815260200160002060060160019054906101000a900473ffffffffffffffffffffffffffffffffffffffff1673ffffffffffffffffffffffffffffffffffffffff163373ffffffffffffffffffffffffffffffffffffffff1614610416576040517f08c379a000000000000000000000000000000000000000000000000000000000815260040161040d90611694565b60405180910390fd5b60006001600086815260200190815260200160002090508060040160405180604001604052808681526020016000815250908060018154018082558091505060019003906000526020600020906002020160009091909190915060008201518160000190816104859190611860565b50602082015181600101555050847fe83b2a43e7e82d975c8a0a6d2f045153c869e111136a34d1889ab7b598e396a3856040516104c29190611932565b60405180910390a25050505050565b808060016000838152602001908152602001600020600001541461052a576040517f08c379a000000000000000000000000000000000000000000000000000000000815260040161052190611602565b60405180910390fd5b600060016000848152602001908152602001600020905080600301544211610587576040517f08c379a000000000000000000000000000000000000000000000000000000000815260040161057e906119a0565b60405180910390fd5b60008160060160006101000a81548160ff021916908315150217905550827f86ab214b9941164ba2b8fa50046c3399316cf613517f781985e3180dbdb65bfd60405160405180910390a2505050565b60608180600160008381526020019081526020016000206000015414610631576040517f08c379a000000000000000000000000000000000000000000000000000000000815260040161062890611602565b60405180910390fd5b60016000848152602001908152602001600020600401805480602002602001604051908101604052809291908181526020016000905b82821015610735578382906000526020600020906002020160405180604001604052908160008201805461069a90611585565b80601f01602080910402602001604051908101604052809291908181526020018280546106c690611585565b80156107135780601f106106e857610100808354040283529160200191610713565b820191906000526020600020905b8154815290600101906020018083116106f657829003601f168201915b5050505050815260200160018201548152505081526020019060010190610667565b50505050915050919050565b60606000828060016000838152602001908152602001600020600001541461079e576040517f08c379a000000000000000000000000000000000000000000000000000000000815260040161079590611602565b60405180910390fd5b600060016000868152602001908152602001600020905060008060005b836004018054905081101561092957828460040182815481106107e1576107e06119c0565b5b90600052602060002090600202016001015411156108de5783600401818154811061080f5761080e6119c0565b5b9060005260206000209060020201600101549250836004018181548110610839576108386119c0565b5b9060005260206000209060020201600001805461085590611585565b80601f016020809104026020016040519081016040528092919081815260200182805461088190611585565b80156108ce5780601f106108a3576101008083540402835291602001916108ce565b820191906000526020600020905b8154815290600101906020018083116108b157829003601f168201915b505050505096506001915061091c565b828460040182815481106108f5576108f46119c0565b5b9060005260206000209060020201600101540361091b57818061091790611a1e565b9250505b5b80806001019150506107bb565b50600181111561095257600160405180602001604052806000815250909550955050505061095d565b856000955095505050505b50915091565b60005481565b600081806001600083815260200190815260200160002060000154146109c4576040517f08c379a00000000000000000000000000000000000000000000000000000000081526004016109bb90611602565b60405180910390fd5b6001600084815260200190815260200160002060060160019054906101000a900473ffffffffffffffffffffffffffffffffffffffff16915050919050565b8160016000828152602001908152602001600020600201544210158015610a40575060016000828152602001908152602001600020600301544211155b610a7f576040517f08c379a0000000000000000000000000000000000000000000000000000000008152600401610a7690611ad8565b60405180910390fd5b8280600160008381526020019081526020016000206000015414610ad8576040517f08c379a0000000000000000000000000000000000000000000000000000000008152600401610acf90611602565b60405180910390fd5b60006001600086815260200190815260200160002090508060050160003373ffffffffffffffffffffffffffffffffffffffff1673ffffffffffffffffffffffffffffffffffffffff16815260200190815260200160002060009054906101000a900460ff1615610b7e576040517f08c379a0000000000000000000000000000000000000000000000000000000008152600401610b7590611b44565b60405180910390fd5b80600401805490508410610bc7576040517f08c379a0000000000000000000000000000000000000000000000000000000008152600401610bbe90611bb0565b60405180910390fd5b60018160050160003373ffffffffffffffffffffffffffffffffffffffff1673ffffffffffffffffffffffffffffffffffffffff16815260200190815260200160002060006101000a81548160ff021916908315150217905550806004018481548110610c3757610c366119c0565b5b90600052602060002090600202016001016000815480929190610c5990611a1e565b9190505550843373ffffffffffffffffffffffffffffffffffffffff167fb4cfecf70861b7b150d8337780d34fb4cbc2114b5fb1fe51a5c5fca1849f727486604051610ca591906113ea565b60405180910390a35050505050565b818111610cf6576040517f08c379a0000000000000000000000000000000000000000000000000000000008152600401610ced90611c42565b60405180910390fd5b600060016000805481526020019081526020016000209050600054816000018190555083816001019081610d2a9190611860565b5082816002018190555081816003018190555060018160060160006101000a81548160ff021916908315150217905550338160060160016101000a81548173ffffffffffffffffffffffffffffffffffffffff021916908373ffffffffffffffffffffffffffffffffffffffff1602179055503373ffffffffffffffffffffffffffffffffffffffff167f04f45a9c6dd9a8d45035d3a1449ce0b77c77bb4f48e291a201e0dd63d21b087b600054868686604051610deb9493929190611c62565b60405180910390a2600080815480929190610e0590611a1e565b919050555050505050565b60008280600160008381526020019081526020016000206000015414610e6b576040517f08c379a0000000000000000000000000000000000000000000000000000000008152600401610e6290611602565b60405180910390fd5b6001600085815260200190815260200160002060050160008473ffffffffffffffffffffffffffffffffffffffff1673ffffffffffffffffffffffffffffffffffffffff16815260200190815260200160002060009054906101000a900460ff1691505092915050565b6000604051905090565b600080fd5b600080fd5b6000819050919050565b610efc81610ee9565b8114610f0757600080fd5b50565b600081359050610f1981610ef3565b92915050565b600060208284031215610f3557610f34610edf565b5b6000610f4384828501610f0a565b91505092915050565b610f5581610ee9565b82525050565b600081519050919050565b600082825260208201905092915050565b60005b83811015610f95578082015181840152602081019050610f7a565b60008484015250505050565b6000601f19601f8301169050919050565b6000610fbd82610f5b565b610fc78185610f66565b9350610fd7818560208601610f77565b610fe081610fa1565b840191505092915050565b60008115159050919050565b61100081610feb565b82525050565b600073ffffffffffffffffffffffffffffffffffffffff82169050919050565b600061103182611006565b9050919050565b61104181611026565b82525050565b600060c08201905061105c6000830189610f4c565b818103602083015261106e8188610fb2565b905061107d6040830187610f4c565b61108a6060830186610f4c565b6110976080830185610ff7565b6110a460a0830184611038565b979650505050505050565b600080fd5b600080fd5b7f4e487b7100000000000000000000000000000000000000000000000000000000600052604160045260246000fd5b6110f182610fa1565b810181811067ffffffffffffffff821117156111105761110f6110b9565b5b80604052505050565b6000611123610ed5565b905061112f82826110e8565b919050565b600067ffffffffffffffff82111561114f5761114e6110b9565b5b61115882610fa1565b9050602081019050919050565b82818337600083830152505050565b600061118761118284611134565b611119565b9050828152602081018484840111156111a3576111a26110b4565b5b6111ae848285611165565b509392505050565b600082601f8301126111cb576111ca6110af565b5b81356111db848260208601611174565b91505092915050565b600080604083850312156111fb576111fa610edf565b5b600061120985828601610f0a565b925050602083013567ffffffffffffffff81111561122a57611229610ee4565b5b611236858286016111b6565b9150509250929050565b600081519050919050565b600082825260208201905092915050565b6000819050602082019050919050565b600082825260208201905092915050565b600061128882610f5b565b611292818561126c565b93506112a2818560208601610f77565b6112ab81610fa1565b840191505092915050565b6112bf81610ee9565b82525050565b600060408301600083015184820360008601526112e2828261127d565b91505060208301516112f760208601826112b6565b508091505092915050565b600061130e83836112c5565b905092915050565b6000602082019050919050565b600061132e82611240565b611338818561124b565b93508360208202850161134a8561125c565b8060005b8581101561138657848403895281516113678582611302565b945061137283611316565b925060208a0199505060018101905061134e565b50829750879550505050505092915050565b600060208201905081810360008301526113b28184611323565b905092915050565b600060408201905081810360008301526113d48185610fb2565b90506113e36020830184610ff7565b9392505050565b60006020820190506113ff6000830184610f4c565b92915050565b600060208201905061141a6000830184611038565b92915050565b6000806040838503121561143757611436610edf565b5b600061144585828601610f0a565b925050602061145685828601610f0a565b9150509250929050565b60008060006060848603121561147957611478610edf565b5b600084013567ffffffffffffffff81111561149757611496610ee4565b5b6114a3868287016111b6565b93505060206114b486828701610f0a565b92505060406114c586828701610f0a565b9150509250925092565b6114d881611026565b81146114e357600080fd5b50565b6000813590506114f5816114cf565b92915050565b6000806040838503121561151257611511610edf565b5b600061152085828601610f0a565b9250506020611531858286016114e6565b9150509250929050565b60006020820190506115506000830184610ff7565b92915050565b7f4e487b7100000000000000000000000000000000000000000000000000000000600052602260045260246000fd5b6000600282049050600182168061159d57607f821691505b6020821081036115b0576115af611556565b5b50919050565b7f53657373696f6e20646f6573206e6f7420657869737400000000000000000000600082015250565b60006115ec601683610f66565b91506115f7826115b6565b602082019050919050565b6000602082019050818103600083015261161b816115df565b9050919050565b7f4f6e6c79207468652073657373696f6e2063726561746f722063616e2070657260008201527f666f726d207468697320616374696f6e00000000000000000000000000000000602082015250565b600061167e603083610f66565b915061168982611622565b604082019050919050565b600060208201905081810360008301526116ad81611671565b9050919050565b60008190508160005260206000209050919050565b60006020601f8301049050919050565b600082821b905092915050565b6000600883026117167fffffffffffffffffffffffffffffffffffffffffffffffffffffffffffffffff826116d9565b61172086836116d9565b95508019841693508086168417925050509392505050565b6000819050919050565b600061175d61175861175384610ee9565b611738565b610ee9565b9050919050565b6000819050919050565b61177783611742565b61178b61178382611764565b8484546116e6565b825550505050565b600090565b6117a0611793565b6117ab81848461176e565b505050565b5b818110156117cf576117c4600082611798565b6001810190506117b1565b5050565b601f821115611814576117e5816116b4565b6117ee846116c9565b810160208510156117fd578190505b611811611809856116c9565b8301826117b0565b50505b505050565b600082821c905092915050565b600061183760001984600802611819565b1980831691505092915050565b60006118508383611826565b9150826002028217905092915050565b61186982610f5b565b67ffffffffffffffff811115611882576118816110b9565b5b61188c8254611585565b6118978282856117d3565b600060209050601f8311600181146118ca57600084156118b8578287015190505b6118c28582611844565b86555061192a565b601f1984166118d8866116b4565b60005b82811015611900578489015182556001820191506020850194506020810190506118db565b8683101561191d5784890151611919601f891682611826565b8355505b6001600288020188555050505b505050505050565b6000602082019050818103600083015261194c8184610fb2565b905092915050565b7f43616e6e6f742061726368697665206163746976652073657373696f6e000000600082015250565b600061198a601d83610f66565b915061199582611954565b602082019050919050565b600060208201905081810360008301526119b98161197d565b9050919050565b7f4e487b7100000000000000000000000000000000000000000000000000000000600052603260045260246000fd5b7f4e487b7100000000000000000000000000000000000000000000000000000000600052601160045260246000fd5b6000611a2982610ee9565b91507fffffffffffffffffffffffffffffffffffffffffffffffffffffffffffffffff8203611a5b57611a5a6119ef565b5b600182019050919050565b7f566f74696e67206973206e6f742061637469766520666f72207468697320736560008201527f7373696f6e000000000000000000000000000000000000000000000000000000602082015250565b6000611ac2602583610f66565b9150611acd82611a66565b604082019050919050565b60006020820190508181036000830152611af181611ab5565b9050919050565b7f596f75206861766520616c726561647920766f74656400000000000000000000600082015250565b6000611b2e601683610f66565b9150611b3982611af8565b602082019050919050565b60006020820190508181036000830152611b5d81611b21565b9050919050565b7f496e76616c69642063616e646964617465204944000000000000000000000000600082015250565b6000611b9a601483610f66565b9150611ba582611b64565b602082019050919050565b60006020820190508181036000830152611bc981611b8d565b9050919050565b7f456e642074696d65206d7573742062652061667465722073746172742074696d60008201527f6500000000000000000000000000000000000000000000000000000000000000602082015250565b6000611c2c602183610f66565b9150611c3782611bd0565b604082019050919050565b60006020820190508181036000830152611c5b81611c1f565b9050919050565b6000608082019050611c776000830187610f4c565b8181036020830152611c898186610fb2565b9050611c986040830185610f4c565b611ca56060830184610f4c565b9594505050505056fea264697066735822122097243bed70c9574cebdf4756c2c22c1f5ae080e98f4fe556f2d554169e04198564736f6c634300081b0033",
  "linkReferences": {},
  "deployedLinkReferences": {}
}