{
  "_format": "hh-sol-artifact-1",
  "contractName": "VotingContract",
  "sourceName": "contracts/VotingContract.sol",
  "abi": [
    {
      "inputs": [
        {
          "internalType": "uint256",
          "name": "sessionId",
          "type": "uint256"
        },
        {
          "internalType": "string",
          "name": "name",
          "type": "string"
        }
      ],
      "name": "addCandidate",
      "outputs": [],
      "stateMutability": "nonpayable",
      "type": "function"
    },
    {
      "inputs": [
        {
          "internalType": "uint256",
          "name": "sessionId",
          "type": "uint256"
        }
      ],
      "name": "archiveSession",
      "outputs": [],
      "stateMutability": "nonpayable",
      "type": "function"
    },
    {
      "inputs": [
        {
          "internalType": "string",
          "name": "title",
          "type": "string"
        },
        {
          "internalType": "uint256",
          "name": "startTime",
          "type": "uint256"
        },
        {
          "internalType": "uint256",
          "name": "endTime",
          "type": "uint256"
        }
      ],
      "name": "createVotingSession",
      "outputs": [],
      "stateMutability": "nonpayable",
      "type": "function"
    },
    {
      "inputs": [
        {
          "internalType": "uint256",
          "name": "sessionId",
          "type": "uint256"
        }
      ],
      "name": "getCandidates",
      "outputs": [
        {
          "components": [
            {
              "internalType": "string",
              "name": "name",
              "type": "string"
            },
            {
              "internalType": "uint256",
              "name": "voteCount",
              "type": "uint256"
            }
          ],
          "internalType": "struct VotingContract.Candidate[]",
          "name": "",
          "type": "tuple[]"
        }
      ],
      "stateMutability": "view",
      "type": "function"
    },
    {
      "inputs": [
        {
          "internalType": "uint256",
          "name": "sessionId",
          "type": "uint256"
        }
      ],
      "name": "getWinner",
      "outputs": [
        {
          "internalType": "string",
          "name": "winnerName",
          "type": "string"
        }
      ],
      "stateMutability": "view",
      "type": "function"
    },
    {
      "inputs": [],
      "name": "sessionCount",
      "outputs": [
        {
          "internalType": "uint256",
          "name": "",
          "type": "uint256"
        }
      ],
      "stateMutability": "view",
      "type": "function"
    },
    {
      "inputs": [
        {
          "internalType": "uint256",
          "name": "sessionId",
          "type": "uint256"
        },
        {
          "internalType": "uint256",
          "name": "candidateId",
          "type": "uint256"
        }
      ],
      "name": "vote",
      "outputs": [],
      "stateMutability": "nonpayable",
      "type": "function"
    },
    {
      "inputs": [
        {
          "internalType": "uint256",
          "name": "",
          "type": "uint256"
        }
      ],
      "name": "votingSessions",
      "outputs": [
        {
          "internalType": "uint256",
          "name": "id",
          "type": "uint256"
        },
        {
          "internalType": "string",
          "name": "title",
          "type": "string"
        },
        {
          "internalType": "uint256",
          "name": "startTime",
          "type": "uint256"
        },
        {
          "internalType": "uint256",
          "name": "endTime",
          "type": "uint256"
        },
        {
          "internalType": "bool",
          "name": "isActive",
          "type": "bool"
        }
      ],
      "stateMutability": "view",
      "type": "function"
    }
  ],
  "bytecode": "0x6080604052348015600f57600080fd5b506117868061001f6000396000f3fe608060405234801561001057600080fd5b50600436106100885760003560e01c80634129b2c91161005b5780634129b2c91461012957806373cd833614610159578063b384abef14610177578063c08503c61461019357610088565b80631186eb7c1461008d5780631750a3d0146100c15780633544bfea146100dd5780633e39a7a5146100f9575b600080fd5b6100a760048036038101906100a29190610b2e565b6101af565b6040516100b8959493929190610c15565b60405180910390f35b6100db60048036038101906100d69190610da4565b61027a565b005b6100f760048036038101906100f29190610b2e565b6103cf565b005b610113600480360381019061010e9190610b2e565b6104a7565b6040516101209190610f58565b60405180910390f35b610143600480360381019061013e9190610b2e565b610612565b6040516101509190610f7a565b60405180910390f35b6101616107b9565b60405161016e9190610f9c565b60405180910390f35b610191600480360381019061018c9190610fb7565b6107bf565b005b6101ad60048036038101906101a89190610ff7565b610a21565b005b60016020528060005260406000206000915090508060000154908060010180546101d890611095565b80601f016020809104026020016040519081016040528092919081815260200182805461020490611095565b80156102515780601f1061022657610100808354040283529160200191610251565b820191906000526020600020905b81548152906001019060200180831161023457829003601f168201915b5050505050908060020154908060030154908060060160009054906101000a900460ff16905085565b8160016000828152602001908152602001600020600201544210806102b45750600160008281526020019081526020016000206003015442115b6102f3576040517f08c379a00000000000000000000000000000000000000000000000000000000081526004016102ea90611138565b60405180910390fd5b828060016000838152602001908152602001600020600001541461034c576040517f08c379a0000000000000000000000000000000000000000000000000000000008152600401610343906111a4565b60405180910390fd5b60006001600086815260200190815260200160002090508060040160405180604001604052808681526020016000815250908060018154018082558091505060019003906000526020600020906002020160009091909190915060008201518160000190816103bb9190611370565b506020820151816001015550505050505050565b8080600160008381526020019081526020016000206000015414610428576040517f08c379a000000000000000000000000000000000000000000000000000000000815260040161041f906111a4565b60405180910390fd5b600060016000848152602001908152602001600020905080600301544211610485576040517f08c379a000000000000000000000000000000000000000000000000000000000815260040161047c9061148e565b60405180910390fd5b60008160060160006101000a81548160ff021916908315150217905550505050565b60608180600160008381526020019081526020016000206000015414610502576040517f08c379a00000000000000000000000000000000000000000000000000000000081526004016104f9906111a4565b60405180910390fd5b60016000848152602001908152602001600020600401805480602002602001604051908101604052809291908181526020016000905b82821015610606578382906000526020600020906002020160405180604001604052908160008201805461056b90611095565b80601f016020809104026020016040519081016040528092919081815260200182805461059790611095565b80156105e45780601f106105b9576101008083540402835291602001916105e4565b820191906000526020600020905b8154815290600101906020018083116105c757829003601f168201915b5050505050815260200160018201548152505081526020019060010190610538565b50505050915050919050565b6060818060016000838152602001908152602001600020600001541461066d576040517f08c379a0000000000000000000000000000000000000000000000000000000008152600401610664906111a4565b60405180910390fd5b60006001600085815260200190815260200160002090506000805b82600401805490508110156107b057818360040182815481106106ae576106ad6114ae565b5b90600052602060002090600202016001015411156107a3578260040181815481106106dc576106db6114ae565b5b9060005260206000209060020201600101549150826004018181548110610706576107056114ae565b5b9060005260206000209060020201600001805461072290611095565b80601f016020809104026020016040519081016040528092919081815260200182805461074e90611095565b801561079b5780601f106107705761010080835404028352916020019161079b565b820191906000526020600020905b81548152906001019060200180831161077e57829003601f168201915b505050505094505b8080600101915050610688565b50505050919050565b60005481565b81600160008281526020019081526020016000206002015442101580156107fc575060016000828152602001908152602001600020600301544211155b61083b576040517f08c379a00000000000000000000000000000000000000000000000000000000081526004016108329061154f565b60405180910390fd5b8280600160008381526020019081526020016000206000015414610894576040517f08c379a000000000000000000000000000000000000000000000000000000000815260040161088b906111a4565b60405180910390fd5b60006001600086815260200190815260200160002090508060050160003373ffffffffffffffffffffffffffffffffffffffff1673ffffffffffffffffffffffffffffffffffffffff16815260200190815260200160002060009054906101000a900460ff161561093a576040517f08c379a0000000000000000000000000000000000000000000000000000000008152600401610931906115bb565b60405180910390fd5b80600401805490508410610983576040517f08c379a000000000000000000000000000000000000000000000000000000000815260040161097a90611627565b60405180910390fd5b60018160050160003373ffffffffffffffffffffffffffffffffffffffff1673ffffffffffffffffffffffffffffffffffffffff16815260200190815260200160002060006101000a81548160ff0219169083151502179055508060040184815481106109f3576109f26114ae565b5b90600052602060002090600202016001016000815480929190610a1590611676565b91905055505050505050565b818111610a63576040517f08c379a0000000000000000000000000000000000000000000000000000000008152600401610a5a90611730565b60405180910390fd5b600060016000805481526020019081526020016000209050600054816000018190555083816001019081610a979190611370565b5082816002018190555081816003018190555060018160060160006101000a81548160ff021916908315150217905550600080815480929190610ad990611676565b919050555050505050565b6000604051905090565b600080fd5b600080fd5b6000819050919050565b610b0b81610af8565b8114610b1657600080fd5b50565b600081359050610b2881610b02565b92915050565b600060208284031215610b4457610b43610aee565b5b6000610b5284828501610b19565b91505092915050565b610b6481610af8565b82525050565b600081519050919050565b600082825260208201905092915050565b60005b83811015610ba4578082015181840152602081019050610b89565b60008484015250505050565b6000601f19601f8301169050919050565b6000610bcc82610b6a565b610bd68185610b75565b9350610be6818560208601610b86565b610bef81610bb0565b840191505092915050565b60008115159050919050565b610c0f81610bfa565b82525050565b600060a082019050610c2a6000830188610b5b565b8181036020830152610c3c8187610bc1565b9050610c4b6040830186610b5b565b610c586060830185610b5b565b610c656080830184610c06565b9695505050505050565b600080fd5b600080fd5b7f4e487b7100000000000000000000000000000000000000000000000000000000600052604160045260246000fd5b610cb182610bb0565b810181811067ffffffffffffffff82111715610cd057610ccf610c79565b5b80604052505050565b6000610ce3610ae4565b9050610cef8282610ca8565b919050565b600067ffffffffffffffff821115610d0f57610d0e610c79565b5b610d1882610bb0565b9050602081019050919050565b82818337600083830152505050565b6000610d47610d4284610cf4565b610cd9565b905082815260208101848484011115610d6357610d62610c74565b5b610d6e848285610d25565b509392505050565b600082601f830112610d8b57610d8a610c6f565b5b8135610d9b848260208601610d34565b91505092915050565b60008060408385031215610dbb57610dba610aee565b5b6000610dc985828601610b19565b925050602083013567ffffffffffffffff811115610dea57610de9610af3565b5b610df685828601610d76565b9150509250929050565b600081519050919050565b600082825260208201905092915050565b6000819050602082019050919050565b600082825260208201905092915050565b6000610e4882610b6a565b610e528185610e2c565b9350610e62818560208601610b86565b610e6b81610bb0565b840191505092915050565b610e7f81610af8565b82525050565b60006040830160008301518482036000860152610ea28282610e3d565b9150506020830151610eb76020860182610e76565b508091505092915050565b6000610ece8383610e85565b905092915050565b6000602082019050919050565b6000610eee82610e00565b610ef88185610e0b565b935083602082028501610f0a85610e1c565b8060005b85811015610f465784840389528151610f278582610ec2565b9450610f3283610ed6565b925060208a01995050600181019050610f0e565b50829750879550505050505092915050565b60006020820190508181036000830152610f728184610ee3565b905092915050565b60006020820190508181036000830152610f948184610bc1565b905092915050565b6000602082019050610fb16000830184610b5b565b92915050565b60008060408385031215610fce57610fcd610aee565b5b6000610fdc85828601610b19565b9250506020610fed85828601610b19565b9150509250929050565b6000806000606084860312156110105761100f610aee565b5b600084013567ffffffffffffffff81111561102e5761102d610af3565b5b61103a86828701610d76565b935050602061104b86828701610b19565b925050604061105c86828701610b19565b9150509250925092565b7f4e487b7100000000000000000000000000000000000000000000000000000000600052602260045260246000fd5b600060028204905060018216806110ad57607f821691505b6020821081036110c0576110bf611066565b5b50919050565b7f416374696f6e207265737472696374656420746f206e6f6e2d766f74696e672060008201527f706572696f647320666f7220746869732073657373696f6e0000000000000000602082015250565b6000611122603883610b75565b915061112d826110c6565b604082019050919050565b6000602082019050818103600083015261115181611115565b9050919050565b7f53657373696f6e20646f6573206e6f7420657869737400000000000000000000600082015250565b600061118e601683610b75565b915061119982611158565b602082019050919050565b600060208201905081810360008301526111bd81611181565b9050919050565b60008190508160005260206000209050919050565b60006020601f8301049050919050565b600082821b905092915050565b6000600883026112267fffffffffffffffffffffffffffffffffffffffffffffffffffffffffffffffff826111e9565b61123086836111e9565b95508019841693508086168417925050509392505050565b6000819050919050565b600061126d61126861126384610af8565b611248565b610af8565b9050919050565b6000819050919050565b61128783611252565b61129b61129382611274565b8484546111f6565b825550505050565b600090565b6112b06112a3565b6112bb81848461127e565b505050565b5b818110156112df576112d46000826112a8565b6001810190506112c1565b5050565b601f821115611324576112f5816111c4565b6112fe846111d9565b8101602085101561130d578190505b611321611319856111d9565b8301826112c0565b50505b505050565b600082821c905092915050565b600061134760001984600802611329565b1980831691505092915050565b60006113608383611336565b9150826002028217905092915050565b61137982610b6a565b67ffffffffffffffff81111561139257611391610c79565b5b61139c8254611095565b6113a78282856112e3565b600060209050601f8311600181146113da57600084156113c8578287015190505b6113d28582611354565b86555061143a565b601f1984166113e8866111c4565b60005b82811015611410578489015182556001820191506020850194506020810190506113eb565b8683101561142d5784890151611429601f891682611336565b8355505b6001600288020188555050505b505050505050565b7f43616e6e6f742061726368697665206163746976652073657373696f6e000000600082015250565b6000611478601d83610b75565b915061148382611442565b602082019050919050565b600060208201905081810360008301526114a78161146b565b9050919050565b7f4e487b7100000000000000000000000000000000000000000000000000000000600052603260045260246000fd5b7f566f74696e67206973206e6f742061637469766520666f72207468697320736560008201527f7373696f6e000000000000000000000000000000000000000000000000000000602082015250565b6000611539602583610b75565b9150611544826114dd565b604082019050919050565b600060208201905081810360008301526115688161152c565b9050919050565b7f596f75206861766520616c726561647920766f74656400000000000000000000600082015250565b60006115a5601683610b75565b91506115b08261156f565b602082019050919050565b600060208201905081810360008301526115d481611598565b9050919050565b7f496e76616c69642063616e646964617465204944000000000000000000000000600082015250565b6000611611601483610b75565b915061161c826115db565b602082019050919050565b6000602082019050818103600083015261164081611604565b9050919050565b7f4e487b7100000000000000000000000000000000000000000000000000000000600052601160045260246000fd5b600061168182610af8565b91507fffffffffffffffffffffffffffffffffffffffffffffffffffffffffffffffff82036116b3576116b2611647565b5b600182019050919050565b7f456e642074696d65206d7573742062652061667465722073746172742074696d60008201527f6500000000000000000000000000000000000000000000000000000000000000602082015250565b600061171a602183610b75565b9150611725826116be565b604082019050919050565b600060208201905081810360008301526117498161170d565b905091905056fea2646970667358221220ceddba317940b58c04ad9772f6cae8804ebb86598eac4adcff1b9fc9816e187d64736f6c634300081b0033",
  "linkReferences": {},
  "deployedLinkReferences": {}
}