{
  "_format": "hh-sol-artifact-1",
  "contractName": "VotingSystem",
  "sourceName": "contracts/VotingSystem.sol",
  "abi": [
    {
      "inputs": [
        {
          "internalType": "string",
          "name": "name",
          "type": "string"
        }
      ],
      "name": "addCandidate",
      "outputs": [],
      "stateMutability": "nonpayable",
      "type": "function"
    },
    {
      "inputs": [],
      "name": "candidateCount",
      "outputs": [
        {
          "internalType": "uint256",
          "name": "",
          "type": "uint256"
        }
      ],
      "stateMutability": "view",
      "type": "function"
    },
    {
      "inputs": [
        {
          "internalType": "uint256",
          "name": "",
          "type": "uint256"
        }
      ],
      "name": "candidates",
      "outputs": [
        {
          "internalType": "string",
          "name": "name",
          "type": "string"
        },
        {
          "internalType": "uint256",
          "name": "voteCount",
          "type": "uint256"
        }
      ],
      "stateMutability": "view",
      "type": "function"
    },
    {
      "inputs": [],
      "name": "endTime",
      "outputs": [
        {
          "internalType": "uint256",
          "name": "",
          "type": "uint256"
        }
      ],
      "stateMutability": "view",
      "type": "function"
    },
    {
      "inputs": [],
      "name": "getWinner",
      "outputs": [
        {
          "internalType": "string",
          "name": "winnerName",
          "type": "string"
        }
      ],
      "stateMutability": "view",
      "type": "function"
    },
    {
      "inputs": [
        {
          "internalType": "address",
          "name": "",
          "type": "address"
        }
      ],
      "name": "hasVoted",
      "outputs": [
        {
          "internalType": "bool",
          "name": "",
          "type": "bool"
        }
      ],
      "stateMutability": "view",
      "type": "function"
    },
    {
      "inputs": [
        {
          "internalType": "uint256",
          "name": "_startTime",
          "type": "uint256"
        },
        {
          "internalType": "uint256",
          "name": "_endTime",
          "type": "uint256"
        }
      ],
      "name": "setVotingPeriod",
      "outputs": [],
      "stateMutability": "nonpayable",
      "type": "function"
    },
    {
      "inputs": [],
      "name": "startTime",
      "outputs": [
        {
          "internalType": "uint256",
          "name": "",
          "type": "uint256"
        }
      ],
      "stateMutability": "view",
      "type": "function"
    },
    {
      "inputs": [
        {
          "internalType": "uint256",
          "name": "candidateId",
          "type": "uint256"
        }
      ],
      "name": "vote",
      "outputs": [],
      "stateMutability": "nonpayable",
      "type": "function"
    }
  ],
  "bytecode": "0x6080604052348015600f57600080fd5b506110928061001f6000396000f3fe608060405234801561001057600080fd5b50600436106100935760003560e01c8063462e91ec11610066578063462e91ec1461013357806378e979251461014f5780638e7ea5b21461016d578063a15a36c71461018b578063a9a981a3146101a757610093565b80630121b93f1461009857806309eef43e146100b45780633197cbb6146100e45780633477ee2e14610102575b600080fd5b6100b260048036038101906100ad91906106e7565b6101c5565b005b6100ce60048036038101906100c99190610772565b61036f565b6040516100db91906107ba565b60405180910390f35b6100ec61038f565b6040516100f991906107e4565b60405180910390f35b61011c600480360381019061011791906106e7565b610395565b60405161012a92919061088f565b60405180910390f35b61014d600480360381019061014891906109f4565b610441565b005b6101576104f5565b60405161016491906107e4565b60405180910390f35b6101756104fb565b6040516101829190610a3d565b60405180910390f35b6101a560048036038101906101a09190610a5f565b6105f3565b005b6101af610697565b6040516101bc91906107e4565b60405180910390f35b60035442101580156101d957506004544211155b610218576040517f08c379a000000000000000000000000000000000000000000000000000000000815260040161020f90610aeb565b60405180910390fd5b600260003373ffffffffffffffffffffffffffffffffffffffff1673ffffffffffffffffffffffffffffffffffffffff16815260200190815260200160002060009054906101000a900460ff16156102a5576040517f08c379a000000000000000000000000000000000000000000000000000000000815260040161029c90610b57565b60405180910390fd5b60015481106102e9576040517f08c379a00000000000000000000000000000000000000000000000000000000081526004016102e090610bc3565b60405180910390fd5b6001600260003373ffffffffffffffffffffffffffffffffffffffff1673ffffffffffffffffffffffffffffffffffffffff16815260200190815260200160002060006101000a81548160ff021916908315150217905550600080828152602001908152602001600020600101600081548092919061036790610c12565b919050555050565b60026020528060005260406000206000915054906101000a900460ff1681565b60045481565b60006020528060005260406000206000915090508060000180546103b890610c89565b80601f01602080910402602001604051908101604052809291908181526020018280546103e490610c89565b80156104315780601f1061040657610100808354040283529160200191610431565b820191906000526020600020905b81548152906001019060200180831161041457829003601f168201915b5050505050908060010154905082565b600354421080610452575060045442115b610491576040517f08c379a000000000000000000000000000000000000000000000000000000000815260040161048890610d2c565b60405180910390fd5b60405180604001604052808281526020016000815250600080600160008154809291906104bd90610c12565b91905055815260200190815260200160002060008201518160000190816104e49190610ef8565b506020820151816001015590505050565b60035481565b60606000805b6001548110156105ee57816000808381526020019081526020016000206001015411156105e157600080828152602001908152602001600020600101549150600080828152602001908152602001600020600001805461056090610c89565b80601f016020809104026020016040519081016040528092919081815260200182805461058c90610c89565b80156105d95780601f106105ae576101008083540402835291602001916105d9565b820191906000526020600020905b8154815290600101906020018083116105bc57829003601f168201915b505050505092505b8080600101915050610501565b505090565b600354421080610604575060045442115b610643576040517f08c379a000000000000000000000000000000000000000000000000000000000815260040161063a90610d2c565b60405180910390fd5b818111610685576040517f08c379a000000000000000000000000000000000000000000000000000000000815260040161067c9061103c565b60405180910390fd5b81600381905550806004819055505050565b60015481565b6000604051905090565b600080fd5b600080fd5b6000819050919050565b6106c4816106b1565b81146106cf57600080fd5b50565b6000813590506106e1816106bb565b92915050565b6000602082840312156106fd576106fc6106a7565b5b600061070b848285016106d2565b91505092915050565b600073ffffffffffffffffffffffffffffffffffffffff82169050919050565b600061073f82610714565b9050919050565b61074f81610734565b811461075a57600080fd5b50565b60008135905061076c81610746565b92915050565b600060208284031215610788576107876106a7565b5b60006107968482850161075d565b91505092915050565b60008115159050919050565b6107b48161079f565b82525050565b60006020820190506107cf60008301846107ab565b92915050565b6107de816106b1565b82525050565b60006020820190506107f960008301846107d5565b92915050565b600081519050919050565b600082825260208201905092915050565b60005b8381101561083957808201518184015260208101905061081e565b60008484015250505050565b6000601f19601f8301169050919050565b6000610861826107ff565b61086b818561080a565b935061087b81856020860161081b565b61088481610845565b840191505092915050565b600060408201905081810360008301526108a98185610856565b90506108b860208301846107d5565b9392505050565b600080fd5b600080fd5b7f4e487b7100000000000000000000000000000000000000000000000000000000600052604160045260246000fd5b61090182610845565b810181811067ffffffffffffffff821117156109205761091f6108c9565b5b80604052505050565b600061093361069d565b905061093f82826108f8565b919050565b600067ffffffffffffffff82111561095f5761095e6108c9565b5b61096882610845565b9050602081019050919050565b82818337600083830152505050565b600061099761099284610944565b610929565b9050828152602081018484840111156109b3576109b26108c4565b5b6109be848285610975565b509392505050565b600082601f8301126109db576109da6108bf565b5b81356109eb848260208601610984565b91505092915050565b600060208284031215610a0a57610a096106a7565b5b600082013567ffffffffffffffff811115610a2857610a276106ac565b5b610a34848285016109c6565b91505092915050565b60006020820190508181036000830152610a578184610856565b905092915050565b60008060408385031215610a7657610a756106a7565b5b6000610a84858286016106d2565b9250506020610a95858286016106d2565b9150509250929050565b7f566f74696e67206973206e6f7420616374697665000000000000000000000000600082015250565b6000610ad560148361080a565b9150610ae082610a9f565b602082019050919050565b60006020820190508181036000830152610b0481610ac8565b9050919050565b7f596f75206861766520616c726561647920766f74656400000000000000000000600082015250565b6000610b4160168361080a565b9150610b4c82610b0b565b602082019050919050565b60006020820190508181036000830152610b7081610b34565b9050919050565b7f496e76616c69642063616e646964617465204944000000000000000000000000600082015250565b6000610bad60148361080a565b9150610bb882610b77565b602082019050919050565b60006020820190508181036000830152610bdc81610ba0565b9050919050565b7f4e487b7100000000000000000000000000000000000000000000000000000000600052601160045260246000fd5b6000610c1d826106b1565b91507fffffffffffffffffffffffffffffffffffffffffffffffffffffffffffffffff8203610c4f57610c4e610be3565b5b600182019050919050565b7f4e487b7100000000000000000000000000000000000000000000000000000000600052602260045260246000fd5b60006002820490506001821680610ca157607f821691505b602082108103610cb457610cb3610c5a565b5b50919050565b7f416374696f6e207265737472696374656420746f206e6f6e2d766f74696e672060008201527f706572696f647300000000000000000000000000000000000000000000000000602082015250565b6000610d1660278361080a565b9150610d2182610cba565b604082019050919050565b60006020820190508181036000830152610d4581610d09565b9050919050565b60008190508160005260206000209050919050565b60006020601f8301049050919050565b600082821b905092915050565b600060088302610dae7fffffffffffffffffffffffffffffffffffffffffffffffffffffffffffffffff82610d71565b610db88683610d71565b95508019841693508086168417925050509392505050565b6000819050919050565b6000610df5610df0610deb846106b1565b610dd0565b6106b1565b9050919050565b6000819050919050565b610e0f83610dda565b610e23610e1b82610dfc565b848454610d7e565b825550505050565b600090565b610e38610e2b565b610e43818484610e06565b505050565b5b81811015610e6757610e5c600082610e30565b600181019050610e49565b5050565b601f821115610eac57610e7d81610d4c565b610e8684610d61565b81016020851015610e95578190505b610ea9610ea185610d61565b830182610e48565b50505b505050565b600082821c905092915050565b6000610ecf60001984600802610eb1565b1980831691505092915050565b6000610ee88383610ebe565b9150826002028217905092915050565b610f01826107ff565b67ffffffffffffffff811115610f1a57610f196108c9565b5b610f248254610c89565b610f2f828285610e6b565b600060209050601f831160018114610f625760008415610f50578287015190505b610f5a8582610edc565b865550610fc2565b601f198416610f7086610d4c565b60005b82811015610f9857848901518255600182019150602085019450602081019050610f73565b86831015610fb55784890151610fb1601f891682610ebe565b8355505b6001600288020188555050505b505050505050565b7f456e642074696d65206d7573742062652061667465722073746172742074696d60008201527f6500000000000000000000000000000000000000000000000000000000000000602082015250565b600061102660218361080a565b915061103182610fca565b604082019050919050565b6000602082019050818103600083015261105581611019565b905091905056fea26469706673582212200894ea67506f9cb0ce7d66b519700e7422de4c1c198410426225a8e50742795164736f6c634300081b0033",
  "linkReferences": {},
  "deployedLinkReferences": {}
}