{
  "_format": "hh-sol-artifact-1",
  "contractName": "VotingFinito",
  "sourceName": "contracts/VotingFinito.sol",
  "abi": [
    {
      "inputs": [
        {
          "internalType": "uint256",
          "name": "sessionId",
          "type": "uint256"
        },
        {
          "internalType": "string",
          "name": "name",
          "type": "string"
        }
      ],
      "name": "addCandidate",
      "outputs": [],
      "stateMutability": "nonpayable",
      "type": "function"
    },
    {
      "inputs": [
        {
          "internalType": "uint256",
          "name": "sessionId",
          "type": "uint256"
        }
      ],
      "name": "archiveSession",
      "outputs": [],
      "stateMutability": "nonpayable",
      "type": "function"
    },
    {
      "inputs": [
        {
          "internalType": "string",
          "name": "title",
          "type": "string"
        },
        {
          "internalType": "uint256",
          "name": "startTime",
          "type": "uint256"
        },
        {
          "internalType": "uint256",
          "name": "endTime",
          "type": "uint256"
        }
      ],
      "name": "createVotingSession",
      "outputs": [],
      "stateMutability": "nonpayable",
      "type": "function"
    },
    {
      "inputs": [
        {
          "internalType": "uint256",
          "name": "sessionId",
          "type": "uint256"
        }
      ],
      "name": "getCandidates",
      "outputs": [
        {
          "components": [
            {
              "internalType": "string",
              "name": "name",
              "type": "string"
            },
            {
              "internalType": "uint256",
              "name": "voteCount",
              "type": "uint256"
            }
          ],
          "internalType": "struct VotingFinito.Candidate[]",
          "name": "",
          "type": "tuple[]"
        }
      ],
      "stateMutability": "view",
      "type": "function"
    },
    {
      "inputs": [
        {
          "internalType": "uint256",
          "name": "sessionId",
          "type": "uint256"
        }
      ],
      "name": "getWinner",
      "outputs": [
        {
          "internalType": "string",
          "name": "winnerName",
          "type": "string"
        },
        {
          "internalType": "bool",
          "name": "isTie",
          "type": "bool"
        }
      ],
      "stateMutability": "view",
      "type": "function"
    },
    {
      "inputs": [
        {
          "internalType": "uint256",
          "name": "sessionId",
          "type": "uint256"
        },
        {
          "internalType": "address",
          "name": "user",
          "type": "address"
        }
      ],
      "name": "hasUserVoted",
      "outputs": [
        {
          "internalType": "bool",
          "name": "",
          "type": "bool"
        }
      ],
      "stateMutability": "view",
      "type": "function"
    },
    {
      "inputs": [],
      "name": "sessionCount",
      "outputs": [
        {
          "internalType": "uint256",
          "name": "",
          "type": "uint256"
        }
      ],
      "stateMutability": "view",
      "type": "function"
    },
    {
      "inputs": [
        {
          "internalType": "uint256",
          "name": "sessionId",
          "type": "uint256"
        },
        {
          "internalType": "uint256",
          "name": "candidateId",
          "type": "uint256"
        }
      ],
      "name": "vote",
      "outputs": [],
      "stateMutability": "nonpayable",
      "type": "function"
    },
    {
      "inputs": [
        {
          "internalType": "uint256",
          "name": "",
          "type": "uint256"
        }
      ],
      "name": "votingSessions",
      "outputs": [
        {
          "internalType": "uint256",
          "name": "id",
          "type": "uint256"
        },
        {
          "internalType": "string",
          "name": "title",
          "type": "string"
        },
        {
          "internalType": "uint256",
          "name": "startTime",
          "type": "uint256"
        },
        {
          "internalType": "uint256",
          "name": "endTime",
          "type": "uint256"
        },
        {
          "internalType": "bool",
          "name": "isActive",
          "type": "bool"
        },
        {
          "internalType": "address",
          "name": "creator",
          "type": "address"
        }
      ],
      "stateMutability": "view",
      "type": "function"
    }
  ],
  "bytecode": "0x6080604052348015600f57600080fd5b50611a7c8061001f6000396000f3fe608060405234801561001057600080fd5b50600436106100935760003560e01c80634129b2c9116100665780634129b2c91461013557806373cd833614610166578063b384abef14610184578063c08503c6146101a0578063dc296ae1146101bc57610093565b80631186eb7c146100985780631750a3d0146100cd5780633544bfea146100e95780633e39a7a514610105575b600080fd5b6100b260048036038101906100ad9190610d40565b6101ec565b6040516100c496959493929190610e68565b60405180910390f35b6100e760048036038101906100e29190611005565b6102dd565b005b61010360048036038101906100fe9190610d40565b61045e565b005b61011f600480360381019061011a9190610d40565b610536565b60405161012c91906111b9565b60405180910390f35b61014f600480360381019061014a9190610d40565b6106a1565b60405161015d9291906111db565b60405180910390f35b61016e6108c3565b60405161017b919061120b565b60405180910390f35b61019e60048036038101906101999190611226565b6108c9565b005b6101ba60048036038101906101b59190611266565b610b2b565b005b6101d660048036038101906101d19190611301565b610c31565b6040516101e39190611341565b60405180910390f35b60016020528060005260406000206000915090508060000154908060010180546102159061138b565b80601f01602080910402602001604051908101604052809291908181526020018280546102419061138b565b801561028e5780601f106102635761010080835404028352916020019161028e565b820191906000526020600020905b81548152906001019060200180831161027157829003601f168201915b5050505050908060020154908060030154908060060160009054906101000a900460ff16908060060160019054906101000a900473ffffffffffffffffffffffffffffffffffffffff16905086565b8180600160008381526020019081526020016000206000015414610336576040517f08c379a000000000000000000000000000000000000000000000000000000000815260040161032d90611408565b60405180910390fd5b826001600082815260200190815260200160002060060160019054906101000a900473ffffffffffffffffffffffffffffffffffffffff1673ffffffffffffffffffffffffffffffffffffffff163373ffffffffffffffffffffffffffffffffffffffff16146103db576040517f08c379a00000000000000000000000000000000000000000000000000000000081526004016103d29061149a565b60405180910390fd5b600060016000868152602001908152602001600020905080600401604051806040016040528086815260200160008152509080600181540180825580915050600190039060005260206000209060020201600090919091909150600082015181600001908161044a9190611666565b506020820151816001015550505050505050565b80806001600083815260200190815260200160002060000154146104b7576040517f08c379a00000000000000000000000000000000000000000000000000000000081526004016104ae90611408565b60405180910390fd5b600060016000848152602001908152602001600020905080600301544211610514576040517f08c379a000000000000000000000000000000000000000000000000000000000815260040161050b90611784565b60405180910390fd5b60008160060160006101000a81548160ff021916908315150217905550505050565b60608180600160008381526020019081526020016000206000015414610591576040517f08c379a000000000000000000000000000000000000000000000000000000000815260040161058890611408565b60405180910390fd5b60016000848152602001908152602001600020600401805480602002602001604051908101604052809291908181526020016000905b8282101561069557838290600052602060002090600202016040518060400160405290816000820180546105fa9061138b565b80601f01602080910402602001604051908101604052809291908181526020018280546106269061138b565b80156106735780601f1061064857610100808354040283529160200191610673565b820191906000526020600020905b81548152906001019060200180831161065657829003601f168201915b50505050508152602001600182015481525050815260200190600101906105c7565b50505050915050919050565b6060600082806001600083815260200190815260200160002060000154146106fe576040517f08c379a00000000000000000000000000000000000000000000000000000000081526004016106f590611408565b60405180910390fd5b600060016000868152602001908152602001600020905060008060005b83600401805490508110156108895782846004018281548110610741576107406117a4565b5b906000526020600020906002020160010154111561083e5783600401818154811061076f5761076e6117a4565b5b9060005260206000209060020201600101549250836004018181548110610799576107986117a4565b5b906000526020600020906002020160000180546107b59061138b565b80601f01602080910402602001604051908101604052809291908181526020018280546107e19061138b565b801561082e5780601f106108035761010080835404028352916020019161082e565b820191906000526020600020905b81548152906001019060200180831161081157829003601f168201915b505050505096506001915061087c565b82846004018281548110610855576108546117a4565b5b9060005260206000209060020201600101540361087b57818061087790611802565b9250505b5b808060010191505061071b565b5060018111156108b25760016040518060200160405280600081525090955095505050506108bd565b856000955095505050505b50915091565b60005481565b8160016000828152602001908152602001600020600201544210158015610906575060016000828152602001908152602001600020600301544211155b610945576040517f08c379a000000000000000000000000000000000000000000000000000000000815260040161093c906118bc565b60405180910390fd5b828060016000838152602001908152602001600020600001541461099e576040517f08c379a000000000000000000000000000000000000000000000000000000000815260040161099590611408565b60405180910390fd5b60006001600086815260200190815260200160002090508060050160003373ffffffffffffffffffffffffffffffffffffffff1673ffffffffffffffffffffffffffffffffffffffff16815260200190815260200160002060009054906101000a900460ff1615610a44576040517f08c379a0000000000000000000000000000000000000000000000000000000008152600401610a3b90611928565b60405180910390fd5b80600401805490508410610a8d576040517f08c379a0000000000000000000000000000000000000000000000000000000008152600401610a8490611994565b60405180910390fd5b60018160050160003373ffffffffffffffffffffffffffffffffffffffff1673ffffffffffffffffffffffffffffffffffffffff16815260200190815260200160002060006101000a81548160ff021916908315150217905550806004018481548110610afd57610afc6117a4565b5b90600052602060002090600202016001016000815480929190610b1f90611802565b91905055505050505050565b818111610b6d576040517f08c379a0000000000000000000000000000000000000000000000000000000008152600401610b6490611a26565b60405180910390fd5b600060016000805481526020019081526020016000209050600054816000018190555083816001019081610ba19190611666565b5082816002018190555081816003018190555060018160060160006101000a81548160ff021916908315150217905550338160060160016101000a81548173ffffffffffffffffffffffffffffffffffffffff021916908373ffffffffffffffffffffffffffffffffffffffff160217905550600080815480929190610c2690611802565b919050555050505050565b60008280600160008381526020019081526020016000206000015414610c8c576040517f08c379a0000000000000000000000000000000000000000000000000000000008152600401610c8390611408565b60405180910390fd5b6001600085815260200190815260200160002060050160008473ffffffffffffffffffffffffffffffffffffffff1673ffffffffffffffffffffffffffffffffffffffff16815260200190815260200160002060009054906101000a900460ff1691505092915050565b6000604051905090565b600080fd5b600080fd5b6000819050919050565b610d1d81610d0a565b8114610d2857600080fd5b50565b600081359050610d3a81610d14565b92915050565b600060208284031215610d5657610d55610d00565b5b6000610d6484828501610d2b565b91505092915050565b610d7681610d0a565b82525050565b600081519050919050565b600082825260208201905092915050565b60005b83811015610db6578082015181840152602081019050610d9b565b60008484015250505050565b6000601f19601f8301169050919050565b6000610dde82610d7c565b610de88185610d87565b9350610df8818560208601610d98565b610e0181610dc2565b840191505092915050565b60008115159050919050565b610e2181610e0c565b82525050565b600073ffffffffffffffffffffffffffffffffffffffff82169050919050565b6000610e5282610e27565b9050919050565b610e6281610e47565b82525050565b600060c082019050610e7d6000830189610d6d565b8181036020830152610e8f8188610dd3565b9050610e9e6040830187610d6d565b610eab6060830186610d6d565b610eb86080830185610e18565b610ec560a0830184610e59565b979650505050505050565b600080fd5b600080fd5b7f4e487b7100000000000000000000000000000000000000000000000000000000600052604160045260246000fd5b610f1282610dc2565b810181811067ffffffffffffffff82111715610f3157610f30610eda565b5b80604052505050565b6000610f44610cf6565b9050610f508282610f09565b919050565b600067ffffffffffffffff821115610f7057610f6f610eda565b5b610f7982610dc2565b9050602081019050919050565b82818337600083830152505050565b6000610fa8610fa384610f55565b610f3a565b905082815260208101848484011115610fc457610fc3610ed5565b5b610fcf848285610f86565b509392505050565b600082601f830112610fec57610feb610ed0565b5b8135610ffc848260208601610f95565b91505092915050565b6000806040838503121561101c5761101b610d00565b5b600061102a85828601610d2b565b925050602083013567ffffffffffffffff81111561104b5761104a610d05565b5b61105785828601610fd7565b9150509250929050565b600081519050919050565b600082825260208201905092915050565b6000819050602082019050919050565b600082825260208201905092915050565b60006110a982610d7c565b6110b3818561108d565b93506110c3818560208601610d98565b6110cc81610dc2565b840191505092915050565b6110e081610d0a565b82525050565b60006040830160008301518482036000860152611103828261109e565b915050602083015161111860208601826110d7565b508091505092915050565b600061112f83836110e6565b905092915050565b6000602082019050919050565b600061114f82611061565b611159818561106c565b93508360208202850161116b8561107d565b8060005b858110156111a757848403895281516111888582611123565b945061119383611137565b925060208a0199505060018101905061116f565b50829750879550505050505092915050565b600060208201905081810360008301526111d38184611144565b905092915050565b600060408201905081810360008301526111f58185610dd3565b90506112046020830184610e18565b9392505050565b60006020820190506112206000830184610d6d565b92915050565b6000806040838503121561123d5761123c610d00565b5b600061124b85828601610d2b565b925050602061125c85828601610d2b565b9150509250929050565b60008060006060848603121561127f5761127e610d00565b5b600084013567ffffffffffffffff81111561129d5761129c610d05565b5b6112a986828701610fd7565b93505060206112ba86828701610d2b565b92505060406112cb86828701610d2b565b9150509250925092565b6112de81610e47565b81146112e957600080fd5b50565b6000813590506112fb816112d5565b92915050565b6000806040838503121561131857611317610d00565b5b600061132685828601610d2b565b9250506020611337858286016112ec565b9150509250929050565b60006020820190506113566000830184610e18565b92915050565b7f4e487b7100000000000000000000000000000000000000000000000000000000600052602260045260246000fd5b600060028204905060018216806113a357607f821691505b6020821081036113b6576113b561135c565b5b50919050565b7f53657373696f6e20646f6573206e6f7420657869737400000000000000000000600082015250565b60006113f2601683610d87565b91506113fd826113bc565b602082019050919050565b60006020820190508181036000830152611421816113e5565b9050919050565b7f4f6e6c79207468652073657373696f6e2063726561746f722063616e2070657260008201527f666f726d207468697320616374696f6e00000000000000000000000000000000602082015250565b6000611484603083610d87565b915061148f82611428565b604082019050919050565b600060208201905081810360008301526114b381611477565b9050919050565b60008190508160005260206000209050919050565b60006020601f8301049050919050565b600082821b905092915050565b60006008830261151c7fffffffffffffffffffffffffffffffffffffffffffffffffffffffffffffffff826114df565b61152686836114df565b95508019841693508086168417925050509392505050565b6000819050919050565b600061156361155e61155984610d0a565b61153e565b610d0a565b9050919050565b6000819050919050565b61157d83611548565b6115916115898261156a565b8484546114ec565b825550505050565b600090565b6115a6611599565b6115b1818484611574565b505050565b5b818110156115d5576115ca60008261159e565b6001810190506115b7565b5050565b601f82111561161a576115eb816114ba565b6115f4846114cf565b81016020851015611603578190505b61161761160f856114cf565b8301826115b6565b50505b505050565b600082821c905092915050565b600061163d6000198460080261161f565b1980831691505092915050565b6000611656838361162c565b9150826002028217905092915050565b61166f82610d7c565b67ffffffffffffffff81111561168857611687610eda565b5b611692825461138b565b61169d8282856115d9565b600060209050601f8311600181146116d057600084156116be578287015190505b6116c8858261164a565b865550611730565b601f1984166116de866114ba565b60005b82811015611706578489015182556001820191506020850194506020810190506116e1565b86831015611723578489015161171f601f89168261162c565b8355505b6001600288020188555050505b505050505050565b7f43616e6e6f742061726368697665206163746976652073657373696f6e000000600082015250565b600061176e601d83610d87565b915061177982611738565b602082019050919050565b6000602082019050818103600083015261179d81611761565b9050919050565b7f4e487b7100000000000000000000000000000000000000000000000000000000600052603260045260246000fd5b7f4e487b7100000000000000000000000000000000000000000000000000000000600052601160045260246000fd5b600061180d82610d0a565b91507fffffffffffffffffffffffffffffffffffffffffffffffffffffffffffffffff820361183f5761183e6117d3565b5b600182019050919050565b7f566f74696e67206973206e6f742061637469766520666f72207468697320736560008201527f7373696f6e000000000000000000000000000000000000000000000000000000602082015250565b60006118a6602583610d87565b91506118b18261184a565b604082019050919050565b600060208201905081810360008301526118d581611899565b9050919050565b7f596f75206861766520616c726561647920766f74656400000000000000000000600082015250565b6000611912601683610d87565b915061191d826118dc565b602082019050919050565b6000602082019050818103600083015261194181611905565b9050919050565b7f496e76616c69642063616e646964617465204944000000000000000000000000600082015250565b600061197e601483610d87565b915061198982611948565b602082019050919050565b600060208201905081810360008301526119ad81611971565b9050919050565b7f456e642074696d65206d7573742062652061667465722073746172742074696d60008201527f6500000000000000000000000000000000000000000000000000000000000000602082015250565b6000611a10602183610d87565b9150611a1b826119b4565b604082019050919050565b60006020820190508181036000830152611a3f81611a03565b905091905056fea26469706673582212204504975d0ab2881409a97c7a1f97f7e045e62fc83f8fbb02ee8d87b327536a4c64736f6c634300081b0033",
  "linkReferences": {},
  "deployedLinkReferences": {}
}