{
  "_format": "hh-sol-artifact-1",
  "contractName": "VotingContract2",
  "sourceName": "contracts/VotingContract2.sol",
  "abi": [
    {
      "inputs": [],
      "stateMutability": "nonpayable",
      "type": "constructor"
    },
    {
      "inputs": [
        {
          "internalType": "address",
          "name": "owner",
          "type": "address"
        }
      ],
      "name": "OwnableInvalidOwner",
      "type": "error"
    },
    {
      "inputs": [
        {
          "internalType": "address",
          "name": "account",
          "type": "address"
        }
      ],
      "name": "OwnableUnauthorizedAccount",
      "type": "error"
    },
    {
      "inputs": [],
      "name": "ReentrancyGuardReentrantCall",
      "type": "error"
    },
    {
      "anonymous": false,
      "inputs": [
        {
          "indexed": true,
          "internalType": "uint256",
          "name": "sessionId",
          "type": "uint256"
        },
        {
          "indexed": false,
          "internalType": "string",
          "name": "candidateName",
          "type": "string"
        }
      ],
      "name": "CandidateAdded",
      "type": "event"
    },
    {
      "anonymous": false,
      "inputs": [
        {
          "indexed": true,
          "internalType": "address",
          "name": "previousOwner",
          "type": "address"
        },
        {
          "indexed": true,
          "internalType": "address",
          "name": "newOwner",
          "type": "address"
        }
      ],
      "name": "OwnershipTransferred",
      "type": "event"
    },
    {
      "anonymous": false,
      "inputs": [
        {
          "indexed": true,
          "internalType": "uint256",
          "name": "sessionId",
          "type": "uint256"
        }
      ],
      "name": "SessionArchived",
      "type": "event"
    },
    {
      "anonymous": false,
      "inputs": [
        {
          "indexed": true,
          "internalType": "address",
          "name": "voter",
          "type": "address"
        },
        {
          "indexed": true,
          "internalType": "uint256",
          "name": "sessionId",
          "type": "uint256"
        },
        {
          "indexed": false,
          "internalType": "uint256",
          "name": "candidateId",
          "type": "uint256"
        }
      ],
      "name": "VoteCast",
      "type": "event"
    },
    {
      "anonymous": false,
      "inputs": [
        {
          "indexed": true,
          "internalType": "address",
          "name": "creator",
          "type": "address"
        },
        {
          "indexed": false,
          "internalType": "uint256",
          "name": "sessionId",
          "type": "uint256"
        },
        {
          "indexed": false,
          "internalType": "string",
          "name": "title",
          "type": "string"
        },
        {
          "indexed": false,
          "internalType": "uint256",
          "name": "startTime",
          "type": "uint256"
        },
        {
          "indexed": false,
          "internalType": "uint256",
          "name": "endTime",
          "type": "uint256"
        }
      ],
      "name": "VotingSessionCreated",
      "type": "event"
    },
    {
      "inputs": [
        {
          "internalType": "uint256",
          "name": "sessionId",
          "type": "uint256"
        },
        {
          "internalType": "string",
          "name": "name",
          "type": "string"
        }
      ],
      "name": "addCandidate",
      "outputs": [],
      "stateMutability": "nonpayable",
      "type": "function"
    },
    {
      "inputs": [
        {
          "internalType": "uint256",
          "name": "sessionId",
          "type": "uint256"
        }
      ],
      "name": "archiveSession",
      "outputs": [],
      "stateMutability": "nonpayable",
      "type": "function"
    },
    {
      "inputs": [
        {
          "internalType": "string",
          "name": "title",
          "type": "string"
        },
        {
          "internalType": "uint256",
          "name": "startTime",
          "type": "uint256"
        },
        {
          "internalType": "uint256",
          "name": "endTime",
          "type": "uint256"
        }
      ],
      "name": "createVotingSession",
      "outputs": [],
      "stateMutability": "nonpayable",
      "type": "function"
    },
    {
      "inputs": [
        {
          "internalType": "uint256",
          "name": "sessionId",
          "type": "uint256"
        }
      ],
      "name": "getCandidates",
      "outputs": [
        {
          "components": [
            {
              "internalType": "string",
              "name": "name",
              "type": "string"
            },
            {
              "internalType": "uint256",
              "name": "voteCount",
              "type": "uint256"
            }
          ],
          "internalType": "struct VotingContract2.Candidate[]",
          "name": "",
          "type": "tuple[]"
        }
      ],
      "stateMutability": "view",
      "type": "function"
    },
    {
      "inputs": [
        {
          "internalType": "uint256",
          "name": "sessionId",
          "type": "uint256"
        }
      ],
      "name": "getSessionCreator",
      "outputs": [
        {
          "internalType": "address",
          "name": "",
          "type": "address"
        }
      ],
      "stateMutability": "view",
      "type": "function"
    },
    {
      "inputs": [
        {
          "internalType": "uint256",
          "name": "sessionId",
          "type": "uint256"
        }
      ],
      "name": "getWinner",
      "outputs": [
        {
          "internalType": "string",
          "name": "winnerName",
          "type": "string"
        },
        {
          "internalType": "bool",
          "name": "isTie",
          "type": "bool"
        }
      ],
      "stateMutability": "view",
      "type": "function"
    },
    {
      "inputs": [
        {
          "internalType": "uint256",
          "name": "sessionId",
          "type": "uint256"
        },
        {
          "internalType": "address",
          "name": "user",
          "type": "address"
        }
      ],
      "name": "hasUserVoted",
      "outputs": [
        {
          "internalType": "bool",
          "name": "",
          "type": "bool"
        }
      ],
      "stateMutability": "view",
      "type": "function"
    },
    {
      "inputs": [],
      "name": "owner",
      "outputs": [
        {
          "internalType": "address",
          "name": "",
          "type": "address"
        }
      ],
      "stateMutability": "view",
      "type": "function"
    },
    {
      "inputs": [],
      "name": "renounceOwnership",
      "outputs": [],
      "stateMutability": "nonpayable",
      "type": "function"
    },
    {
      "inputs": [],
      "name": "sessionCount",
      "outputs": [
        {
          "internalType": "uint256",
          "name": "",
          "type": "uint256"
        }
      ],
      "stateMutability": "view",
      "type": "function"
    },
    {
      "inputs": [
        {
          "internalType": "address",
          "name": "newOwner",
          "type": "address"
        }
      ],
      "name": "transferOwnership",
      "outputs": [],
      "stateMutability": "nonpayable",
      "type": "function"
    },
    {
      "inputs": [
        {
          "internalType": "uint256",
          "name": "sessionId",
          "type": "uint256"
        },
        {
          "internalType": "uint256",
          "name": "candidateId",
          "type": "uint256"
        }
      ],
      "name": "vote",
      "outputs": [],
      "stateMutability": "nonpayable",
      "type": "function"
    },
    {
      "inputs": [
        {
          "internalType": "uint256",
          "name": "",
          "type": "uint256"
        }
      ],
      "name": "votingSessions",
      "outputs": [
        {
          "internalType": "uint256",
          "name": "id",
          "type": "uint256"
        },
        {
          "internalType": "string",
          "name": "title",
          "type": "string"
        },
        {
          "internalType": "uint256",
          "name": "startTime",
          "type": "uint256"
        },
        {
          "internalType": "uint256",
          "name": "endTime",
          "type": "uint256"
        },
        {
          "internalType": "bool",
          "name": "isActive",
          "type": "bool"
        },
        {
          "internalType": "address",
          "name": "creator",
          "type": "address"
        }
      ],
      "stateMutability": "view",
      "type": "function"
    }
  ],
  "bytecode": "0x608060405234801561001057600080fd5b5033600073ffffffffffffffffffffffffffffffffffffffff168173ffffffffffffffffffffffffffffffffffffffff16036100845760006040517f1e4fbdf700000000000000000000000000000000000000000000000000000000815260040161007b91906101a5565b60405180910390fd5b610093816100a060201b60201c565b50600180819055506101c0565b60008060009054906101000a900473ffffffffffffffffffffffffffffffffffffffff169050816000806101000a81548173ffffffffffffffffffffffffffffffffffffffff021916908373ffffffffffffffffffffffffffffffffffffffff1602179055508173ffffffffffffffffffffffffffffffffffffffff168173ffffffffffffffffffffffffffffffffffffffff167f8be0079c531659141344cd1fd0a4f28419497f9722a3daafe3b4186f6b6457e060405160405180910390a35050565b600073ffffffffffffffffffffffffffffffffffffffff82169050919050565b600061018f82610164565b9050919050565b61019f81610184565b82525050565b60006020820190506101ba6000830184610196565b92915050565b6120bb806101cf6000396000f3fe608060405234801561001057600080fd5b50600436106100cf5760003560e01c806373cd83361161008c578063b384abef11610066578063b384abef14610218578063c08503c614610234578063dc296ae114610250578063f2fde38b14610280576100cf565b806373cd8336146101ac5780638da5cb5b146101ca578063aa6f22f5146101e8576100cf565b80631186eb7c146100d45780631750a3d0146101095780633544bfea146101255780633e39a7a5146101415780634129b2c914610171578063715018a6146101a2575b600080fd5b6100ee60048036038101906100e9919061125d565b61029c565b60405161010096959493929190611385565b60405180910390f35b610123600480360381019061011e9190611522565b61038d565b005b61013f600480360381019061013a919061125d565b610546565b005b61015b6004803603810190610156919061125d565b61064b565b60405161016891906116d6565b60405180910390f35b61018b6004803603810190610186919061125d565b6107b6565b6040516101999291906116f8565b60405180910390f35b6101aa610a22565b005b6101b4610a36565b6040516101c19190611728565b60405180910390f35b6101d2610a3c565b6040516101df9190611743565b60405180910390f35b61020260048036038101906101fd919061125d565b610a65565b60405161020f9190611743565b60405180910390f35b610232600480360381019061022d919061175e565b610aff565b005b61024e6004803603810190610249919061179e565b610dc0565b005b61026a60048036038101906102659190611839565b610f26565b6040516102779190611879565b60405180910390f35b61029a60048036038101906102959190611894565b610feb565b005b60036020528060005260406000206000915090508060000154908060010180546102c5906118f0565b80601f01602080910402602001604051908101604052809291908181526020018280546102f1906118f0565b801561033e5780601f106103135761010080835404028352916020019161033e565b820191906000526020600020905b81548152906001019060200180831161032157829003601f168201915b5050505050908060020154908060030154908060060160009054906101000a900460ff16908060060160019054906101000a900473ffffffffffffffffffffffffffffffffffffffff16905086565b81806003600083815260200190815260200160002060000154146103e6576040517f08c379a00000000000000000000000000000000000000000000000000000000081526004016103dd9061196d565b60405180910390fd5b826003600082815260200190815260200160002060060160019054906101000a900473ffffffffffffffffffffffffffffffffffffffff1673ffffffffffffffffffffffffffffffffffffffff163373ffffffffffffffffffffffffffffffffffffffff161461048b576040517f08c379a0000000000000000000000000000000000000000000000000000000008152600401610482906119ff565b60405180910390fd5b60006003600086815260200190815260200160002090508060040160405180604001604052808681526020016000815250908060018154018082558091505060019003906000526020600020906002020160009091909190915060008201518160000190816104fa9190611bcb565b50602082015181600101555050847fe83b2a43e7e82d975c8a0a6d2f045153c869e111136a34d1889ab7b598e396a3856040516105379190611c9d565b60405180910390a25050505050565b808060036000838152602001908152602001600020600001541461059f576040517f08c379a00000000000000000000000000000000000000000000000000000000081526004016105969061196d565b60405180910390fd5b6000600360008481526020019081526020016000209050806003015442116105fc576040517f08c379a00000000000000000000000000000000000000000000000000000000081526004016105f390611d0b565b60405180910390fd5b60008160060160006101000a81548160ff021916908315150217905550827f86ab214b9941164ba2b8fa50046c3399316cf613517f781985e3180dbdb65bfd60405160405180910390a2505050565b606081806003600083815260200190815260200160002060000154146106a6576040517f08c379a000000000000000000000000000000000000000000000000000000000815260040161069d9061196d565b60405180910390fd5b60036000848152602001908152602001600020600401805480602002602001604051908101604052809291908181526020016000905b828210156107aa578382906000526020600020906002020160405180604001604052908160008201805461070f906118f0565b80601f016020809104026020016040519081016040528092919081815260200182805461073b906118f0565b80156107885780601f1061075d57610100808354040283529160200191610788565b820191906000526020600020905b81548152906001019060200180831161076b57829003601f168201915b50505050508152602001600182015481525050815260200190600101906106dc565b50505050915050919050565b606060008280600360008381526020019081526020016000206000015414610813576040517f08c379a000000000000000000000000000000000000000000000000000000000815260040161080a9061196d565b60405180910390fd5b60006003600086815260200190815260200160002090506000816004018054905011610874576040517f08c379a000000000000000000000000000000000000000000000000000000000815260040161086b90611d77565b60405180910390fd5b60008060005b83600401805490508110156109e857828460040182815481106108a05761089f611d97565b5b906000526020600020906002020160010154111561099d578360040181815481106108ce576108cd611d97565b5b90600052602060002090600202016001015492508360040181815481106108f8576108f7611d97565b5b90600052602060002090600202016000018054610914906118f0565b80601f0160208091040260200160405190810160405280929190818152602001828054610940906118f0565b801561098d5780601f106109625761010080835404028352916020019161098d565b820191906000526020600020905b81548152906001019060200180831161097057829003601f168201915b50505050509650600191506109db565b828460040182815481106109b4576109b3611d97565b5b906000526020600020906002020160010154036109da5781806109d690611df5565b9250505b5b808060010191505061087a565b506001811115610a11576001604051806020016040528060008152509095509550505050610a1c565b856000955095505050505b50915091565b610a2a611071565b610a3460006110f8565b565b60025481565b60008060009054906101000a900473ffffffffffffffffffffffffffffffffffffffff16905090565b60008180600360008381526020019081526020016000206000015414610ac0576040517f08c379a0000000000000000000000000000000000000000000000000000000008152600401610ab79061196d565b60405180910390fd5b6003600084815260200190815260200160002060060160019054906101000a900473ffffffffffffffffffffffffffffffffffffffff16915050919050565b610b076111bc565b8160036000828152602001908152602001600020600201544210158015610b44575060036000828152602001908152602001600020600301544211155b610b83576040517f08c379a0000000000000000000000000000000000000000000000000000000008152600401610b7a90611eaf565b60405180910390fd5b8280600360008381526020019081526020016000206000015414610bdc576040517f08c379a0000000000000000000000000000000000000000000000000000000008152600401610bd39061196d565b60405180910390fd5b60006003600086815260200190815260200160002090508060050160003373ffffffffffffffffffffffffffffffffffffffff1673ffffffffffffffffffffffffffffffffffffffff16815260200190815260200160002060009054906101000a900460ff1615610c82576040517f08c379a0000000000000000000000000000000000000000000000000000000008152600401610c7990611f1b565b60405180910390fd5b80600401805490508410610ccb576040517f08c379a0000000000000000000000000000000000000000000000000000000008152600401610cc290611f87565b60405180910390fd5b60018160050160003373ffffffffffffffffffffffffffffffffffffffff1673ffffffffffffffffffffffffffffffffffffffff16815260200190815260200160002060006101000a81548160ff021916908315150217905550806004018481548110610d3b57610d3a611d97565b5b90600052602060002090600202016001016000815480929190610d5d90611df5565b9190505550843373ffffffffffffffffffffffffffffffffffffffff167fb4cfecf70861b7b150d8337780d34fb4cbc2114b5fb1fe51a5c5fca1849f727486604051610da99190611728565b60405180910390a3505050610dbc611202565b5050565b610dc8611071565b818111610e0a576040517f08c379a0000000000000000000000000000000000000000000000000000000008152600401610e0190612019565b60405180910390fd5b60006003600060025481526020019081526020016000209050600254816000018190555083816001019081610e3f9190611bcb565b5082816002018190555081816003018190555060018160060160006101000a81548160ff021916908315150217905550338160060160016101000a81548173ffffffffffffffffffffffffffffffffffffffff021916908373ffffffffffffffffffffffffffffffffffffffff1602179055503373ffffffffffffffffffffffffffffffffffffffff167f04f45a9c6dd9a8d45035d3a1449ce0b77c77bb4f48e291a201e0dd63d21b087b600254868686604051610f009493929190612039565b60405180910390a260026000815480929190610f1b90611df5565b919050555050505050565b60008280600360008381526020019081526020016000206000015414610f81576040517f08c379a0000000000000000000000000000000000000000000000000000000008152600401610f789061196d565b60405180910390fd5b6003600085815260200190815260200160002060050160008473ffffffffffffffffffffffffffffffffffffffff1673ffffffffffffffffffffffffffffffffffffffff16815260200190815260200160002060009054906101000a900460ff1691505092915050565b610ff3611071565b600073ffffffffffffffffffffffffffffffffffffffff168173ffffffffffffffffffffffffffffffffffffffff16036110655760006040517f1e4fbdf700000000000000000000000000000000000000000000000000000000815260040161105c9190611743565b60405180910390fd5b61106e816110f8565b50565b61107961120b565b73ffffffffffffffffffffffffffffffffffffffff16611097610a3c565b73ffffffffffffffffffffffffffffffffffffffff16146110f6576110ba61120b565b6040517f118cdaa70000000000000000000000000000000000000000000000000000000081526004016110ed9190611743565b60405180910390fd5b565b60008060009054906101000a900473ffffffffffffffffffffffffffffffffffffffff169050816000806101000a81548173ffffffffffffffffffffffffffffffffffffffff021916908373ffffffffffffffffffffffffffffffffffffffff1602179055508173ffffffffffffffffffffffffffffffffffffffff168173ffffffffffffffffffffffffffffffffffffffff167f8be0079c531659141344cd1fd0a4f28419497f9722a3daafe3b4186f6b6457e060405160405180910390a35050565b6002600154036111f8576040517f3ee5aeb500000000000000000000000000000000000000000000000000000000815260040160405180910390fd5b6002600181905550565b60018081905550565b600033905090565b6000604051905090565b600080fd5b600080fd5b6000819050919050565b61123a81611227565b811461124557600080fd5b50565b60008135905061125781611231565b92915050565b6000602082840312156112735761127261121d565b5b600061128184828501611248565b91505092915050565b61129381611227565b82525050565b600081519050919050565b600082825260208201905092915050565b60005b838110156112d35780820151818401526020810190506112b8565b60008484015250505050565b6000601f19601f8301169050919050565b60006112fb82611299565b61130581856112a4565b93506113158185602086016112b5565b61131e816112df565b840191505092915050565b60008115159050919050565b61133e81611329565b82525050565b600073ffffffffffffffffffffffffffffffffffffffff82169050919050565b600061136f82611344565b9050919050565b61137f81611364565b82525050565b600060c08201905061139a600083018961128a565b81810360208301526113ac81886112f0565b90506113bb604083018761128a565b6113c8606083018661128a565b6113d56080830185611335565b6113e260a0830184611376565b979650505050505050565b600080fd5b600080fd5b7f4e487b7100000000000000000000000000000000000000000000000000000000600052604160045260246000fd5b61142f826112df565b810181811067ffffffffffffffff8211171561144e5761144d6113f7565b5b80604052505050565b6000611461611213565b905061146d8282611426565b919050565b600067ffffffffffffffff82111561148d5761148c6113f7565b5b611496826112df565b9050602081019050919050565b82818337600083830152505050565b60006114c56114c084611472565b611457565b9050828152602081018484840111156114e1576114e06113f2565b5b6114ec8482856114a3565b509392505050565b600082601f830112611509576115086113ed565b5b81356115198482602086016114b2565b91505092915050565b600080604083850312156115395761153861121d565b5b600061154785828601611248565b925050602083013567ffffffffffffffff81111561156857611567611222565b5b611574858286016114f4565b9150509250929050565b600081519050919050565b600082825260208201905092915050565b6000819050602082019050919050565b600082825260208201905092915050565b60006115c682611299565b6115d081856115aa565b93506115e08185602086016112b5565b6115e9816112df565b840191505092915050565b6115fd81611227565b82525050565b6000604083016000830151848203600086015261162082826115bb565b915050602083015161163560208601826115f4565b508091505092915050565b600061164c8383611603565b905092915050565b6000602082019050919050565b600061166c8261157e565b6116768185611589565b9350836020820285016116888561159a565b8060005b858110156116c457848403895281516116a58582611640565b94506116b083611654565b925060208a0199505060018101905061168c565b50829750879550505050505092915050565b600060208201905081810360008301526116f08184611661565b905092915050565b6000604082019050818103600083015261171281856112f0565b90506117216020830184611335565b9392505050565b600060208201905061173d600083018461128a565b92915050565b60006020820190506117586000830184611376565b92915050565b600080604083850312156117755761177461121d565b5b600061178385828601611248565b925050602061179485828601611248565b9150509250929050565b6000806000606084860312156117b7576117b661121d565b5b600084013567ffffffffffffffff8111156117d5576117d4611222565b5b6117e1868287016114f4565b93505060206117f286828701611248565b925050604061180386828701611248565b9150509250925092565b61181681611364565b811461182157600080fd5b50565b6000813590506118338161180d565b92915050565b600080604083850312156118505761184f61121d565b5b600061185e85828601611248565b925050602061186f85828601611824565b9150509250929050565b600060208201905061188e6000830184611335565b92915050565b6000602082840312156118aa576118a961121d565b5b60006118b884828501611824565b91505092915050565b7f4e487b7100000000000000000000000000000000000000000000000000000000600052602260045260246000fd5b6000600282049050600182168061190857607f821691505b60208210810361191b5761191a6118c1565b5b50919050565b7f53657373696f6e20646f6573206e6f7420657869737400000000000000000000600082015250565b60006119576016836112a4565b915061196282611921565b602082019050919050565b600060208201905081810360008301526119868161194a565b9050919050565b7f4f6e6c79207468652073657373696f6e2063726561746f722063616e2070657260008201527f666f726d207468697320616374696f6e00000000000000000000000000000000602082015250565b60006119e96030836112a4565b91506119f48261198d565b604082019050919050565b60006020820190508181036000830152611a18816119dc565b9050919050565b60008190508160005260206000209050919050565b60006020601f8301049050919050565b600082821b905092915050565b600060088302611a817fffffffffffffffffffffffffffffffffffffffffffffffffffffffffffffffff82611a44565b611a8b8683611a44565b95508019841693508086168417925050509392505050565b6000819050919050565b6000611ac8611ac3611abe84611227565b611aa3565b611227565b9050919050565b6000819050919050565b611ae283611aad565b611af6611aee82611acf565b848454611a51565b825550505050565b600090565b611b0b611afe565b611b16818484611ad9565b505050565b5b81811015611b3a57611b2f600082611b03565b600181019050611b1c565b5050565b601f821115611b7f57611b5081611a1f565b611b5984611a34565b81016020851015611b68578190505b611b7c611b7485611a34565b830182611b1b565b50505b505050565b600082821c905092915050565b6000611ba260001984600802611b84565b1980831691505092915050565b6000611bbb8383611b91565b9150826002028217905092915050565b611bd482611299565b67ffffffffffffffff811115611bed57611bec6113f7565b5b611bf782546118f0565b611c02828285611b3e565b600060209050601f831160018114611c355760008415611c23578287015190505b611c2d8582611baf565b865550611c95565b601f198416611c4386611a1f565b60005b82811015611c6b57848901518255600182019150602085019450602081019050611c46565b86831015611c885784890151611c84601f891682611b91565b8355505b6001600288020188555050505b505050505050565b60006020820190508181036000830152611cb781846112f0565b905092915050565b7f43616e6e6f742061726368697665206163746976652073657373696f6e000000600082015250565b6000611cf5601d836112a4565b9150611d0082611cbf565b602082019050919050565b60006020820190508181036000830152611d2481611ce8565b9050919050565b7f4e6f2063616e6469646174657320696e207468652073657373696f6e00000000600082015250565b6000611d61601c836112a4565b9150611d6c82611d2b565b602082019050919050565b60006020820190508181036000830152611d9081611d54565b9050919050565b7f4e487b7100000000000000000000000000000000000000000000000000000000600052603260045260246000fd5b7f4e487b7100000000000000000000000000000000000000000000000000000000600052601160045260246000fd5b6000611e0082611227565b91507fffffffffffffffffffffffffffffffffffffffffffffffffffffffffffffffff8203611e3257611e31611dc6565b5b600182019050919050565b7f566f74696e67206973206e6f742061637469766520666f72207468697320736560008201527f7373696f6e000000000000000000000000000000000000000000000000000000602082015250565b6000611e996025836112a4565b9150611ea482611e3d565b604082019050919050565b60006020820190508181036000830152611ec881611e8c565b9050919050565b7f596f75206861766520616c726561647920766f74656400000000000000000000600082015250565b6000611f056016836112a4565b9150611f1082611ecf565b602082019050919050565b60006020820190508181036000830152611f3481611ef8565b9050919050565b7f496e76616c69642063616e646964617465204944000000000000000000000000600082015250565b6000611f716014836112a4565b9150611f7c82611f3b565b602082019050919050565b60006020820190508181036000830152611fa081611f64565b9050919050565b7f456e642074696d65206d7573742062652061667465722073746172742074696d60008201527f6500000000000000000000000000000000000000000000000000000000000000602082015250565b60006120036021836112a4565b915061200e82611fa7565b604082019050919050565b6000602082019050818103600083015261203281611ff6565b9050919050565b600060808201905061204e600083018761128a565b818103602083015261206081866112f0565b905061206f604083018561128a565b61207c606083018461128a565b9594505050505056fea26469706673582212208332d1dc1ba70a6830ef53c0f32d6c4363cb7617eb482e64e3b8b4b42688166964736f6c634300081b0033",
  "linkReferences": {},
  "deployedLinkReferences": {}
}