{
  "_format": "hh-sol-artifact-1",
  "contractName": "VotingKlar",
  "sourceName": "contracts/VotingKlar.sol",
  "abi": [
    {
      "anonymous": false,
      "inputs": [
        {
          "indexed": true,
          "internalType": "uint256",
          "name": "sessionId",
          "type": "uint256"
        },
        {
          "indexed": false,
          "internalType": "string",
          "name": "candidateName",
          "type": "string"
        }
      ],
      "name": "CandidateAdded",
      "type": "event"
    },
    {
      "anonymous": false,
      "inputs": [
        {
          "indexed": true,
          "internalType": "uint256",
          "name": "sessionId",
          "type": "uint256"
        }
      ],
      "name": "SessionArchived",
      "type": "event"
    },
    {
      "anonymous": false,
      "inputs": [
        {
          "indexed": true,
          "internalType": "address",
          "name": "voter",
          "type": "address"
        },
        {
          "indexed": true,
          "internalType": "uint256",
          "name": "sessionId",
          "type": "uint256"
        },
        {
          "indexed": false,
          "internalType": "uint256",
          "name": "candidateId",
          "type": "uint256"
        }
      ],
      "name": "VoteCast",
      "type": "event"
    },
    {
      "anonymous": false,
      "inputs": [
        {
          "indexed": true,
          "internalType": "address",
          "name": "creator",
          "type": "address"
        },
        {
          "indexed": false,
          "internalType": "uint256",
          "name": "sessionId",
          "type": "uint256"
        },
        {
          "indexed": false,
          "internalType": "string",
          "name": "title",
          "type": "string"
        },
        {
          "indexed": false,
          "internalType": "uint256",
          "name": "startTime",
          "type": "uint256"
        },
        {
          "indexed": false,
          "internalType": "uint256",
          "name": "endTime",
          "type": "uint256"
        }
      ],
      "name": "VotingSessionCreated",
      "type": "event"
    },
    {
      "inputs": [
        {
          "internalType": "uint256",
          "name": "sessionId",
          "type": "uint256"
        },
        {
          "internalType": "string",
          "name": "name",
          "type": "string"
        }
      ],
      "name": "addCandidate",
      "outputs": [],
      "stateMutability": "nonpayable",
      "type": "function"
    },
    {
      "inputs": [
        {
          "internalType": "uint256",
          "name": "sessionId",
          "type": "uint256"
        }
      ],
      "name": "archiveSession",
      "outputs": [],
      "stateMutability": "nonpayable",
      "type": "function"
    },
    {
      "inputs": [
        {
          "internalType": "string",
          "name": "title",
          "type": "string"
        },
        {
          "internalType": "uint256",
          "name": "startTime",
          "type": "uint256"
        },
        {
          "internalType": "uint256",
          "name": "endTime",
          "type": "uint256"
        }
      ],
      "name": "createVotingSession",
      "outputs": [],
      "stateMutability": "nonpayable",
      "type": "function"
    },
    {
      "inputs": [
        {
          "internalType": "uint256",
          "name": "sessionId",
          "type": "uint256"
        }
      ],
      "name": "getCandidates",
      "outputs": [
        {
          "components": [
            {
              "internalType": "string",
              "name": "name",
              "type": "string"
            },
            {
              "internalType": "uint256",
              "name": "voteCount",
              "type": "uint256"
            }
          ],
          "internalType": "struct VotingKlar.Candidate[]",
          "name": "",
          "type": "tuple[]"
        }
      ],
      "stateMutability": "view",
      "type": "function"
    },
    {
      "inputs": [
        {
          "internalType": "uint256",
          "name": "sessionId",
          "type": "uint256"
        }
      ],
      "name": "getSessionCreator",
      "outputs": [
        {
          "internalType": "address",
          "name": "",
          "type": "address"
        }
      ],
      "stateMutability": "view",
      "type": "function"
    },
    {
      "inputs": [
        {
          "internalType": "uint256",
          "name": "sessionId",
          "type": "uint256"
        }
      ],
      "name": "getWinner",
      "outputs": [
        {
          "internalType": "string",
          "name": "winnerName",
          "type": "string"
        },
        {
          "internalType": "bool",
          "name": "isTie",
          "type": "bool"
        }
      ],
      "stateMutability": "view",
      "type": "function"
    },
    {
      "inputs": [
        {
          "internalType": "uint256",
          "name": "sessionId",
          "type": "uint256"
        },
        {
          "internalType": "address",
          "name": "user",
          "type": "address"
        }
      ],
      "name": "hasUserVoted",
      "outputs": [
        {
          "internalType": "bool",
          "name": "",
          "type": "bool"
        }
      ],
      "stateMutability": "view",
      "type": "function"
    },
    {
      "inputs": [],
      "name": "sessionCount",
      "outputs": [
        {
          "internalType": "uint256",
          "name": "",
          "type": "uint256"
        }
      ],
      "stateMutability": "view",
      "type": "function"
    },
    {
      "inputs": [
        {
          "internalType": "uint256",
          "name": "sessionId",
          "type": "uint256"
        },
        {
          "internalType": "uint256",
          "name": "candidateId",
          "type": "uint256"
        }
      ],
      "name": "vote",
      "outputs": [],
      "stateMutability": "nonpayable",
      "type": "function"
    },
    {
      "inputs": [
        {
          "internalType": "uint256",
          "name": "",
          "type": "uint256"
        }
      ],
      "name": "votingSessions",
      "outputs": [
        {
          "internalType": "uint256",
          "name": "id",
          "type": "uint256"
        },
        {
          "internalType": "string",
          "name": "title",
          "type": "string"
        },
        {
          "internalType": "uint256",
          "name": "startTime",
          "type": "uint256"
        },
        {
          "internalType": "uint256",
          "name": "endTime",
          "type": "uint256"
        },
        {
          "internalType": "bool",
          "name": "isActive",
          "type": "bool"
        },
        {
          "internalType": "address",
          "name": "creator",
          "type": "address"
        }
      ],
      "stateMutability": "view",
      "type": "function"
    }
  ],
  "bytecode": "0x6080604052348015600f57600080fd5b50611d9a8061001f6000396000f3fe608060405234801561001057600080fd5b506004361061009e5760003560e01c806373cd83361161006657806373cd833614610171578063aa6f22f51461018f578063b384abef146101bf578063c08503c6146101db578063dc296ae1146101f75761009e565b80631186eb7c146100a35780631750a3d0146100d85780633544bfea146100f45780633e39a7a5146101105780634129b2c914610140575b600080fd5b6100bd60048036038101906100b89190610f69565b610227565b6040516100cf96959493929190611091565b60405180910390f35b6100f260048036038101906100ed919061122e565b610318565b005b61010e60048036038101906101099190610f69565b6104d1565b005b61012a60048036038101906101259190610f69565b6105d6565b60405161013791906113e2565b60405180910390f35b61015a60048036038101906101559190610f69565b610741565b604051610168929190611404565b60405180910390f35b6101796109ad565b6040516101869190611434565b60405180910390f35b6101a960048036038101906101a49190610f69565b6109b3565b6040516101b6919061144f565b60405180910390f35b6101d960048036038101906101d4919061146a565b610a4d565b005b6101f560048036038101906101f091906114aa565b610cfe565b005b610211600480360381019061020c9190611545565b610e5a565b60405161021e9190611585565b60405180910390f35b6001602052806000526040600020600091509050806000015490806001018054610250906115cf565b80601f016020809104026020016040519081016040528092919081815260200182805461027c906115cf565b80156102c95780601f1061029e576101008083540402835291602001916102c9565b820191906000526020600020905b8154815290600101906020018083116102ac57829003601f168201915b5050505050908060020154908060030154908060060160009054906101000a900460ff16908060060160019054906101000a900473ffffffffffffffffffffffffffffffffffffffff16905086565b8180600160008381526020019081526020016000206000015414610371576040517f08c379a00000000000000000000000000000000000000000000000000000000081526004016103689061164c565b60405180910390fd5b826001600082815260200190815260200160002060060160019054906101000a900473ffffffffffffffffffffffffffffffffffffffff1673ffffffffffffffffffffffffffffffffffffffff163373ffffffffffffffffffffffffffffffffffffffff1614610416576040517f08c379a000000000000000000000000000000000000000000000000000000000815260040161040d906116de565b60405180910390fd5b600060016000868152602001908152602001600020905080600401604051806040016040528086815260200160008152509080600181540180825580915050600190039060005260206000209060020201600090919091909150600082015181600001908161048591906118aa565b50602082015181600101555050847fe83b2a43e7e82d975c8a0a6d2f045153c869e111136a34d1889ab7b598e396a3856040516104c2919061197c565b60405180910390a25050505050565b808060016000838152602001908152602001600020600001541461052a576040517f08c379a00000000000000000000000000000000000000000000000000000000081526004016105219061164c565b60405180910390fd5b600060016000848152602001908152602001600020905080600301544211610587576040517f08c379a000000000000000000000000000000000000000000000000000000000815260040161057e906119ea565b60405180910390fd5b60008160060160006101000a81548160ff021916908315150217905550827f86ab214b9941164ba2b8fa50046c3399316cf613517f781985e3180dbdb65bfd60405160405180910390a2505050565b60608180600160008381526020019081526020016000206000015414610631576040517f08c379a00000000000000000000000000000000000000000000000000000000081526004016106289061164c565b60405180910390fd5b60016000848152602001908152602001600020600401805480602002602001604051908101604052809291908181526020016000905b82821015610735578382906000526020600020906002020160405180604001604052908160008201805461069a906115cf565b80601f01602080910402602001604051908101604052809291908181526020018280546106c6906115cf565b80156107135780601f106106e857610100808354040283529160200191610713565b820191906000526020600020905b8154815290600101906020018083116106f657829003601f168201915b5050505050815260200160018201548152505081526020019060010190610667565b50505050915050919050565b60606000828060016000838152602001908152602001600020600001541461079e576040517f08c379a00000000000000000000000000000000000000000000000000000000081526004016107959061164c565b60405180910390fd5b600060016000868152602001908152602001600020905060008160040180549050116107ff576040517f08c379a00000000000000000000000000000000000000000000000000000000081526004016107f690611a56565b60405180910390fd5b60008060005b8360040180549050811015610973578284600401828154811061082b5761082a611a76565b5b90600052602060002090600202016001015411156109285783600401818154811061085957610858611a76565b5b906000526020600020906002020160010154925083600401818154811061088357610882611a76565b5b9060005260206000209060020201600001805461089f906115cf565b80601f01602080910402602001604051908101604052809291908181526020018280546108cb906115cf565b80156109185780601f106108ed57610100808354040283529160200191610918565b820191906000526020600020905b8154815290600101906020018083116108fb57829003601f168201915b5050505050965060019150610966565b8284600401828154811061093f5761093e611a76565b5b9060005260206000209060020201600101540361096557818061096190611ad4565b9250505b5b8080600101915050610805565b50600181111561099c5760016040518060200160405280600081525090955095505050506109a7565b856000955095505050505b50915091565b60005481565b60008180600160008381526020019081526020016000206000015414610a0e576040517f08c379a0000000000000000000000000000000000000000000000000000000008152600401610a059061164c565b60405180910390fd5b6001600084815260200190815260200160002060060160019054906101000a900473ffffffffffffffffffffffffffffffffffffffff16915050919050565b8160016000828152602001908152602001600020600201544210158015610a8a575060016000828152602001908152602001600020600301544211155b610ac9576040517f08c379a0000000000000000000000000000000000000000000000000000000008152600401610ac090611b8e565b60405180910390fd5b8280600160008381526020019081526020016000206000015414610b22576040517f08c379a0000000000000000000000000000000000000000000000000000000008152600401610b199061164c565b60405180910390fd5b60006001600086815260200190815260200160002090508060050160003373ffffffffffffffffffffffffffffffffffffffff1673ffffffffffffffffffffffffffffffffffffffff16815260200190815260200160002060009054906101000a900460ff1615610bc8576040517f08c379a0000000000000000000000000000000000000000000000000000000008152600401610bbf90611bfa565b60405180910390fd5b80600401805490508410610c11576040517f08c379a0000000000000000000000000000000000000000000000000000000008152600401610c0890611c66565b60405180910390fd5b60018160050160003373ffffffffffffffffffffffffffffffffffffffff1673ffffffffffffffffffffffffffffffffffffffff16815260200190815260200160002060006101000a81548160ff021916908315150217905550806004018481548110610c8157610c80611a76565b5b90600052602060002090600202016001016000815480929190610ca390611ad4565b9190505550843373ffffffffffffffffffffffffffffffffffffffff167fb4cfecf70861b7b150d8337780d34fb4cbc2114b5fb1fe51a5c5fca1849f727486604051610cef9190611434565b60405180910390a35050505050565b818111610d40576040517f08c379a0000000000000000000000000000000000000000000000000000000008152600401610d3790611cf8565b60405180910390fd5b600060016000805481526020019081526020016000209050600054816000018190555083816001019081610d7491906118aa565b5082816002018190555081816003018190555060018160060160006101000a81548160ff021916908315150217905550338160060160016101000a81548173ffffffffffffffffffffffffffffffffffffffff021916908373ffffffffffffffffffffffffffffffffffffffff1602179055503373ffffffffffffffffffffffffffffffffffffffff167f04f45a9c6dd9a8d45035d3a1449ce0b77c77bb4f48e291a201e0dd63d21b087b600054868686604051610e359493929190611d18565b60405180910390a2600080815480929190610e4f90611ad4565b919050555050505050565b60008280600160008381526020019081526020016000206000015414610eb5576040517f08c379a0000000000000000000000000000000000000000000000000000000008152600401610eac9061164c565b60405180910390fd5b6001600085815260200190815260200160002060050160008473ffffffffffffffffffffffffffffffffffffffff1673ffffffffffffffffffffffffffffffffffffffff16815260200190815260200160002060009054906101000a900460ff1691505092915050565b6000604051905090565b600080fd5b600080fd5b6000819050919050565b610f4681610f33565b8114610f5157600080fd5b50565b600081359050610f6381610f3d565b92915050565b600060208284031215610f7f57610f7e610f29565b5b6000610f8d84828501610f54565b91505092915050565b610f9f81610f33565b82525050565b600081519050919050565b600082825260208201905092915050565b60005b83811015610fdf578082015181840152602081019050610fc4565b60008484015250505050565b6000601f19601f8301169050919050565b600061100782610fa5565b6110118185610fb0565b9350611021818560208601610fc1565b61102a81610feb565b840191505092915050565b60008115159050919050565b61104a81611035565b82525050565b600073ffffffffffffffffffffffffffffffffffffffff82169050919050565b600061107b82611050565b9050919050565b61108b81611070565b82525050565b600060c0820190506110a66000830189610f96565b81810360208301526110b88188610ffc565b90506110c76040830187610f96565b6110d46060830186610f96565b6110e16080830185611041565b6110ee60a0830184611082565b979650505050505050565b600080fd5b600080fd5b7f4e487b7100000000000000000000000000000000000000000000000000000000600052604160045260246000fd5b61113b82610feb565b810181811067ffffffffffffffff8211171561115a57611159611103565b5b80604052505050565b600061116d610f1f565b90506111798282611132565b919050565b600067ffffffffffffffff82111561119957611198611103565b5b6111a282610feb565b9050602081019050919050565b82818337600083830152505050565b60006111d16111cc8461117e565b611163565b9050828152602081018484840111156111ed576111ec6110fe565b5b6111f88482856111af565b509392505050565b600082601f830112611215576112146110f9565b5b81356112258482602086016111be565b91505092915050565b6000806040838503121561124557611244610f29565b5b600061125385828601610f54565b925050602083013567ffffffffffffffff81111561127457611273610f2e565b5b61128085828601611200565b9150509250929050565b600081519050919050565b600082825260208201905092915050565b6000819050602082019050919050565b600082825260208201905092915050565b60006112d282610fa5565b6112dc81856112b6565b93506112ec818560208601610fc1565b6112f581610feb565b840191505092915050565b61130981610f33565b82525050565b6000604083016000830151848203600086015261132c82826112c7565b91505060208301516113416020860182611300565b508091505092915050565b6000611358838361130f565b905092915050565b6000602082019050919050565b60006113788261128a565b6113828185611295565b935083602082028501611394856112a6565b8060005b858110156113d057848403895281516113b1858261134c565b94506113bc83611360565b925060208a01995050600181019050611398565b50829750879550505050505092915050565b600060208201905081810360008301526113fc818461136d565b905092915050565b6000604082019050818103600083015261141e8185610ffc565b905061142d6020830184611041565b9392505050565b60006020820190506114496000830184610f96565b92915050565b60006020820190506114646000830184611082565b92915050565b6000806040838503121561148157611480610f29565b5b600061148f85828601610f54565b92505060206114a085828601610f54565b9150509250929050565b6000806000606084860312156114c3576114c2610f29565b5b600084013567ffffffffffffffff8111156114e1576114e0610f2e565b5b6114ed86828701611200565b93505060206114fe86828701610f54565b925050604061150f86828701610f54565b9150509250925092565b61152281611070565b811461152d57600080fd5b50565b60008135905061153f81611519565b92915050565b6000806040838503121561155c5761155b610f29565b5b600061156a85828601610f54565b925050602061157b85828601611530565b9150509250929050565b600060208201905061159a6000830184611041565b92915050565b7f4e487b7100000000000000000000000000000000000000000000000000000000600052602260045260246000fd5b600060028204905060018216806115e757607f821691505b6020821081036115fa576115f96115a0565b5b50919050565b7f53657373696f6e20646f6573206e6f7420657869737400000000000000000000600082015250565b6000611636601683610fb0565b915061164182611600565b602082019050919050565b6000602082019050818103600083015261166581611629565b9050919050565b7f4f6e6c79207468652073657373696f6e2063726561746f722063616e2070657260008201527f666f726d207468697320616374696f6e00000000000000000000000000000000602082015250565b60006116c8603083610fb0565b91506116d38261166c565b604082019050919050565b600060208201905081810360008301526116f7816116bb565b9050919050565b60008190508160005260206000209050919050565b60006020601f8301049050919050565b600082821b905092915050565b6000600883026117607fffffffffffffffffffffffffffffffffffffffffffffffffffffffffffffffff82611723565b61176a8683611723565b95508019841693508086168417925050509392505050565b6000819050919050565b60006117a76117a261179d84610f33565b611782565b610f33565b9050919050565b6000819050919050565b6117c18361178c565b6117d56117cd826117ae565b848454611730565b825550505050565b600090565b6117ea6117dd565b6117f58184846117b8565b505050565b5b818110156118195761180e6000826117e2565b6001810190506117fb565b5050565b601f82111561185e5761182f816116fe565b61183884611713565b81016020851015611847578190505b61185b61185385611713565b8301826117fa565b50505b505050565b600082821c905092915050565b600061188160001984600802611863565b1980831691505092915050565b600061189a8383611870565b9150826002028217905092915050565b6118b382610fa5565b67ffffffffffffffff8111156118cc576118cb611103565b5b6118d682546115cf565b6118e182828561181d565b600060209050601f8311600181146119145760008415611902578287015190505b61190c858261188e565b865550611974565b601f198416611922866116fe565b60005b8281101561194a57848901518255600182019150602085019450602081019050611925565b868310156119675784890151611963601f891682611870565b8355505b6001600288020188555050505b505050505050565b600060208201905081810360008301526119968184610ffc565b905092915050565b7f43616e6e6f742061726368697665206163746976652073657373696f6e000000600082015250565b60006119d4601d83610fb0565b91506119df8261199e565b602082019050919050565b60006020820190508181036000830152611a03816119c7565b9050919050565b7f4e6f2063616e6469646174657320696e207468652073657373696f6e00000000600082015250565b6000611a40601c83610fb0565b9150611a4b82611a0a565b602082019050919050565b60006020820190508181036000830152611a6f81611a33565b9050919050565b7f4e487b7100000000000000000000000000000000000000000000000000000000600052603260045260246000fd5b7f4e487b7100000000000000000000000000000000000000000000000000000000600052601160045260246000fd5b6000611adf82610f33565b91507fffffffffffffffffffffffffffffffffffffffffffffffffffffffffffffffff8203611b1157611b10611aa5565b5b600182019050919050565b7f566f74696e67206973206e6f742061637469766520666f72207468697320736560008201527f7373696f6e000000000000000000000000000000000000000000000000000000602082015250565b6000611b78602583610fb0565b9150611b8382611b1c565b604082019050919050565b60006020820190508181036000830152611ba781611b6b565b9050919050565b7f596f75206861766520616c726561647920766f74656400000000000000000000600082015250565b6000611be4601683610fb0565b9150611bef82611bae565b602082019050919050565b60006020820190508181036000830152611c1381611bd7565b9050919050565b7f496e76616c69642063616e646964617465204944000000000000000000000000600082015250565b6000611c50601483610fb0565b9150611c5b82611c1a565b602082019050919050565b60006020820190508181036000830152611c7f81611c43565b9050919050565b7f456e642074696d65206d7573742062652061667465722073746172742074696d60008201527f6500000000000000000000000000000000000000000000000000000000000000602082015250565b6000611ce2602183610fb0565b9150611ced82611c86565b604082019050919050565b60006020820190508181036000830152611d1181611cd5565b9050919050565b6000608082019050611d2d6000830187610f96565b8181036020830152611d3f8186610ffc565b9050611d4e6040830185610f96565b611d5b6060830184610f96565b9594505050505056fea26469706673582212202a74bfa4130bb1b90fe632f768f02b620e02bb31d1a2973eadb18934839e054b64736f6c634300081b0033",
  "linkReferences": {},
  "deployedLinkReferences": {}
}