{
  "_format": "hh-sol-artifact-1",
  "contractName": "VotingUltimate",
  "sourceName": "contracts/VotingUltimate.sol",
  "abi": [
    {
      "inputs": [
        {
          "internalType": "uint256",
          "name": "sessionId",
          "type": "uint256"
        },
        {
          "internalType": "string",
          "name": "name",
          "type": "string"
        }
      ],
      "name": "addCandidate",
      "outputs": [],
      "stateMutability": "nonpayable",
      "type": "function"
    },
    {
      "inputs": [
        {
          "internalType": "uint256",
          "name": "sessionId",
          "type": "uint256"
        }
      ],
      "name": "archiveSession",
      "outputs": [],
      "stateMutability": "nonpayable",
      "type": "function"
    },
    {
      "inputs": [
        {
          "internalType": "string",
          "name": "title",
          "type": "string"
        },
        {
          "internalType": "uint256",
          "name": "startTime",
          "type": "uint256"
        },
        {
          "internalType": "uint256",
          "name": "endTime",
          "type": "uint256"
        }
      ],
      "name": "createVotingSession",
      "outputs": [],
      "stateMutability": "nonpayable",
      "type": "function"
    },
    {
      "inputs": [
        {
          "internalType": "uint256",
          "name": "sessionId",
          "type": "uint256"
        }
      ],
      "name": "getCandidates",
      "outputs": [
        {
          "components": [
            {
              "internalType": "string",
              "name": "name",
              "type": "string"
            },
            {
              "internalType": "uint256",
              "name": "voteCount",
              "type": "uint256"
            }
          ],
          "internalType": "struct VotingUltimate.Candidate[]",
          "name": "",
          "type": "tuple[]"
        }
      ],
      "stateMutability": "view",
      "type": "function"
    },
    {
      "inputs": [
        {
          "internalType": "uint256",
          "name": "sessionId",
          "type": "uint256"
        }
      ],
      "name": "getWinner",
      "outputs": [
        {
          "internalType": "string",
          "name": "winnerName",
          "type": "string"
        },
        {
          "internalType": "bool",
          "name": "isTie",
          "type": "bool"
        }
      ],
      "stateMutability": "view",
      "type": "function"
    },
    {
      "inputs": [
        {
          "internalType": "uint256",
          "name": "sessionId",
          "type": "uint256"
        },
        {
          "internalType": "address",
          "name": "user",
          "type": "address"
        }
      ],
      "name": "hasUserVoted",
      "outputs": [
        {
          "internalType": "bool",
          "name": "",
          "type": "bool"
        }
      ],
      "stateMutability": "view",
      "type": "function"
    },
    {
      "inputs": [],
      "name": "sessionCount",
      "outputs": [
        {
          "internalType": "uint256",
          "name": "",
          "type": "uint256"
        }
      ],
      "stateMutability": "view",
      "type": "function"
    },
    {
      "inputs": [
        {
          "internalType": "uint256",
          "name": "sessionId",
          "type": "uint256"
        },
        {
          "internalType": "uint256",
          "name": "candidateId",
          "type": "uint256"
        }
      ],
      "name": "vote",
      "outputs": [],
      "stateMutability": "nonpayable",
      "type": "function"
    },
    {
      "inputs": [
        {
          "internalType": "uint256",
          "name": "",
          "type": "uint256"
        }
      ],
      "name": "votingSessions",
      "outputs": [
        {
          "internalType": "uint256",
          "name": "id",
          "type": "uint256"
        },
        {
          "internalType": "string",
          "name": "title",
          "type": "string"
        },
        {
          "internalType": "uint256",
          "name": "startTime",
          "type": "uint256"
        },
        {
          "internalType": "uint256",
          "name": "endTime",
          "type": "uint256"
        },
        {
          "internalType": "bool",
          "name": "isActive",
          "type": "bool"
        }
      ],
      "stateMutability": "view",
      "type": "function"
    }
  ],
  "bytecode": "0x6080604052348015600f57600080fd5b506118bd8061001f6000396000f3fe608060405234801561001057600080fd5b50600436106100935760003560e01c80634129b2c9116100665780634129b2c91461013457806373cd833614610165578063b384abef14610183578063c08503c61461019f578063dc296ae1146101bb57610093565b80631186eb7c146100985780631750a3d0146100cc5780633544bfea146100e85780633e39a7a514610104575b600080fd5b6100b260048036038101906100ad9190610c30565b6101eb565b6040516100c3959493929190610d17565b60405180910390f35b6100e660048036038101906100e19190610ea6565b6102b6565b005b61010260048036038101906100fd9190610c30565b610391565b005b61011e60048036038101906101199190610c30565b610469565b60405161012b919061105a565b60405180910390f35b61014e60048036038101906101499190610c30565b6105d4565b60405161015c92919061107c565b60405180910390f35b61016d6107f6565b60405161017a91906110ac565b60405180910390f35b61019d600480360381019061019891906110c7565b6107fc565b005b6101b960048036038101906101b49190611107565b610a5e565b005b6101d560048036038101906101d091906111d4565b610b21565b6040516101e29190611214565b60405180910390f35b60016020528060005260406000206000915090508060000154908060010180546102149061125e565b80601f01602080910402602001604051908101604052809291908181526020018280546102409061125e565b801561028d5780601f106102625761010080835404028352916020019161028d565b820191906000526020600020905b81548152906001019060200180831161027057829003601f168201915b5050505050908060020154908060030154908060060160009054906101000a900460ff16905085565b818060016000838152602001908152602001600020600001541461030f576040517f08c379a0000000000000000000000000000000000000000000000000000000008152600401610306906112db565b60405180910390fd5b600060016000858152602001908152602001600020905080600401604051806040016040528085815260200160008152509080600181540180825580915050600190039060005260206000209060020201600090919091909150600082015181600001908161037e91906114a7565b5060208201518160010155505050505050565b80806001600083815260200190815260200160002060000154146103ea576040517f08c379a00000000000000000000000000000000000000000000000000000000081526004016103e1906112db565b60405180910390fd5b600060016000848152602001908152602001600020905080600301544211610447576040517f08c379a000000000000000000000000000000000000000000000000000000000815260040161043e906115c5565b60405180910390fd5b60008160060160006101000a81548160ff021916908315150217905550505050565b606081806001600083815260200190815260200160002060000154146104c4576040517f08c379a00000000000000000000000000000000000000000000000000000000081526004016104bb906112db565b60405180910390fd5b60016000848152602001908152602001600020600401805480602002602001604051908101604052809291908181526020016000905b828210156105c8578382906000526020600020906002020160405180604001604052908160008201805461052d9061125e565b80601f01602080910402602001604051908101604052809291908181526020018280546105599061125e565b80156105a65780601f1061057b576101008083540402835291602001916105a6565b820191906000526020600020905b81548152906001019060200180831161058957829003601f168201915b50505050508152602001600182015481525050815260200190600101906104fa565b50505050915050919050565b606060008280600160008381526020019081526020016000206000015414610631576040517f08c379a0000000000000000000000000000000000000000000000000000000008152600401610628906112db565b60405180910390fd5b600060016000868152602001908152602001600020905060008060005b83600401805490508110156107bc5782846004018281548110610674576106736115e5565b5b9060005260206000209060020201600101541115610771578360040181815481106106a2576106a16115e5565b5b90600052602060002090600202016001015492508360040181815481106106cc576106cb6115e5565b5b906000526020600020906002020160000180546106e89061125e565b80601f01602080910402602001604051908101604052809291908181526020018280546107149061125e565b80156107615780601f1061073657610100808354040283529160200191610761565b820191906000526020600020905b81548152906001019060200180831161074457829003601f168201915b50505050509650600191506107af565b82846004018281548110610788576107876115e5565b5b906000526020600020906002020160010154036107ae5781806107aa90611643565b9250505b5b808060010191505061064e565b5060018111156107e55760016040518060200160405280600081525090955095505050506107f0565b856000955095505050505b50915091565b60005481565b8160016000828152602001908152602001600020600201544210158015610839575060016000828152602001908152602001600020600301544211155b610878576040517f08c379a000000000000000000000000000000000000000000000000000000000815260040161086f906116fd565b60405180910390fd5b82806001600083815260200190815260200160002060000154146108d1576040517f08c379a00000000000000000000000000000000000000000000000000000000081526004016108c8906112db565b60405180910390fd5b60006001600086815260200190815260200160002090508060050160003373ffffffffffffffffffffffffffffffffffffffff1673ffffffffffffffffffffffffffffffffffffffff16815260200190815260200160002060009054906101000a900460ff1615610977576040517f08c379a000000000000000000000000000000000000000000000000000000000815260040161096e90611769565b60405180910390fd5b806004018054905084106109c0576040517f08c379a00000000000000000000000000000000000000000000000000000000081526004016109b7906117d5565b60405180910390fd5b60018160050160003373ffffffffffffffffffffffffffffffffffffffff1673ffffffffffffffffffffffffffffffffffffffff16815260200190815260200160002060006101000a81548160ff021916908315150217905550806004018481548110610a3057610a2f6115e5565b5b90600052602060002090600202016001016000815480929190610a5290611643565b91905055505050505050565b818111610aa0576040517f08c379a0000000000000000000000000000000000000000000000000000000008152600401610a9790611867565b60405180910390fd5b600060016000805481526020019081526020016000209050600054816000018190555083816001019081610ad491906114a7565b5082816002018190555081816003018190555060018160060160006101000a81548160ff021916908315150217905550600080815480929190610b1690611643565b919050555050505050565b60008280600160008381526020019081526020016000206000015414610b7c576040517f08c379a0000000000000000000000000000000000000000000000000000000008152600401610b73906112db565b60405180910390fd5b6001600085815260200190815260200160002060050160008473ffffffffffffffffffffffffffffffffffffffff1673ffffffffffffffffffffffffffffffffffffffff16815260200190815260200160002060009054906101000a900460ff1691505092915050565b6000604051905090565b600080fd5b600080fd5b6000819050919050565b610c0d81610bfa565b8114610c1857600080fd5b50565b600081359050610c2a81610c04565b92915050565b600060208284031215610c4657610c45610bf0565b5b6000610c5484828501610c1b565b91505092915050565b610c6681610bfa565b82525050565b600081519050919050565b600082825260208201905092915050565b60005b83811015610ca6578082015181840152602081019050610c8b565b60008484015250505050565b6000601f19601f8301169050919050565b6000610cce82610c6c565b610cd88185610c77565b9350610ce8818560208601610c88565b610cf181610cb2565b840191505092915050565b60008115159050919050565b610d1181610cfc565b82525050565b600060a082019050610d2c6000830188610c5d565b8181036020830152610d3e8187610cc3565b9050610d4d6040830186610c5d565b610d5a6060830185610c5d565b610d676080830184610d08565b9695505050505050565b600080fd5b600080fd5b7f4e487b7100000000000000000000000000000000000000000000000000000000600052604160045260246000fd5b610db382610cb2565b810181811067ffffffffffffffff82111715610dd257610dd1610d7b565b5b80604052505050565b6000610de5610be6565b9050610df18282610daa565b919050565b600067ffffffffffffffff821115610e1157610e10610d7b565b5b610e1a82610cb2565b9050602081019050919050565b82818337600083830152505050565b6000610e49610e4484610df6565b610ddb565b905082815260208101848484011115610e6557610e64610d76565b5b610e70848285610e27565b509392505050565b600082601f830112610e8d57610e8c610d71565b5b8135610e9d848260208601610e36565b91505092915050565b60008060408385031215610ebd57610ebc610bf0565b5b6000610ecb85828601610c1b565b925050602083013567ffffffffffffffff811115610eec57610eeb610bf5565b5b610ef885828601610e78565b9150509250929050565b600081519050919050565b600082825260208201905092915050565b6000819050602082019050919050565b600082825260208201905092915050565b6000610f4a82610c6c565b610f548185610f2e565b9350610f64818560208601610c88565b610f6d81610cb2565b840191505092915050565b610f8181610bfa565b82525050565b60006040830160008301518482036000860152610fa48282610f3f565b9150506020830151610fb96020860182610f78565b508091505092915050565b6000610fd08383610f87565b905092915050565b6000602082019050919050565b6000610ff082610f02565b610ffa8185610f0d565b93508360208202850161100c85610f1e565b8060005b8581101561104857848403895281516110298582610fc4565b945061103483610fd8565b925060208a01995050600181019050611010565b50829750879550505050505092915050565b600060208201905081810360008301526110748184610fe5565b905092915050565b600060408201905081810360008301526110968185610cc3565b90506110a56020830184610d08565b9392505050565b60006020820190506110c16000830184610c5d565b92915050565b600080604083850312156110de576110dd610bf0565b5b60006110ec85828601610c1b565b92505060206110fd85828601610c1b565b9150509250929050565b6000806000606084860312156111205761111f610bf0565b5b600084013567ffffffffffffffff81111561113e5761113d610bf5565b5b61114a86828701610e78565b935050602061115b86828701610c1b565b925050604061116c86828701610c1b565b9150509250925092565b600073ffffffffffffffffffffffffffffffffffffffff82169050919050565b60006111a182611176565b9050919050565b6111b181611196565b81146111bc57600080fd5b50565b6000813590506111ce816111a8565b92915050565b600080604083850312156111eb576111ea610bf0565b5b60006111f985828601610c1b565b925050602061120a858286016111bf565b9150509250929050565b60006020820190506112296000830184610d08565b92915050565b7f4e487b7100000000000000000000000000000000000000000000000000000000600052602260045260246000fd5b6000600282049050600182168061127657607f821691505b6020821081036112895761128861122f565b5b50919050565b7f53657373696f6e20646f6573206e6f7420657869737400000000000000000000600082015250565b60006112c5601683610c77565b91506112d08261128f565b602082019050919050565b600060208201905081810360008301526112f4816112b8565b9050919050565b60008190508160005260206000209050919050565b60006020601f8301049050919050565b600082821b905092915050565b60006008830261135d7fffffffffffffffffffffffffffffffffffffffffffffffffffffffffffffffff82611320565b6113678683611320565b95508019841693508086168417925050509392505050565b6000819050919050565b60006113a461139f61139a84610bfa565b61137f565b610bfa565b9050919050565b6000819050919050565b6113be83611389565b6113d26113ca826113ab565b84845461132d565b825550505050565b600090565b6113e76113da565b6113f28184846113b5565b505050565b5b818110156114165761140b6000826113df565b6001810190506113f8565b5050565b601f82111561145b5761142c816112fb565b61143584611310565b81016020851015611444578190505b61145861145085611310565b8301826113f7565b50505b505050565b600082821c905092915050565b600061147e60001984600802611460565b1980831691505092915050565b6000611497838361146d565b9150826002028217905092915050565b6114b082610c6c565b67ffffffffffffffff8111156114c9576114c8610d7b565b5b6114d3825461125e565b6114de82828561141a565b600060209050601f83116001811461151157600084156114ff578287015190505b611509858261148b565b865550611571565b601f19841661151f866112fb565b60005b8281101561154757848901518255600182019150602085019450602081019050611522565b868310156115645784890151611560601f89168261146d565b8355505b6001600288020188555050505b505050505050565b7f43616e6e6f742061726368697665206163746976652073657373696f6e000000600082015250565b60006115af601d83610c77565b91506115ba82611579565b602082019050919050565b600060208201905081810360008301526115de816115a2565b9050919050565b7f4e487b7100000000000000000000000000000000000000000000000000000000600052603260045260246000fd5b7f4e487b7100000000000000000000000000000000000000000000000000000000600052601160045260246000fd5b600061164e82610bfa565b91507fffffffffffffffffffffffffffffffffffffffffffffffffffffffffffffffff82036116805761167f611614565b5b600182019050919050565b7f566f74696e67206973206e6f742061637469766520666f72207468697320736560008201527f7373696f6e000000000000000000000000000000000000000000000000000000602082015250565b60006116e7602583610c77565b91506116f28261168b565b604082019050919050565b60006020820190508181036000830152611716816116da565b9050919050565b7f596f75206861766520616c726561647920766f74656400000000000000000000600082015250565b6000611753601683610c77565b915061175e8261171d565b602082019050919050565b6000602082019050818103600083015261178281611746565b9050919050565b7f496e76616c69642063616e646964617465204944000000000000000000000000600082015250565b60006117bf601483610c77565b91506117ca82611789565b602082019050919050565b600060208201905081810360008301526117ee816117b2565b9050919050565b7f456e642074696d65206d7573742062652061667465722073746172742074696d60008201527f6500000000000000000000000000000000000000000000000000000000000000602082015250565b6000611851602183610c77565b915061185c826117f5565b604082019050919050565b6000602082019050818103600083015261188081611844565b905091905056fea26469706673582212200a6dad89710e65999a259918de8d1d2bcfb767b0026eb68d247f33ac94a8d33864736f6c634300081b0033",
  "linkReferences": {},
  "deployedLinkReferences": {}
}